:100000000C942A000C9447000C9447000C94470071
:100010000C9447000C9447000C9447000C94470044
:100020000C9447000C9447000C9447000C94470034
:100030000C9447000C9447000C9447000C94470024
:100040000C9447000C9447000C9447000C94470014
:100050000C94470011241FBECFE5D8E0DEBFCDBF12
:1000600012E0A0E6B0E0EAECF0E302C005900D92E9
:10007000A036B107D9F712E0A0E6B2E001C01D92A8
:10008000A737B107E1F70E94ED150C9463180C94A3
:100090000000EF92FF920F93DF93CF93CDB7DEB7BF
:1000A00060970FB6F894DEBF0FBECDBFA82F002318
:1000B00009F461C07E010894E11CF11C88E0F7019D
:1000C00011928A95E9F729833A834B835C836D8388
:1000D0007E83AF83988780E2801BE82FFF27E7FDB0
:1000E000F09549815A816B817C81181684F01986BC
:1000F0001A861B861C86882799278E1B9F0B04C097
:10010000440F551F661F771F8A95D2F728C0202FEE
:10011000332727FD3095DB01CA01022E04C0880F6A
:10012000991FAA1FBB1F0A94D2F789879A87AB87AA
:10013000BC8704C07695679557954795EA95D2F7A1
:100140008D819E81AF81B88504C0880F991FAA1F39
:10015000BB1F2A95D2F7482B592B6A2B7B2B4D8737
:100160005E876F87788B29853A854B855C856D85A1
:100170007E85AF8598898A2F60960FB6F894DEBF8A
:100180000FBECDBFCF91DF910F91FF90EF900895FB
:10019000AEE5B0E0EEECF0E00C942C18A8E04E01D7
:1001A0000894811C911CF4016A2E11926A94E9F75B
:1001B00029833A834B835C836D837E838F83988707
:1001C000CE010996FC011192AA95E9F7A986BA8693
:1001D000CB86DC86ED86FE860F87188B29843A84D1
:1001E0004B845C84ED84FE840F85188969807A8055
:1001F0008B809C806DA67EA68FA698AA6D807E803F
:100200008F809884E114F1040105110509F0B3C34E
:10021000621473048404950408F03DC100E02016C4
:1002200000E0300601E0400600E0500688F41FEFD1
:10023000211631044104510439F030F048E0E42E35
:10024000F12C012D112D18C0EE24FF24870114C0BC
:1002500020E0221620E0320620E0420621E052068D
:1002600030F038E1E32EF12C012D112D05C020E1F5
:10027000E22EF12C012D112DD201C1010E2C04C052
:10028000B695A795979587950A94D2F784509F4F76
:10029000DC012C9180E290E0A0E0B0E08E199F0993
:1002A000A00BB10B7C018D01E21AF10801091109C3
:1002B000E114F10401051105A1F10E2C04C0220C7A
:1002C000331C441C551C0A94D2F7A40193010E2C34
:1002D00004C0220F331F441F551F0A94D2F780E237
:1002E00090E08E199F096DA47EA48FA498A804C0E5
:1002F00096948794779467948A95D2F7622A732AA2
:10030000842A952AADA4BEA4CFA4D8A804C0AA0C60
:10031000BB1CCC1CDD1CEA94D2F7ADA6BEA6CFA6B2
:10032000D8AA6201EE24FF24CDAADEAAEFAAF8AE75
:10033000920181012070307009AF1AAF2BAF3CAF32
:10034000C401B301A70196010E940A187B018C0128
:10035000C401B3012DA93EA94FA958AD0E940A18A6
:10036000C901DA013C014D01C401B30129AD3AAD27
:100370004BAD5CAD0E94EB179B01AC018701FF24E4
:10038000EE24ADA4BEA4CFA4D8A8C601AA27BB273B
:1003900057016801A82AB92ACA2ADB2AA216B3067D
:1003A000C406D506E0F40894610871088108910834
:1003B000A20CB31CC41CD51CA214B304C404D504E1
:1003C00070F0A216B306C406D50648F40894610876
:1003D000710881089108A20CB31CC41CD51CA21A78
:1003E000B30AC40AD50AC601B5012DA93EA94FA971
:1003F00058AD0E940A187B018C01C601B5012DA9D8
:100400003EA94FA958AD0E940A18C901DA015C0142
:100410006D01C601B50129AD3AAD4BAD5CAD0E9491
:10042000EB179B01AC018701FF24EE248DA59EA54F
:10043000AFA5B8A9A070B070E82AF92A0A2B1B2B27
:10044000E216F30604071507C0F40894A108B108E2
:10045000C108D108E20CF31C041D151DE214F304BD
:100460000405150550F0E216F3060407150728F4F5
:100470000894A108B108C108D108D3019927882799
:1004800086017501E82AF92A0A2B1B2BE9AAFAAA88
:100490000BAB1CABCFC4211431044104510471F4E3
:1004A00061E070E080E090E020E030E040E050E08B
:1004B0000E940A18C901DA011C012D0100E0201672
:1004C00000E0300601E0400600E0500688F41FEF2F
:1004D000211631044104510431F028F048E050E085
:1004E00060E070E017C040E050E060E070E012C0F3
:1004F00020E0221620E0320620E0420621E05206EB
:1005000028F048E150E060E070E004C040E150E0D5
:1005100060E070E0D201C101042E04C0B695A79539
:10052000979587950A94D2F784509F4FDC012C91C0
:10053000E0E2EE2EF12C012D112DD801C701841B14
:10054000950BA60BB70B821B9109A109B109009766
:10055000A105B10561F464015301A218B308C408F0
:10056000D50831E0632E712C812C912C1EC16F9621
:100570008FAF6F97082E04C0220C331C441C551CEF
:100580000A94D2F7EE2DE81B640153010E2E04C02D
:10059000D694C794B794A7940A94D2F7A401930170
:1005A0006F960FAC6F9704C0220F331F441F551F67
:1005B0000A94D2F76DA47EA48FA498A80E2E04C02E
:1005C00096948794779467940A94D2F78401730180
:1005D000E22AF32A042B152BE9A6FAA60BA71CA7DF
:1005E0003201882499249201810120703070219673
:1005F0000CAF1DAF2EAF3FAF2197C601B501A401CF
:1006000093010E940A187B018C01C601B501A40167
:1006100093010E940A18C901DA0125968CAF9DAF9B
:10062000AEAFBFAF2597BC01CD0121962CAD3DAD3E
:100630004EAD5FAD21970E94EB179B01AC01870186
:10064000FF24EE24A9A4BAA4CBA4DCA4C601AA2743
:10065000BB275C016D01AE28BF28C02AD12AA21693
:10066000B306C406D50660F525966CAD7DAD8EAD9E
:100670009FAD2597615070408040904025966CAFAB
:100680007DAF8EAF9FAF2597A20CB31CC41CD51CA9
:10069000A214B304C404D50498F0A216B306C40689
:1006A000D50670F4615070408040904025966CAF44
:1006B0007DAF8EAF9FAF2597A20CB31CC41CD51C79
:1006C000A21AB30AC40AD50AC601B501A40193014E
:1006D0000E940A187B018C01C601B501A401930197
:1006E0000E940A18C901DA013C014D01C401B3019D
:1006F00021962CAD3DAD4EAD5FAD21970E94EB171D
:100700009B01AC018701FF24EE2489A59AA5ABA526
:10071000BCA5A070B07057016801A82AB92ACA2ADE
:10072000DB2AA216B306C406D506E0F408946108D5
:10073000710881089108A20CB31CC41CD51CA2141A
:10074000B304C404D50470F0A216B306C406D506DB
:1007500048F408946108710881089108A20CB31C40
:10076000C41CD51C8DA59EA5AFA5B8A96F960FACCE
:100770006F9704C0880F991FAA1FBB1F0A94D2F756
:100780008DA79EA7AFA7B8ABA21AB30AC40AD50A11
:100790002596ECACFDAC0EAD1FAD2597D701992782
:1007A0008827682A792A8A2A9B2A820122273327C6
:1007B00029960CAF1DAF2EAF3FAF2997A201910133
:1007C000407050702D962CAF3DAF4EAF5FAF2D9760
:1007D000C601B50129962CAD3DAD4EAD5FAD299753
:1007E0000E940A187B018C01C601B50129962CAD27
:1007F0003DAD4EAD5FAD29970E940A18C901DA01DF
:1008000061968CAF9DAFAEAFBFAF6197BC01CD011C
:100810002D962CAD3DAD4EAD5FAD2D970E94EB17E3
:100820009B01AC018701FF24EE24ADA4BEA4CFA49C
:10083000D8A8C601AA27BB2757016801A82AB92A48
:10084000CA2ADB2AA216B306C406D50660F561964D
:100850006CAD7DAD8EAD9FAD6197615070408040B5
:10086000904061966CAF7DAF8EAF9FAF6197A20C49
:10087000B31CC41CD51CA214B304C404D50498F042
:10088000A216B306C406D50670F4615070408040CD
:10089000904061966CAF7DAF8EAF9FAF6197A20C19
:1008A000B31CC41CD51CA21AB30AC40AD50AC601BB
:1008B000B50129962CAD3DAD4EAD5FAD29970E9497
:1008C0000A187B018C01C601B50129962CAD3DADFE
:1008D0004EAD5FAD29970E940A18C901DA015C018B
:1008E0006D01C601B5012D962CAD3DAD4EAD5FAD90
:1008F0002D970E94EB179B01AC018701FF24EE248A
:100900008DA59EA5AFA5B8A9A070B070E82AF92A58
:100910000A2B1B2BE216F30604071507C0F40894F4
:10092000A108B108C108D108E20CF31C041D151D73
:10093000E214F3040405150550F0E216F30604076B
:10094000150728F40894A108B108C108D1086196D8
:10095000ECACFDAC0EAD1FAD6197D7019927882790
:1009600096018501082B192B2A2B3B2B09AB1AABBF
:100970002BAB3CAB62C26E147F048006910608F478
:1009800051C220E0E21620E0F20621E0020720E05A
:10099000120788F43FEFE316F1040105110531F069
:1009A00028F048E050E060E070E017C040E050E020
:1009B00060E070E012C040E0E41640E0F40640E081
:1009C000040741E0140728F048E150E060E070E0DF
:1009D00004C040E150E060E070E0D801C701042E9F
:1009E00004C0B695A795979587950A94D2F7845039
:1009F0009F4FDC012C9130E2A32EB12CC12CD12CC5
:100A0000D601C501841B950BA60BB70B821B910960
:100A1000A109B1090097A105B10589F4E614F7040D
:100A20000805190508F4F2C16DA47EA48FA498A846
:100A3000621473048404950408F0E8C1F3C16E964F
:100A40008FAF6E97082E04C0EE0CFF1C001F111F05
:100A50000A94D2F76A2D681BD201C101062E04C088
:100A6000B695A795979587950A94D2F75C016D0185
:100A7000AE28BF28C02AD12AADA2BEA2CFA2D8A636
:100A8000720161016E960FAC6E9704C0CC0CDD1C38
:100A9000EE1CFF1C0A94D2F7C9A2DAA2EBA2FCA2B8
:100AA00064015301062E04C0D694C794B794A7944A
:100AB0000A94D2F7D401C3016E960FAC6E9704C0AE
:100AC000880F991FAA1FBB1F0A94D2F7EDA4FEA49A
:100AD0000FA518A904C016950795F794E7946A9591
:100AE000D2F737014801682A792A8A2A9B2A6D8E13
:100AF0007E8E8F8E98A2EDA0FEA00FA118A53801C2
:100B000088249924980187012070307065960CAF75
:100B10001DAF2EAF3FAF6597C601B501A40193018C
:100B20000E940A187B018C01C601B501A401930142
:100B30000E940A18C901DA011C012D01C201B1018C
:100B400065962CAD3DAD4EAD5FAD65970E94EB1740
:100B50009B01AC018701FF24EE24AD8CBE8CCF8CB1
:100B6000D8A0C601AA27BB2757016801A82AB92A1D
:100B7000CA2ADB2AA216B306C406D50600F50894D5
:100B80002108310841085108EDA0FEA00FA118A5C9
:100B9000AE0CBF1CC01ED11EAE14BF04C006D106D1
:100BA00070F0A216B306C406D50648F408942108CE
:100BB000310841085108AE0CBF1CC01ED11EA21A3C
:100BC000B30AC40AD50AC601B501A40193010E9463
:100BD0000A187B018C01C601B501A40193010E9492
:100BE0000A18C901DA013C014D01C401B30165963F
:100BF0002CAD3DAD4EAD5FAD65970E94EB179B01EF
:100C0000AC018701FF24EE248D8D9E8DAF8DB8A1A0
:100C1000A070B07057016801A82AB92ACA2ADB2A35
:100C2000A216B306C406D50600F50894610871083B
:100C3000810891086DA17EA18FA198A5A60EB71E6F
:100C4000C81ED91EA616B706C806D90670F0A21689
:100C5000B306C406D50648F40894610871088108F3
:100C60009108A60EB71EC81ED91ED601C501821B4B
:100C7000930BA40BB50B898F9A8FAB8FBC8FD101CF
:100C80009927882764015301A82AB92ACA2ADB2A8E
:100C9000A9AABAAACBAADCAA860175012FEF3FEF59
:100CA00040E050E0E222F32204231523A601662748
:100CB00077276D964CAF5DAF6EAF7FAF6D97A9A0F4
:100CC000BAA0CBA0DCA06FEF7FEF80E090E0A6227F
:100CD000B722C822D92289A19AA1ABA1BCA11D012A
:100CE00044245524C801B701A60195010E94EB17C1
:100CF00069966CAF7DAF8EAF9FAF6997C801B701A2
:100D0000A20191010E94EB173B014C016D966CAD65
:100D10007DAD8EAD9FAD6D97A60195010E94EB173D
:100D20007B018C016D966CAD7DAD8EAD9FAD6D97E9
:100D3000A20191010E94EB175B016C01A8019701D0
:100D4000260D371D481D591D69966CAC7DAC8EACC7
:100D50009FAC6997C401AA27BB27280F391F4A1FD8
:100D60005B1F2E153F054007510748F4E12CF12C7D
:100D700061E0062F112DAE0CBF1CC01ED11ECA0192
:100D8000AA27BB27BC01CD016A0D7B1D8C1D9D1DB3
:100D9000698C7A8C8B8C9C8C6616770688069906F3
:100DA00040F1661577058805990509F043C0D9011A
:100DB0009927882769962CAD3DAD4EAD5FAD6997FB
:100DC00040705070820F931FA41FB51F2DA53EA524
:100DD0004FA558A96E960FAC6E9704C0220F331F13
:100DE000441F551F0A94D2F7281739074A075B0793
:100DF00008F509A91AA92BA93CA9015010402040C7
:100E0000304009AB1AAB2BAB3CAB14C06624772443
:100E1000430121E030E040E050E029AB3AAB4BAB7E
:100E20005CAB0BC066247724430119AA1AAA1BAA3B
:100E30001CAA03C0662477244301FE01719688E052
:100E4000DF011D928A95E9F7A9A8BAA8CBA8DCA86A
:100E5000A98ABA8ACB8ADC8A6D8A7E8A8F8A988E22
:100E600029A93A894B895C89662D7E898F89988D5D
:100E7000C25ADF4FE2E10C944818ABE5B0E0E3E47E
:100E8000F7E00C942C18A8E04E010894811C911CEA
:100E9000F4016A2E11926A94E9F729833A834B830D
:100EA0005C836D837E838F839887CE010996FC01D6
:100EB0001192AA95E9F7A986BA86CB86DC86ED86DB
:100EC000FE860F87188B29843A844B845C84AD841A
:100ED000BE84CF84D88829813A814B815C81699610
:100EE0002FAF69976A963FAF6A976B964FAF6B9734
:100EF0006C965FAF6C976C966CAC7DAC8EAC9FAC17
:100F00006C9769AA7AAA8BAA9CAA6D817E818F812F
:100F100098853B014C016DAA7EAA8FAA98AEA114B8
:100F2000B104C104D10409F004C36214730484043D
:100F3000950408F000C100E0201600E0300601E052
:100F4000400600E0500688F41FEF211631044104EA
:100F5000510439F030F088E0E82EF12C012D112DEC
:100F600018C0EE24FF24870114C040E0241640E09E
:100F7000340640E0440641E0540630F0B8E1EB2E80
:100F8000F12C012D112D05C0A0E1EA2EF12C012D2F
:100F9000112DD201C1010E2C04C0B695A7959795CD
:100FA00087950A94D2F784509F4FDC012C9180E200
:100FB00090E0A0E0B0E08E199F09A00BB10B5C019E
:100FC0006D01A21AB108C108D108A9AEBAAECBAE64
:100FD000DCAEA114B104C104D10409F43FC069AD71
:100FE000062E04C0220C331C441C551C0A94D2F754
:100FF000A4019301062E04C0220F331F441F551F66
:101000000A94D2F780E290E08A199B096C96CCACE6
:10101000DDACEEACFFAC6C9704C0F694E794D794CB
:10102000C7948A95D2F787017601E22AF32A042B26
:10103000152BEDAAFEAA0FAB18AF6C968CAD9DAD2B
:10104000AEADBFAD6C9704C0880F991FAA1FBB1F20
:101050006A95D2F789AB9AABABABBCAB32018824B3
:101060009924B201A1016070707021964CAF5DAF00
:101070006EAF7FAF21976DA97EA98FA998ADA4010E
:1010800093010E940A187B018C016DA97EA98FA98A
:1010900098ADA40193010E940A18CA01B9012196D2
:1010A0002CAD3DAD4EAD5FAD21970E94EB179B017E
:1010B000AC018701FF24EE24A9A8BAA8CBA8DCA81C
:1010C000C601AA27BB2757016801A82AB92ACA2A3C
:1010D000DB2AA216B306C406D50690F4A20CB31CF4
:1010E000C41CD51CA214B304C404D50448F0A21631
:1010F000B306C406D50620F4A20CB31CC41CD51C30
:10110000A21AB30AC40AD50AC601B501A401930103
:101110000E940A187B018C01C601B501A40193014C
:101120000E940A18CA01B90121962CAD3DAD4EAD01
:101130005FAD2197BAC1211431044104510471F407
:1011400061E070E080E090E020E030E040E050E0DE
:101150000E940A18C901DA011C012D0100E02016C5
:1011600000E0300601E0400600E0500688F41FEF82
:10117000211631044104510439F030F068E0E62EC4
:10118000F12C012D112D18C0EE24FF24870114C06D
:1011900040E0241640E0340640E0440641E05406B6
:1011A00030F058E1E52EF12C012D112D05C040E164
:1011B000E42EF12C012D112DD201C1010E2C04C001
:1011C000B695A795979587950A94D2F784509F4F27
:1011D000DC012C9130E2A32EB12CC12CD12CD601F4
:1011E000C5018E199F09A00BB10B7C018D01E21A7C
:1011F000F10801091109E9AEFAAE0BAF1CAFE11419
:10120000F1040105110539F464015301A218B30872
:10121000C408D508E2C0F9AC6896FFAE68970F2CF9
:1012200004C0220C331C441C551C0A94D2F78A2D8E
:101230008F1964015301082E04C0D694C794B79443
:10124000A7940A94D2F7A401930104C0220F331F7C
:10125000441F551FFA94D2F76C966CAC7DAC8EACE3
:101260009FAC6C9704C096948794779467948A9502
:10127000D2F784017301E22AF32A042B152BEDA681
:10128000FEA60FA718AB320188249924B201A10150
:101290006070707025964CAF5DAF6EAF7FAF2597D5
:1012A000C601B501A40193010E940A187B018C01BB
:1012B000C601B501A40193010E940A18CA01B9012F
:1012C00025962CAD3DAD4EAD5FAD25970E94EB1739
:1012D0009B01AC018701FF24EE24ADA4BEA4CFA4E2
:1012E000D8A8C601AA27BB275C016D01AE28BF287C
:1012F000C02AD12AA216B306C406D50690F4A20CC1
:10130000B31CC41CD51CA214B304C404D50448F0F7
:10131000A216B306C406D50620F4A20CB31CC41C46
:10132000D51CA21AB30AC40AD50AC601B501A40184
:1013300093010E940A187B018C01C601B501A4012A
:1013400093010E940A18CA01B90125962CAD3DAD42
:101350004EAD5FAD25970E94EB179B01AC01870155
:10136000FF24EE248DA59EA5AFA5B8A9A070B070EE
:1013700057016801A82AB92ACA2ADB2AA216B3068D
:10138000C406D50690F4A20CB31CC41CD51CA21430
:10139000B304C404D50448F0A216B306C406D506A7
:1013A00020F4A20CB31CC41CD51C6C96ECACFDAC98
:1013B0000EAD1FAD6C9768960FAC689704C0EE0C2D
:1013C000FF1C001F111F0A94D2F7E9AAFAAA0BAB5F
:1013D0001CABA21AB30AC40AD50A32018824992484
:1013E000B201A1016070707029964CAF5DAF6EAF15
:1013F0007FAF2997C601B501A40193010E940A1885
:101400007B018C01C601B501A40193010E940A1859
:10141000CA01B90129962CAD3DAD4EAD5FAD2997FE
:101420000E94EB179B01AC018701FF24EE24A9A8C1
:10143000BAA8CBA8DCA8C601AA27BB275701680118
:10144000A82AB92ACA2ADB2AA216B306C406D506D8
:1014500090F4A20CB31CC41CD51CA214B304C40485
:10146000D50448F0A216B306C406D50620F4A20C93
:10147000B31CC41CD51CA21AB30AC40AD50AC601DF
:10148000B501A40193010E940A187B018C01C601D9
:10149000B501A40193010E940A18CA01B901299655
:1014A0002CAD3DAD4EAD5FAD29970E94EB179B0172
:1014B000AC018701FF24EE2489A99AA9ABA9BCA994
:1014C000A070B070E82AF92A0A2B1B2BE216F3064B
:1014D0000407150790F4E20CF31C041D151DE2141B
:1014E000F3040405150548F0E216F3060407150792
:1014F00020F4E20CF31C041D151DE21AF30A040B80
:10150000150BD801C70109AC04C0B695A7959795EE
:1015100087950A94D2F7898B9A8BAB8BBC8B1D8AEB
:101520001E8A1F8A188E282F3A894B895C896D89FB
:101530000CC36A147B048C049D0408F409C300E006
:10154000A01600E0B00601E0C00600E0D00688F476
:101550001FEFA116B104C104D10439F030F028E026
:10156000E22EF12C012D112D18C0EE24FF2487014D
:1015700014C040E0A41640E0B40640E0C40641E0D8
:10158000D40630F098E1E92EF12C012D112D05C083
:1015900080E1E82EF12C012D112DD601C5010E2C74
:1015A00004C0B695A795979587950A94D2F784506D
:1015B0009F4FDC012C9180E290E0A0E0B0E08E191A
:1015C0009F09A00BB10B821B9109A109B1090097DA
:1015D000A105B10509F04FC0A614B704C804D90489
:1015E00058F06C96ECACFDAC0EAD1FAD6C97E214F0
:1015F000F3040405150568F16C96ECACFDAC0EAD7A
:101600001FAD6C97E218F30804091509A4019301B2
:101610002A193B094C095D09AA24BB2465016C9673
:101620006CAD7DAD8EAD9FAD6C976E157F0580075F
:10163000910728F4B1E0AB2EB12CC12CD12CDA01EA
:10164000C9018A199B09AC09BD098DAB9EABAFAB33
:10165000B8AFE98AFA8A0B8B1C8B6DA87EA88FA87D
:1016600098AC6D8A7E8A8F8A988E2E2D3A894B8906
:101670005C896DA96AC267968FAF6797A6019501CD
:10168000082E04C0220F331F441F551F0A94D2F79F
:10169000A0E2AA2EA81A6696AFAE6697D201C10143
:1016A00004C0B695A79597958795AA94D2F76C0133
:1016B0007D01C22AD32AE42AF52AC9A6DAA6EBA616
:1016C000FCA68201710167960FAC679704C0EE0C0F
:1016D000FF1C001F111F0A94D2F7EDA2FEA20FA358
:1016E00018A76401530166960FAC669704C0D694A0
:1016F000C794B794A7940A94D2F7A401930167966C
:101700000FAC679704C0220F331F441F551F0A9464
:10171000D2F76C968CAD9DADAEADBFAD6C976696B5
:101720000FAC669704C0B695A795979587950A94D0
:10173000D2F73C014D01622A732A842A952A69A2B4
:101740007AA28BA29CA26C96ECACFDAC0EAD1FAD48
:101750006C9767960FAC679704C0EE0CFF1C001FD8
:10176000111F0A94D2F7ED8EFE8E0F8F18A349A594
:101770005AA56BA57CA53B018824992460707070E4
:101780002D964CAF5DAF6EAF7FAF2D97C601B50103
:10179000A40193010E940A187B018C01C601B501C6
:1017A000A40193010E940A18C901DA011C012D014C
:1017B000C201B1012D962CAD3DAD4EAD5FAD2D9763
:1017C0000E94EB179B01AC018701FF24EE24A9A026
:1017D000BAA0CBA0DCA0C601AA27BB27570168018D
:1017E000A82AB92ACA2ADB2AA216B306C406D50635
:1017F00000F508942108310841085108E9A4FAA429
:101800000BA51CA5AE0CBF1CC01ED11EAE14BF0480
:10181000C006D10670F0A216B306C406D50648F479
:1018200008942108310841085108AE0CBF1CC01EA5
:10183000D11EA21AB30AC40AD50AC601B501A40171
:1018400093010E940A187B018C01C601B501A40115
:1018500093010E940A18C901DA013C014D01C4013B
:10186000B3012D962CAD3DAD4EAD5FAD2D970E94D1
:10187000EB179B01AC018701FF24EE2489A19AA1FB
:10188000ABA1BCA1A070B07057016801A82AB92A09
:10189000CA2ADB2AA216B306C406D50600F50894A8
:1018A000610871088108910869A57AA58BA59CA596
:1018B000A60EB71EC81ED91EA616B706C806D9069C
:1018C00070F0A216B306C406D50648F40894610861
:1018D000710881089108A60EB71EC81ED91ED60130
:1018E000C501821B930BA40BB50B898F9A8FAB8F0D
:1018F000BC8FD1019927882784017301E82AF92A2E
:101900000A2B1B2B4FEFA42E4FEFB42EC12CD12C42
:10191000AE20BF20C022D1227801002711276DA060
:101920007EA08FA098A44FEF5FEF60E070E064228C
:101930007522862297228DA19EA1AFA1B8A5BD01D7
:101940008827992765966CAF7DAF8EAF9FAF65975F
:10195000C601B501A40193010E94EB1761966CAF1B
:101960007DAF8EAF9FAF6197C601B50165962CAD77
:101970003DAD4EAD5FAD65970E94EB171B012C018D
:10198000C801B701A40193010E94EB175B016C0130
:10199000C801B70165962CAD3DAD4EAD5FAD659705
:1019A0000E94EB177B018C01A6019501220D331DCE
:1019B000441D551D61966CAC7DAC8EAC9FAC61979F
:1019C000C401AA27BB27280F391F4A1F5B1F2A15EE
:1019D0003B054C055D0548F4812C912CE1E0AE2ED1
:1019E000B12CE80CF91C0A1D1B1DCA01AA27BB2734
:1019F00057016801A80EB91ECA1EDB1EA9013327B4
:101A0000222761968CAD9DADAEADBFAD6197A07044
:101A1000B070280F391F4A1F5B1FE98CFA8C0B8DA1
:101A20001C8DEA14FB040C051D0570F0AE14BF04F8
:101A3000C006D10669F56D8D7E8D8F8D98A16217D8
:101A400073078407950720F5DA01C9016DA07EA010
:101A50008FA098A486199709A809B909E9A4FAA43E
:101A60000BA51CA5AE18BF08C00AD10AEE24FF249E
:101A70008701281739074A075B0728F421E0E22E7F
:101A8000F12C012D112DAE18BF08C00AD10A02C0D9
:101A9000DA01C9016D8C7E8C8F8C98A0681A790A46
:101AA0008A0A9B0A498D5A8D6B8D7C8D4A195B0978
:101AB0006C097D095A016B012224332421016D8DAB
:101AC0007E8D8F8D98A1661577058805990528F478
:101AD00081E0282E312C412C512C86017501E21811
:101AE000F30804091509A801970166960FAC6697DB
:101AF00004C0220F331F441F551F0A94D2F7D4018C
:101B0000C30167960FAC679704C0B695A7959795E4
:101B100087950A94D2F7282B392B4A2B5B2B298BDC
:101B20003A8B4B8B5C8B67960FAC679704C016950E
:101B30000795F794E7940A94D2F7ED8AFE8A0F8B03
:101B4000188F3A894B895C896E2D7E898F89988D93
:101B5000C55ADF4FE2E10C9448188F929F92BF92D2
:101B6000CF92DF92EF92FF920F931F93DF93CF9369
:101B70000F92CDB7DEB7BB24BA94CC24DD247E010E
:101B80000894E11CF11C98EC892E912C0C2D0C5F13
:101B900082E0602F40E00E94941182E060E0A701A3
:101BA0000E9412128981882311F410E01DC082E086
:101BB00061E0A7010E9412128981882311F411E0CB
:101BC00013C082E062E0A7010E941212898188237B
:101BD00011F412E009C082E063E0A7010E94121232
:101BE0008981882319F513E084EF91E0F40131979E
:101BF000F1F70197D9F782E0612FA7010E94121235
:101C00008981882359F4E12FF0E0EE0FFF1FEE0FDA
:101C1000FF1FEC0DFD1DE450FE4FB08082E0612FF0
:101C2000A7010E94121289818823C1F382E0602FEC
:101C300041E00E9494110894C11CD11C84E0C81694
:101C4000D10409F0A3CF8B2D0F90CF91DF911F917D
:101C50000F91FF90EF90DF90CF90BF909F908F906B
:101C6000089582E060E041E00E94DF1282E061E0DE
:101C700041E00E94DF1282E062E041E00E94DF1258
:101C800082E063E041E00E94DF1282E064E041E034
:101C90000E94161182E065E041E00E94161182E088
:101CA00066E041E00E94161182E067E041E00E9498
:101CB000161182E064E041E00E94941182E065E048
:101CC00041E00E94941182E066E041E00E9494119C
:101CD00082E067E041E00E94941108950F931F9302
:101CE00081E062E041E00E94941100ED17E0C8013C
:101CF0000197F1F781E062E040E00E949411C80191
:101D00000197F1F71F910F9108951F93182F81E00C
:101D100060E040E00E94941181E061E040E00E94B8
:101D20009411612F62956F7080E00E9473130E947E
:101D30006E0E80E0612F0E9473130E946E0E1F9141
:101D4000089581E00E94850E80E29EE40197F1F7FC
:101D50000895982F8150823070F4613160F46623C9
:101D600051F0913019F4862F815806C0923021F439
:101D7000862F815401C080E80E94850E80ED97E097
:101D80000197F1F708951F93182F81E060E041E07B
:101D90000E94941181E061E040E00E949411612F63
:101DA00062956F7080E00E9473130E946E0E80E057
:101DB000612F0E9473130E946E0E1F9108950F935E
:101DC0001F93CF93DF93182F062F80E40E94850E78
:101DD000CCE0D2E089910E94C30E82E0CC34D807D7
:101DE000C9F7812F602F0E94A90E10E0812F0E9459
:101DF000C30E1F5F1830D1F7DF91CF911F910F9164
:101E000008952F923F924F925F926F927F928F929E
:101E10009F92AF92BF92CF92DF92EF92FF920F9379
:101E20001F93DF93CF93CDB7DEB729970FB6F89402
:101E3000DEBF0FBECDBF2A833B834C835D836E83A1
:101E40007F8388879987822F832B842B852B862BF2
:101E5000872B9885892BE9858E2B21F480E30E94BE
:101E6000C30E6AC1222423943324442455246624B7
:101E70007724882499249101A201B301C40101E0CF
:101E80000E944900122FF32EE42ED52EC62EB72E17
:101E9000A82E892E02E00E944900922E910E21E088
:101EA000911608F020E03F0DE1E03F1508F0E0E07A
:101EB000722E730E21E0731608F020E0E22B4E0D17
:101EC00031E04E1508F030E06E2E640E21E064160D
:101ED00008F020E0322B5D0D41E05D1508F040E098
:101EE000532E550E21E0551608F020E0422B6C0DC4
:101EF00031E06C1508F030E0442E460E21E0461625
:101F000008F020E0322B7B0D41E07B1508F040E02B
:101F1000332E370E21E0371608F020E0422B8A0DD1
:101F200031E08A1508F030E0242E280E21E0281632
:101F300008F020E0322B980DF32FF90FF9832A8156
:101F40003B814C815D816E817F8188859985AAE086
:101F5000AA2EBB24CC24DD24EE24FF2400E010E0D4
:101F60000E943D07122F190DF1E0121708F0F0E062
:101F7000232F270DE1E0231708F0E0E0BF2FB20F79
:101F800031E0B21708F030E0E32B242F260DF1E00A
:101F9000241708F0F0E0AE2FA20F31E0A21708F0EE
:101FA00030E0F32B252F250D41E0251708F040E008
:101FB0000F2F020F31E0021708F030E0432B262FDD
:101FC000240D51E0261708F050E0642F620F31E035
:101FD000621708F030E0532B272F230D41E027171D
:101FE00008F040E0520F31E0521708F030E0432B88
:101FF000282F220D31E0281708F030E0420F81E051
:10200000421708F080E0382B8981890F212E3B2E62
:102010004A2E502E662E752E842E982E930E2A81CF
:102020003B814C815D816E817F8188859985FAE055
:10203000AF2EBB24CC24DD24EE24FF2400E010E0EE
:102040000E94C8002A833B834C835D836E837F8319
:1020500088879987822F832B842B852B862B872B30
:102060009885892BE9858E2B09F005CF4CC091010D
:10207000A201B301C401EAE0AE2EBB24CC24DD24CE
:10208000EE24FF2400E010E00E943D07E32FF42F30
:10209000A52FB62F172F082FE92E80E3F82EF20E6A
:1020A00031E0F21608F030E03E0F41E03E1708F054
:1020B00040E04F0F51E04F1708F050E05A0F61E039
:1020C0005A1708F060E06B0F71E06B1708F070E0D2
:1020D000710F81E0711708F080E0800F91E08017A8
:1020E00008F090E02F2D9E0DEAE0AE2EBB24CC240C
:1020F000DD24EE24FF2400E010E00E94C800190156
:102100002A013B014C01F1E02F1609F0B0CF33203A
:1021100009F0ADCF442009F0AACF552009F0A7CF90
:10212000662009F0A4CF772009F0A1CF882009F01C
:102130009ECF992009F09BCF29960FB6F894DEBF69
:102140000FBECDBFCF91DF911F910F91FF90EF9008
:10215000DF90CF90BF90AF909F908F907F906F90C7
:102160005F904F903F902F9008951F93CF93DF93F0
:10217000EC0110E003C00E94C30E1F5FFE01E10FDF
:10218000F11D80818823B9F7DF91CF911F910895C8
:102190000F931F9384EF91E028EC30E0F901319721
:1021A000F1F70197D9F780E064E041E00E94161151
:1021B00080E065E041E00E94161180E066E041E0C9
:1021C0000E94161180E067E041E00E94161181E054
:1021D00060E041E00E94161181E061E041E00E9470
:1021E000161181E062E041E00E94161182E00E9437
:1021F000850E80E69AEE0197F1F788E20E94850E3F
:1022000000ED17E0C8010197F1F78EE00E94850EFE
:10221000C8010197F1F70E94A10E86E00E94850E89
:10222000C8010197F1F71F910F910895843008F0CC
:1022300077C0683008F074C04130B1F5813099F052
:10224000813030F08230D1F0833009F06BC021C092
:102250002AB381E090E002C0880F991F6A95E2F7E7
:10226000282B2ABB5BC027B381E090E002C0880F17
:10227000991F6A95E2F7282B27BB50C024B381E051
:1022800090E002C0880F991F6A95E2F7282B24BBC3
:1022900045C021B381E090E002C0880F991F6A9584
:1022A000E2F7282B21BB3AC04423D1F5813099F0C5
:1022B000813028F08230D9F08330A1F524C02AB3D0
:1022C00081E090E002C0880F991F6A95E2F780953F
:1022D00082238ABB23C027B381E090E002C0880F2D
:1022E000991F6A95E2F78095822387BB17C024B3B4
:1022F00081E090E002C0880F991F6A95E2F780950F
:10230000822384BB0BC021B381E090E002C0880F20
:10231000991F6A95E2F78095822381BB81E0089539
:1023200080E0089581E00895843008F077C0683037
:1023300008F074C04130B1F5813099F0813030F04F
:102340008230D1F0833009F06BC021C02BB381E023
:1023500090E002C0880F991F6A95E2F7282B2BBBEB
:102360005BC028B381E090E002C0880F991F6A9596
:10237000E2F7282B28BB50C025B381E090E002C0D3
:10238000880F991F6A95E2F7282B25BB45C022B319
:1023900081E090E002C0880F991F6A95E2F7282B30
:1023A00022BB3AC04423D1F5813099F0813028F026
:1023B0008230D9F08330A1F524C02BB381E090E0C6
:1023C00002C0880F991F6A95E2F7809582238BBB24
:1023D00023C028B381E090E002C0880F991F6A955E
:1023E000E2F78095822388BB17C025B381E090E097
:1023F00002C0880F991F6A95E2F78095822385BBFA
:102400000BC022B381E090E002C0880F991F6A954B
:10241000E2F78095822382BB81E0089580E00895F1
:1024200081E00895FA01843028F5683018F581308C
:1024300049F0813028F0823039F08330C9F406C089
:1024400029B305C026B303C023B301C020B381E084
:1024500090E0062E02C0880F991F0A94E2F730E040
:102460008223932302C0959587956A95E2F780832E
:1024700081E0089580E008958430C0F56830B0F5BB
:10248000813091F0813028F08230C9F0833061F5DD
:1024900021C02BB381E090E002C0880F991F6A959C
:1024A000E2F728272BBB20C028B381E090E002C0D0
:1024B000880F991F6A95E2F7282728BB15C025B316
:1024C00081E090E002C0880F991F6A95E2F7282703
:1024D00025BB0AC022B381E090E002C0880F991F9B
:1024E0006A95E2F7282722BB81E0089580E00895ED
:1024F000843010F080E00895813049F0813028F078
:10250000823039F0833031F407C06ABB03C067BB47
:1025100001C064BB81E0089561BB81E0089584300F
:1025200010F080E00895813049F0813028F0823049
:1025300039F0833031F407C06BBB03C068BB01C006
:1025400065BB81E0089562BB81E00895FB018430A2
:1025500010F080E00895813049F0813028F0823019
:1025600039F0833039F408C089B303C086B301C0A1
:1025700083B3808381E0089580B3808381E00895F0
:10258000843010F080E00895813059F0813028F0D7
:10259000823059F0833061F40DC08BB380958BBBD2
:1025A00007C088B3809588BB03C085B3809585BB81
:1025B00081E0089582B3809582BB81E008958430E4
:1025C00008F08FC0683008F08CC0813049F181304C
:1025D00038F0823009F444C0833009F080C060C014
:1025E000413091F480B78B7F80BF3AB381E090E0B7
:1025F00002C0880F991F6A95E2F7282F20952323A0
:102600002ABB2BB3822B0AC02BB381E090E002C01F
:10261000880F991F6A95E2F7809582238BBB5FC074
:10262000413091F480B78B7F80BF37B381E090E079
:1026300002C0880F991F6A95E2F7282F209523235F
:1026400027BB28B3822B0AC028B381E090E002C0E8
:10265000880F991F6A95E2F78095822388BB3FC057
:10266000413091F480B78B7F80BF34B381E090E03C
:1026700002C0880F991F6A95E2F7282F209523231F
:1026800024BB25B3822B0AC025B381E090E002C0B1
:10269000880F991F6A95E2F78095822385BB1FC03A
:1026A000413091F480B78B7F80BF31B381E090E0FF
:1026B00002C0880F991F6A95E2F7282F20952323DF
:1026C00021BB22B3822B0AC022B381E090E002C07A
:1026D000880F991F6A95E2F78095822382BB81E07B
:1026E000089580E00895843010F080E008956295A8
:1026F000607F813071F0813028F0823089F0833042
:10270000A9F416C08BB38F708BBB8BB3682B6BBBDC
:102710000DC088B38F7088BB88B3682B68BB06C0B8
:1027200085B38F7085BB85B3682B65BB81E0089549
:1027300082B38F7082BB82B3682B62BB81E0089545
:10274000843010F080E008956F70813071F0813036
:1027500028F0823089F08330A9F416C08BB3807FD3
:102760008BBB8BB3682B6BBB0DC088B3807F88BBE2
:1027700088B3682B68BB06C085B3807F85BB85B3F3
:10278000682B65BB81E0089582B3807F82BB82B3F2
:10279000682B62BB81E008958EBB9FBB6DBBE29A44
:1027A000E19AE199FECF08958EBB9FBBE09A8DB36D
:1027B00008958F929F92BF92CF92DF92EF92FF92F5
:1027C0000F931F93DF93CF930F92CDB7DEB7BB2448
:1027D000BA94CC24DD247E010894E11CF11C98EC11
:1027E000892E912C0C2D0C5F83E0602F40E00E941D
:1027F000941183E060E0A7010E941212898188236E
:1028000011F410E01DC083E061E0A7010E941212E4
:102810008981882311F411E013C083E062E0A701ED
:102820000E9412128981882311F412E009C083E00A
:1028300063E0A7010E9412128981882319F513E031
:1028400084EF91E0F4013197F1F70197D9F783E034
:10285000612FA7010E9412128981882359F4E12F68
:10286000F0E0EE0FFF1FEE0FFF1FEC0DFD1DE45B10
:10287000FD4FB08083E0612FA7010E941212898171
:102880008823C1F383E0602F41E00E9494110894F3
:10289000C11CD11C84E0C816D10409F0A3CF8B2D34
:1028A0000F90CF91DF911F910F91FF90EF90DF90EC
:1028B000CF90BF909F908F90089583E060E041E0BB
:1028C0000E94DF1283E061E041E00E94DF1283E0BA
:1028D00062E041E00E94DF1283E063E041E00E9499
:1028E000DF1283E064E041E00E94161183E065E0BE
:1028F00041E00E94161183E066E041E00E9416115B
:1029000083E067E041E00E94161183E064E041E06B
:102910000E94941183E065E041E00E94941183E0FD
:1029200066E041E00E94941183E067E041E00E948C
:10293000941108950F931F93CF93DF930E94A10EDC
:1029400080E690E00E94B51082E061E00E94A90E4E
:10295000C0E0D0E008EC10E00E94AD0D80935E0274
:102960008F3FD1F38D3381F48C2F9FEF06C0E82F7A
:10297000F0E0EB59FD4F90838F5F8031C0F320E191
:1029800037E248EC50E014C00E94C30EFE01EB5940
:10299000FD4F80915E02808384EC99E0F8013197CD
:1029A000F1F70197D9F72196C031D105A9F6E7CF04
:1029B000CA010197F1F721503040D1F70E94A10ED2
:1029C00084E090E00E94D41390916502891709F089
:1029D00082C085E090E00E94D4139091660289172E
:1029E00009F079C086E090E00E94D41390916702CC
:1029F000891709F070C087E090E00E94D41390918D
:102A00006802891709F067C088E090E00E94D4133B
:102A100090916902891709F05EC089E090E00E94F8
:102A2000D41390916A02891709F055C08AE090E0AA
:102A30000E94D41390916B02891709F04CC08BE06F
:102A400090E00E94D41390916C02891709F043C062
:102A50008CE090E00E94D41390916D028917D9F513
:102A60008DE090E00E94D41390916E02891799F541
:102A70008EE090E00E94D41390916F02891759F56F
:102A80008FE090E00E94D41390917002891719F59D
:102A900080E190E00E94D413909171028917D9F4DB
:102AA00081E190E00E94D41390917202891799F409
:102AB00082E190E00E94D41390917302891759F437
:102AC00083E190E00E94D41320E090917402891772
:102AD00019F421E001C020E0822FDF91CF911F91F6
:102AE0000F910895EF92FF921F93CF93DF930E946F
:102AF000A10E8CE690E00E94B51082E061E00E9499
:102B0000A90EC1E6D2E010E088ECE82EF12C0E947C
:102B1000AD0D80935E020E94D913982F80935D02C1
:102B20008F3F21F480915E028F3F89F380915E0296
:102B30008F3F29F00E94C30E80915E0205C0892F4D
:102B40000E94C30E80915D02888388E893E1F701BB
:102B50003197F1F70197D9F71F5F82E0612F0E944B
:102B6000A90E8AE20E94C30E2196143081F60E94BB
:102B7000A10E80E197E228EC30E0F9013197F1F7FE
:102B80000197D9F71091610280E090E00E94D41380
:102B90001817D9F41091620281E090E00E94D413DA
:102BA000181799F41091630282E090E00E94D41308
:102BB000181759F41091640283E090E00E94D41336
:102BC00090E0181719F491E001C090E0892FDF918F
:102BD000CF911F91FF90EF9008950F931F93CF9384
:102BE000DF930E94C8100E945D140E94310E84E0A1
:102BF00090E00E94D4138F3F09F0B7C085E090E0C9
:102C00000E94D4138F3F09F0B0C086E090E00E948C
:102C1000D4138F3F09F0A9C087E090E00E94D4133D
:102C20008F3F09F0A2C088E090E00E94D4138F3F4C
:102C300009F09BC089E090E00E94D4138F3F09F017
:102C400094C08AE090E00E94D4138F3F09F08DC0B9
:102C50008BE090E00E94D4138F3F09F086C08CE097
:102C600090E00E94D4138F3F09F07FC08DE090E088
:102C70000E94D4138F3F09F078C08EE090E00E944C
:102C8000D4138F3F09F071C08FE090E00E94D413FD
:102C90008F3F09F06AC080E190E00E94D4138F3F1B
:102CA00009F063C081E190E00E94D4138F3F09F0E6
:102CB0005CC082E190E00E94D4138F3F09F055C0C0
:102CC00083E190E00E94D4138F3F09F04EC08CE75F
:102CD00090E00E94B51082E061E00E94A90EC4E07D
:102CE000D0E008EC10E00E94AD0D80935E028F3FB3
:102CF000D1F38D3369F480915F029FEF06C0E82F16
:102D0000F0E0EB59FD4F90838F5F8031C0F314C02A
:102D10000E94C30E60915E026F3F19F0CE010E94C7
:102D2000CC1384EC99E0F8013197F1F70197D9F7CA
:102D30002196C431D105B9F60E94A10E88E890E031
:102D40000E94B51082E061E00E94A90E88E890E040
:102D50000E94B51080E395E728EC30E0F901319747
:102D6000F1F70197D9F70E94A10E80E090E00E9450
:102D7000D4138F3F09F06FC081E090E00E94D4131C
:102D80008F3F09F068C082E090E00E94D4138F3F2B
:102D900009F061C083E090E00E94D4138F3F09F0F6
:102DA0005AC088E990E00E94B51082E061E00E947C
:102DB000A90EC0E0D0E008EC10E00E94AD0D8093B9
:102DC0005E020E94D913682F80935D028F3F21F429
:102DD00080915E028F3F89F320915E022F3F39F090
:102DE000CE01622F0E94CC1380915E0205C0CE01FD
:102DF0000E94CC1380915D020E94C30E88E893E18B
:102E0000F8013197F1F70197D9F7CE018F5F682F5D
:102E100082E00E94A90E8AE20E94C30E2196C4306D
:102E2000D10559F60E94A10E88E890E00E94B510E5
:102E300082E061E00E94A90E88E890E00E94B5104F
:102E400080E395E728EC30E0F9013197F1F701973D
:102E5000D9F70E94A10E89EA90E00E94B51082E0A5
:102E600061E00E94A90E80915F0290E00E94D4135D
:102E70000E94C30E80915F028F5F80935F0290E09B
:102E80000E94D4138F3F79F780E29EE428EC30E073
:102E9000F9013197F1F70197D9F70E94A10E0E942D
:102EA0009A14809375020E94721580937602C8EC82
:102EB000D0E080917502882321F0809176028823EA
:102EC000D1F483EB90E00E94B51082E061E00E94B3
:102ED000A90E80915C02805D0E94C30E8CEB90E095
:102EE0000E94B51080E29EE4FE013197F1F7019750
:102EF000D9F70E94A10E80915C0218160CF060C0F8
:102F000080917502882309F039C080917602882368
:102F1000E9F483EC90E00E94B51082E061E00E9449
:102F2000A90E8FEC90E00E94B51080E29EE4FE01B5
:102F30003197F1F70197D9F780915C028150809326
:102F40005C020E949A14809375022FC0813009F0B0
:102F5000B0CF83EC90E00E94B51080E29EE4FE01C9
:102F60003197F1F70197D9F780915C0281508093F6
:102F70005C020E949A14809375029BCF813009F005
:102F800098CF809176028823A9F48FEC90E00E947C
:102F9000B51080E29EE4FE013197F1F70197D9F771
:102FA00080915C02815080935C020E947215809334
:102FB00076027FCF813009F07CCF8BED90E002C0AC
:102FC0008BEE90E00E94B51080E090E0DF91CF9111
:102FD0001F910F910895629FD001739FF001829F0E
:102FE000E00DF11D649FE00DF11D929FF00D839F98
:102FF000F00D749FF00D659FF00D9927729FB00D35
:10300000E11DF91F639FB00DE11DF91FBD01CF0147
:1030100011240895A1E21A2EAA1BBB1BFD010DC0AD
:10302000AA1FBB1FEE1FFF1FA217B307E407F50778
:1030300020F0A21BB30BE40BF50B661F771F881F54
:10304000991F1A9469F760957095809590959B01EA
:10305000AC01BD01CF0108952F923F924F925F9234
:103060006F927F928F929F92AF92BF92CF92DF9298
:10307000EF92FF920F931F93CF93DF93CDB7DEB7FD
:10308000CA1BDB0B0FB6F894DEBF0FBECDBF099491
:103090002A88398848885F846E847D848C849B84E8
:1030A000AA84B984C884DF80EE80FD800C811B81F6
:1030B000AA81B981CE0FD11D0FB6F894DEBF0FBE25
:0A30C000CDBFED010895F894FFCF95
:1030CA00456E74657220757365723A00456E746553
:1030DA00722050617373776F72643A00456E74653B
:1030EA0072206E616D653A002A202A202A202A2041
:1030FA002A202A202A202A0073656C6563742050CE
:10310A00617373776F72643A0057656C636F6D65AC
:10311A00203A00796F752068617665002074696DC0
:10312A0065730075736572206572726F7221007023
:10313A00617373206572726F7221002A2A2073618B
:10314A006665206F70656E202A2A002A2A2073611C
:10315A00666520636C6F7365202A2A0000010202EB
:10316A000303030304040404040404040505050515
:10317A0005050505050505050505050506060606F1
:10318A0006060606060606060606060606060606D5
:10319A0006060606060606060606060607070707C1
:1031AA0007070707070707070707070707070707A5
:1031BA000707070707070707070707070707070795
:1031CA000707070707070707070707070707070785
:1031DA000707070707070707070707070808080871
:1031EA000808080808080808080808080808080855
:1031FA000808080808080808080808080808080845
:10320A000808080808080808080808080808080834
:10321A000808080808080808080808080808080824
:10322A000808080808080808080808080808080814
:10323A000808080808080808080808080808080804
:10324A0008080808080808080808080808080808F4
:10325A00080808080808080808080808454C5357C9
:10326A004153452A617166616472713D07051F10F9
:10327A0010100000040202020418000004040407EB
:10328A00000000000F08041E0000000004040404EB
:10329A000404000000000202021E0000000E0A0FD1
:1032AA00020204080609011F000000003738392FFE
:1032BA003435362A3132332D3F303D2B02FFFF049D
:00000001FF
