:100000000C942A000C943F000C943F000C943F0089
:100010000C943F000C943F000C943F000C943F0064
:100020000C943F000C943F000C943F000C943F0054
:100030000C943F000C943F000C943F000C943F0044
:100040000C943F000C943F000C943F000C943F0034
:100050000C943F0011241FBECFE5D8E0DEBFCDBF1A
:1000600010E0A0E6B0E0EAECF7E102C005900D92E6
:10007000A237B107D9F70E94B70A0C94E30B0C948E
:100080000000EF92FF920F931F937B018C0120E001
:1000900030E040E05FE40E94410388238CF0C80117
:1000A000B70120E030E040E05FE40E94B9010E9427
:1000B000A1039B01AC01205030404040504806C095
:1000C000C801B7010E94A1039B01AC01B901CA019B
:1000D0001F910F91FF90EF900895A0E0B0E0E3E74B
:1000E000F0E00C94AC0BDC012B01FA019C919230F6
:1000F00008F439C1EB018881823008F433C19430AF
:1001000069F4843009F02FC111969C91119789816F
:10011000981709F428C1A0E6B0E025C1843009F49D
:1001200021C18230A9F4923009F01DC19A01AD01BC
:1001300088E0EA010990AE01E90109929E0181502F
:10014000C1F7E201898111969C918923818308C1BD
:10015000923009F407C112962D903C901397EB0151
:100160008A819B811496AD90BD90CD90DC901797BD
:10017000EC80FD800E811F819101281B390BB90194
:1001800037FF04C066277727621B730B6032710547
:100190000CF061C0121613066CF537014801062EEB
:1001A00004C096948794779467940A94D2F721E0D8
:1001B00030E040E050E004C0220F331F441F551FC1
:1001C0006A95D2F721503040404050402E213F21C7
:1001D00040235123211531054105510521F021E02E
:1001E00030E040E050E079018A01E628F72808294C
:1001F00019293CC0232BD1F1260E371E35014601AB
:10020000062E04C096948794779467940A94D2F744
:1002100021E030E040E050E004C0220F331F441FD3
:10022000551F6A95D2F721503040404050402A2156
:100230003B214C215D21211531054105510521F05E
:1002400021E030E040E050E059016A01A628B728DB
:10025000C828D9280BC0821593052CF01C01AA24AC
:10026000BB24650103C0EE24FF24870111969C91F5
:10027000D20111968C91981709F445C0992339F051
:10028000A80197012A193B094C095D0906C0A6017E
:1002900095012E193F09400B510B57FD08C01182E3
:1002A0003382228224833583468357831DC081E0B5
:1002B00081833382228288279927DC01821B930B5A
:1002C000A40BB50B84839583A683B7830DC0220F3F
:1002D000331F441F551F24833583468357838281F0
:1002E000938101979383828324813581468157814D
:1002F000DA01C9010197A109B1098F5F9F4FAF4F83
:10030000BF4328F30BC0918333822282EA0CFB1C8B
:100310000C1D1D1DE482F5820683178383E0808314
:10032000248135814681578157FF1AC0C901AA2708
:1003300097FDA095BA2F81709070A070B0705695FF
:10034000479537952795822B932BA42BB52B848328
:100350009583A683B7838281938101969383828359
:10036000DF0101C0D201CD01CDB7DEB7E2E10C94CF
:10037000C80BA0E2B0E0EFEBF1E00C94B80B69839E
:100380007A838B839C832D833E834F835887E9E058
:10039000EE2EF12CEC0EFD1ECE010196B7010E944F
:1003A000CA048E010F5E1F4FCE010596B8010E9450
:1003B000CA048A8991E089278A8BC701B801AE01F6
:1003C000475E5F4F0E946D000E94F503A096E6E035
:1003D0000C94D40BA0E2B0E0E0EFF1E00C94B80B89
:1003E00069837A838B839C832D833E834F835887D5
:1003F000F9E0EF2EF12CEC0EFD1ECE010196B701B7
:100400000E94CA048E010F5E1F4FCE010596B801EF
:100410000E94CA04C701B801AE01475E5F4F0E9447
:100420006D000E94F503A096E6E00C94D40BA0E2C8
:10043000B0E0EDE1F2E00C94AC0B69837A838B833E
:100440009C832D833E834F835887CE010196BE0146
:10045000675F7F4F0E94CA04CE010596BE016F5EA2
:100460007F4F0E94CA049985923088F08989823032
:10047000C8F0943019F4823051F404C0843029F467
:10048000923081F480E690E0C6C0923049F420E0DA
:100490009A858A89981321E02A87CE010996BBC0E4
:1004A000823049F420E09A858A89981321E02A8BCA
:1004B000CE014196B0C02D843E844F8458886D880B
:1004C0007E888F88988CEE24FF248701AA24BB2481
:1004D000650140E050E060E070E0E0E0F0E0C10184
:1004E00081709070892BE9F0E60CF71C081D191D2E
:1004F0009A01AB012A0D3B1D4C1D5D1D80E090E073
:10050000A0E0B0E0E614F7040805190520F481E046
:1005100090E0A0E0B0E0BA01A901480F591F6A1F9E
:100520007B1FAA0CBB1CCC1CDD1C97FE08C081E005
:1005300090E0A0E0B0E0A82AB92ACA2ADB2A3196C6
:10054000E032F10549F0660C771C881C991C569422
:10055000479437942794C3CFFA85EA892B893C893D
:100560008B859C85280F391F2E5F3F4F17C0CA010E
:1005700081709070892B61F016950795F794E79438
:1005800080E090E0A0E0B0E8E82AF92A0A2B1B2BD3
:1005900076956795579547952F5F3F4F77FDE7CF46
:1005A0000CC0440F551F661F771F17FD4160EE0CEE
:1005B000FF1C001F111F21503040403090E05907B0
:1005C00090E0690790E4790760F32B8F3C8FDB01A3
:1005D000CA018F779070A070B07080349105A1052A
:1005E000B10561F447FD0AC0E114F10401051105EC
:1005F00029F0405C5F4F6F4F7F4F40781A8EFE1797
:1006000011F081E08A8F4D8F5E8F6F8F78A383E02A
:10061000898FCE0149960E94F503A096E2E10C94E1
:10062000C80BA8E1B0E0E7E1F3E00C94B80B6983F4
:100630007A838B839C832D833E834F83588789E005
:10064000E82EF12CEC0EFD1ECE010196B7010E94A2
:10065000CA048E010F5E1F4FCE010596B8010E949D
:10066000CA048985823040F08989823028F0C70128
:10067000B8010E94420501C08FEF6896E6E00C9435
:10068000D40BA8E1B0E0E7E4F3E00C94B80B698385
:100690007A838B839C832D833E834F83588789E0A5
:1006A000E82EF12CEC0EFD1ECE010196B7010E9442
:1006B000CA048E010F5E1F4FCE010596B8010E943D
:1006C000CA048985823040F08989823028F0C701C8
:1006D000B8010E94420501C08FEF6896E6E00C94D5
:1006E000D40BA8E1B0E0E7E7F3E00C94B80B698322
:1006F0007A838B839C832D833E834F83588789E045
:10070000E82EF12CEC0EFD1ECE010196B7010E94E1
:10071000CA048E010F5E1F4FCE010596B8010E94DC
:10072000CA048985823040F08989823028F0C70167
:10073000B8010E94420501C081E06896E6E00C9491
:10074000D40BACE0B0E0E7EAF3E00C94BC0B6983B7
:100750007A838B839C83CE010196BE016B5F7F4FB2
:100760000E94CA048D81823061F1823050F1843060
:1007700021F48E81882351F12EC02F81388537FDD9
:1007800020C06E812F3131051CF06623F9F023C0A3
:100790008EE190E0821B930B29853A854B855C8521
:1007A00004C056954795379527958A95D2F76623C5
:1007B000B1F050954095309521953F4F4F4F5F4F89
:1007C0000EC020E030E040E050E009C02FEF3FEFE6
:1007D0004FEF5FE704C020E030E040E050E8B901AF
:1007E000CA012C96E2E00C94D80BDF92EF92FF92B4
:1007F0000F931F93FC01E480F58006811781D1805F
:100800008081823048F480E090E0A0E1B0E0E82A06
:10081000F92A0A2B1B2BA5C0843009F49FC0823013
:1008200021F4EE24FF24870105C0E114F104010541
:10083000110519F4E0E0F0E096C0628173819FEF4A
:10084000623879070CF05BC022E83FEF261B370BBC
:100850002A3131052CF020E030E040E050E02AC0A1
:10086000B801A701022E04C0769567955795479564
:100870000A94D2F781E090E0A0E0B0E004C0880FD5
:10088000991FAA1FBB1F2A95D2F70197A109B10989
:100890008E219F21A023B1230097A105B10521F04E
:1008A00081E090E0A0E0B0E09A01AB01282B392B69
:1008B0004A2B5B2BDA01C9018F779070A070B07062
:1008C00080349105A105B10539F427FF09C0205CEA
:1008D0003F4F4F4F5F4F04C0215C3F4F4F4F5F4F23
:1008E000E0E0F0E02030A0E03A07A0E04A07A0E412
:1008F0005A0710F0E1E0F0E079018A0127C0603882
:10090000710564F5FB01E158FF4FD801C7018F77EE
:100910009070A070B07080349105A105B10539F4D4
:10092000E7FE0DC080E490E0A0E0B0E004C08FE3FB
:1009300090E0A0E0B0E0E80EF91E0A1F1B1F17FFB1
:1009400005C016950795F794E794319687E01695BC
:100950000795F794E7948A95D1F705C0EE24FF2414
:100960008701EFEFF0E06E2F679566276795902F70
:100970009F77D794DD24D7948E2F8695492F462BC9
:10098000582F5D29B701CA011F910F91FF90EF9079
:10099000DF900895FC01DB01408151812281622FAB
:1009A0006F7770E0221F2227221F9381892F880FE3
:1009B000822B282F30E0991F9927991F11969C931D
:1009C000119721153105A9F54115510561057105ED
:1009D00011F482E037C082E89FEF13969C938E93C8
:1009E00012979A01AB0167E0220F331F441F551F76
:1009F0006A95D1F783E08C930DC0220F331F441FFB
:100A0000551F12968D919C911397019713969C9365
:100A10008E931297203080E0380780E0480780E40A
:100A2000580758F314962D933D934D935C93179765
:100A300008952F3F310579F4411551056105710580
:100A400019F484E08C93089564FF03C081E08C93D3
:100A500012C01C9210C02F57304013963C932E9317
:100A6000129783E08C9387E0440F551F661F771F12
:100A70008A95D1F7706414964D935D936D937C9332
:100A8000179708951F93DC01FB019C91923008F4A5
:100A900047C08081823008F443C0943051F41196ED
:100AA0001C91843099F58181682F70E0611B710978
:100AB0003FC0843021F0923031F48230B9F181812D
:100AC000882389F12DC011961C9111978230F1F085
:100AD00081811817D9F412962D913C911397828138
:100AE00093818217930794F028173907BCF0149666
:100AF0008D919D910D90BC91A02D248135814681D1
:100B00005781281739074A075B0718F4112341F06A
:100B10000AC082179307A407B50740F4112319F000
:100B200061E070E005C06FEF7FEF02C060E070E051
:100B3000CB011F910895DF93CF93CDB7DEB72897F0
:100B40000FB6F894DEBF0FBECDBF8A836B834C8394
:100B500081E089838A81843008F0F1C08B818830FC
:100B600008F0EDC08C81813009F06FC08A81282F98
:100B700030E038872F838F8198858130910549F146
:100B80002F813885223031052CF48F81988500978C
:100B900061F0D6C02F8138852230310571F18F8107
:100BA000988583309105E9F1CBC0AAE3B0E0EAE390
:100BB000F0E08081482F8B81282F30E081E090E0A9
:100BC000022E02C0880F991F0A94E2F7842B8C939F
:100BD000B7C0A7E3B0E0E7E3F0E08081482F8B8166
:100BE000282F30E081E090E0022E02C0880F991F8C
:100BF0000A94E2F7842B8C93A3C0A4E3B0E0E4E36F
:100C0000F0E08081482F8B81282F30E081E090E058
:100C1000022E02C0880F991F0A94E2F7842B8C934E
:100C20008FC0A1E3B0E0E1E3F0E08081482F8B8149
:100C3000282F30E081E090E0022E02C0880F991F3B
:100C40000A94E2F7842B8C937BC08C81882309F073
:100C500074C08A81282F30E03E832D838D819E8150
:100C60008130910559F12D813E81223031052CF4DE
:100C70008D819E81009769F063C02D813E81223075
:100C8000310589F18D819E818330910509F440C041
:100C900057C0AAE3B0E0EAE3F0E08081482F8B81FF
:100CA000282F30E081E090E0022E02C0880F991FCB
:100CB0000A94E2F7809584238C9342C0A7E3B0E0C6
:100CC000E7E3F0E08081482F8B81282F30E081E03E
:100CD00090E0022E02C0880F991F0A94E2F78095D7
:100CE00084238C932DC0A4E3B0E0E4E3F0E08081A2
:100CF000482F8B81282F30E081E090E0022E02C047
:100D0000880F991F0A94E2F7809584238C9318C06A
:100D1000A1E3B0E0E1E3F0E08081482F8B81282F50
:100D200030E081E090E0022E02C0880F991F0A9403
:100D3000E2F7809584238C9303C0198201C0198245
:100D4000898128960FB6F894DEBF0FBECDBFCF9134
:100D5000DF910895DF93CF93CDB7DEB728970FB615
:100D6000F894DEBF0FBECDBF8A836B834C8381E0D6
:100D700089838A81843008F0F1C08B81883008F043
:100D8000EDC08C81813009F06FC08A81282F30E05E
:100D900038872F838F8198858130910549F12F8184
:100DA0003885223031052CF48F819885009761F0C9
:100DB000D6C02F8138852230310571F18F81988519
:100DC00083309105E9F1CBC0ABE3B0E0EBE3F0E0B9
:100DD0008081482F8B81282F30E081E090E0022E27
:100DE00002C0880F991F0A94E2F7842B8C93B7C036
:100DF000A8E3B0E0E8E3F0E08081482F8B81282F62
:100E000030E081E090E0022E02C0880F991F0A9422
:100E1000E2F7842B8C93A3C0A5E3B0E0E5E3F0E018
:100E20008081482F8B81282F30E081E090E0022ED6
:100E300002C0880F991F0A94E2F7842B8C938FC00D
:100E4000A2E3B0E0E2E3F0E08081482F8B81282F1D
:100E500030E081E090E0022E02C0880F991F0A94D2
:100E6000E2F7842B8C937BC08C81882309F074C0BB
:100E70008A81282F30E03E832D838D819E818130B1
:100E8000910559F12D813E81223031052CF48D815F
:100E90009E81009769F063C02D813E81223031052B
:100EA00089F18D819E818330910509F440C057C03E
:100EB000ABE3B0E0EBE3F0E08081482F8B81282F9B
:100EC00030E081E090E0022E02C0880F991F0A9462
:100ED000E2F7809584238C9342C0A8E3B0E0E8E376
:100EE000F0E08081482F8B81282F30E081E090E076
:100EF000022E02C0880F991F0A94E2F7809584237E
:100F00008C932DC0A5E3B0E0E5E3F0E08081482FAD
:100F10008B81282F30E081E090E0022E02C0880F04
:100F2000991F0A94E2F7809584238C9318C0A2E35A
:100F3000B0E0E2E3F0E08081482F8B81282F30E0A1
:100F400081E090E0022E02C0880F991F0A94E2F718
:100F5000809584238C9303C0198201C019828981F2
:100F600028960FB6F894DEBF0FBECDBFCF91DF91AC
:100F70000895DF93CF93CDB7DEB727970FB6F894D8
:100F8000DEBF0FBECDBF8A836B835D834C8381E060
:100F900089838A81843008F0A6C08B81883008F06C
:100FA000A2C08A81282F30E03F832E834E815F814B
:100FB00041305105C1F18E819F818230910534F419
:100FC0002E813F812115310571F08EC04E815F81E8
:100FD0004230510509F447C08E819F8183309105CD
:100FE00009F461C081C0E9E3F0E08081482F50E05E
:100FF0008B81282F30E081E090E002C0880F991F9C
:101000002A95E2F79A01282339238B81882F90E0D3
:10101000A90102C0559547958A95E2F7CA01EC816E
:10102000FD81808361C0E6E3F0E08081482F50E0DD
:101030008B81282F30E081E090E002C0880F991F5B
:101040002A95E2F79A01282339238B81882F90E093
:10105000A90102C0559547958A95E2F7CA01EC812E
:10106000FD81808341C0E3E3F0E08081482F50E0C0
:101070008B81282F30E081E090E002C0880F991F1B
:101080002A95E2F79A01282339238B81882F90E053
:10109000A90102C0559547958A95E2F7CA01EC81EE
:1010A000FD81808321C0E0E3F0E08081482F50E0A3
:1010B0008B81282F30E081E090E002C0880F991FDB
:1010C0002A95E2F79A01282339238B81882F90E013
:1010D000A90102C0559547958A95E2F7CA01EC81AE
:1010E000FD81808301C01982898127960FB6F8940B
:1010F000DEBF0FBECDBFCF91DF910895DF93CF93B9
:1011000000D000D00F92CDB7DEB78A836B8381E029
:1011100089838A81843008F073C08B81883008F01D
:101120006FC08A81282F30E03D832C838C819D8184
:101130008130910549F12C813D81223031052CF41B
:101140008C819D81009761F05CC02C813D812230B3
:10115000310571F18C819D8183309105E9F151C098
:10116000ABE3B0E0EBE3F0E08081482F8B81282FE8
:1011700030E081E090E0022E02C0880F991F0A94AF
:10118000E2F784278C933DC0A8E3B0E0E8E3F0E009
:101190008081482F8B81282F30E081E090E0022E63
:1011A00002C0880F991F0A94E2F784278C9329C004
:1011B000A5E3B0E0E5E3F0E08081482F8B81282FA4
:1011C00030E081E090E0022E02C0880F991F0A945F
:1011D000E2F784278C9315C0A2E3B0E0E2E3F0E0ED
:1011E0008081482F8B81282F30E081E090E0022E13
:1011F00002C0880F991F0A94E2F784278C9301C0DC
:10120000198289810F900F900F900F900F90CF91BE
:10121000DF910895DF93CF9300D000D00F92CDB728
:10122000DEB78A836B8381E089838A81843098F575
:101230008A81282F30E03D832C838C819D818130F1
:101240009105D1F02C813D81223031052CF48C8127
:101250009D81009761F020C02C813D8122303105B5
:1012600081F08C819D818330910581F015C0EAE386
:10127000F0E08B81808310C0E7E3F0E08B81808316
:101280000BC0E4E3F0E08B81808306C0E1E3F0E093
:101290008B81808301C0198289810F900F900F90FC
:1012A0000F900F90CF91DF910895DF93CF9300D0EF
:1012B00000D00F92CDB7DEB78A836B8381E089833C
:1012C0008A81843098F58A81282F30E03D832C83F1
:1012D0008C819D8181309105D1F02C813D8122301E
:1012E00031052CF48C819D81009761F020C02C8108
:1012F0003D812230310581F08C819D8183309105C3
:1013000081F015C0EBE3F0E08B81808310C0E8E34F
:10131000F0E08B8180830BC0E5E3F0E08B8180837C
:1013200006C0E2E3F0E08B81808301C019828981ED
:101330000F900F900F900F900F90CF91DF91089525
:10134000DF93CF9300D000D000D0CDB7DEB78A8333
:101350007C836B8381E089838A818430D8F58A819C
:10136000282F30E03E832D838D819E818130910531
:10137000E1F02D813E81223031052CF48D819E815A
:10138000009761F028C02D813E8122303105A1F007
:101390008D819E8183309105B1F01DC0E9E3F0E0BD
:1013A0008081EB81FC81808316C0E6E3F0E08081E0
:1013B000EB81FC8180830FC0E3E3F0E08081EB816F
:1013C000FC81808308C0E0E3F0E08081EB81FC8158
:1013D000808301C01982898126960FB6F894DEBFFA
:1013E0000FBECDBFCF91DF910895DF93CF9300D093
:1013F00000D0CDB7DEB78A8381E089838A818430CB
:1014000008F03FC08A81282F30E03C832B838B81FA
:101410009C8181309105E9F02B813C81223031059E
:101420002CF48B819C81009761F02CC02B813C8136
:1014300022303105B1F08B819C8183309105C9F058
:1014400021C0ABE3B0E0EBE3F0E0808180958C93CA
:1014500019C0A8E3B0E0E8E3F0E0808180958C93C8
:1014600011C0A5E3B0E0E5E3F0E0808180958C93C6
:1014700009C0A2E3B0E0E2E3F0E0808180958C93C4
:1014800001C0198289810F900F900F900F90CF911A
:10149000DF910895DF93CF9300D00F92CDB7DEB7E1
:1014A00069837A838B8389819A81692F41E00E94C5
:1014B0009B050F900F900F90CF91DF910895DF93D0
:1014C000CF9300D00F92CDB7DEB769837A838B8339
:1014D0008B81813039F489819A81692F41E00E94A2
:1014E000AA0609C08B81882331F489819A81692FEA
:1014F00040E00E94AA060F900F900F90CF91DF91CD
:101500000895DF93CF9300D00F92CDB7DEB76983F4
:101510007A838B838B81813039F489819A81692F19
:1015200040E00E94AA0609C08B81882331F489819A
:101530009A81692F41E00E94AA060F900F900F90A8
:10154000CF91DF910895DF93CF9300D00F92CDB765
:10155000DEB769837A838B8389819A81692F0E94A0
:101560007E080F900F900F90CF91DF910895DF9339
:10157000CF93CDB7DEB7A7970FB6F894DEBF0FBEF7
:10158000CDBF1F86CE0140969A8F898FEEE6F0E0A0
:10159000FC8FEB8FF3E0FD8FEB8DFC8D00808B8D4E
:1015A0009C8D01969C8F8B8FE98DFA8D0082898DA1
:1015B0009A8D01969A8F898F9D8D91509D8FED8D7B
:1015C000EE2351F7CE0143969F8F8E8FEBE6F0E02E
:1015D000F9A3E8A3F3E0FAA3E8A1F9A1008088A1A8
:1015E00099A1019699A388A3EE8DFF8D00828E8D1F
:1015F0009F8D01969F8F8E8F9AA191509AA3EAA1F9
:10160000EE2351F7CE0146969CA38BA3E8E6F0E0CB
:10161000FEA3EDA3F3E0FFA3EDA1FEA100808DA149
:101620009EA101969EA38DA3EBA1FCA100828BA19C
:101630009CA101969CA38BA39FA191509FA3EFA176
:10164000EE2351F7688979898A890E944A0A6B8951
:101650007C898D890E944A0A6E897F89888D0E94C3
:101660004A0A688979898A890E94A30A8F858F5FCF
:101670008F8780E090E0AAE7B4E48B879C87AD87F2
:10168000BE876B857C858D859E8520E030E04AEFA6
:1016900054E40E941702DC01CB018F839887A9874D
:1016A000BA876F81788589859A8520E030E040E8A7
:1016B0005FE30E94710388232CF481E090E09E8315
:1016C0008D833FC06F81788589859A8520E03FEFC3
:1016D0004FE757E40E94110318164CF56B857C8583
:1016E0008D859E8520E030E040E251E40E941702A3
:1016F000DC01CB01BC01CD010E944100DC01CB012A
:101700009E838D830FC088EC90E09C838B838B81BC
:101710009C810197F1F79C838B838D819E8101973A
:101720009E838D838D819E81009769F79ACF6F810B
:10173000788589859A850E944100DC01CB019E83D2
:101740008D838D819E819A83898389819A81019776
:10175000F1F79A83898385CF2F923F924F925F92C0
:101760006F927F928F929F92AF92BF92CF92DF92B1
:10177000EF92FF920F931F93CF93DF93CDB7DEB716
:10178000CA1BDB0B0FB6F894DEBF0FBECDBF0994AA
:101790002A88398848885F846E847D848C849B8401
:1017A000AA84B984C884DF80EE80FD800C811B810F
:1017B000AA81B981CE0FD11D0FB6F894DEBF0FBE3E
:0A17C000CDBFED010895F894FFCFAE
:1017CA00000000000000000000020100010100000A
:0217DA0001000C
:00000001FF
