:100000000C942A000C9447000C9447000C94470071
:100010000C9447000C9447000C9447000C94470044
:100020000C9447000C9447000C9447000C94470034
:100030000C9447000C9447000C9447000C94470024
:100040000C9447000C9447000C9447000C94470014
:100050000C94470011241FBECFE5D8E0DEBFCDBF12
:1000600012E0A0E6B0E0EEE8FEE502C005900D92D9
:10007000A833B107D9F712E0A8E3B2E001C01D929E
:10008000AD33B107E1F70E94C0270C94452F0C94C3
:100090000000EF92FF920F93DF93CF93CDB7DEB7BF
:1000A00060970FB6F894DEBF0FBECDBFA82F002318
:1000B00009F461C07E010894E11CF11C88E0F7019D
:1000C00011928A95E9F729833A834B835C836D8388
:1000D0007E83AF83988780E2801BE82FFF27E7FDB0
:1000E000F09549815A816B817C81181684F01986BC
:1000F0001A861B861C86882799278E1B9F0B04C097
:10010000440F551F661F771F8A95D2F728C0202FEE
:10011000332727FD3095DB01CA01022E04C0880F6A
:10012000991FAA1FBB1F0A94D2F789879A87AB87AA
:10013000BC8704C07695679557954795EA95D2F7A1
:100140008D819E81AF81B88504C0880F991FAA1F39
:10015000BB1F2A95D2F7482B592B6A2B7B2B4D8737
:100160005E876F87788B29853A854B855C856D85A1
:100170007E85AF8598898A2F60960FB6F894DEBF8A
:100180000FBECDBFCF91DF910F91FF90EF900895FB
:10019000EF92FF920F931F937B018C0120E030E0E0
:1001A00040E05FE40E94AD1088238CF0C801B701E5
:1001B00020E030E040E05FE40E94250F0E940D1136
:1001C0009B01AC01205030404040504806C0C8015F
:1001D000B7010E940D119B01AC01B901CA011F9129
:1001E0000F91FF90EF900895AEE5B0E0EAEFF0E0F8
:1001F0000C940E2FA8E04E010894811C911CF40170
:100200006A2E11926A94E9F729833A834B835C83BF
:100210006D837E838F839887CE010996FC011192AE
:10022000AA95E9F7A986BA86CB86DC86ED86FE8696
:100230000F87188B29843A844B845C84ED84FE8478
:100240000F85188969807A808B809C806DA67EA638
:100250008FA698AA6D807E808F809884E114F10427
:100260000105110509F0B3C36214730484049504F5
:1002700008F03DC100E0201600E0300601E0400635
:1002800000E0500688F41FEF2116310441045104A8
:1002900039F030F048E0E42EF12C012D112D18C07A
:1002A000EE24FF24870114C020E0221620E032064D
:1002B00020E0420621E0520630F038E1E32EF12C36
:1002C000012D112D05C020E1E22EF12C012D112D63
:1002D000D201C1010E2C04C0B695A79597958795BC
:1002E0000A94D2F78A519F4FDC012C9180E290E072
:1002F000A0E0B0E08E199F09A00BB10B7C018D012D
:10030000E21AF10801091109E114F10401051105CE
:10031000A1F10E2C04C0220C331C441C551C0A9461
:10032000D2F7A40193010E2C04C0220F331F441FE7
:10033000551F0A94D2F780E290E08E199F096DA4B0
:100340007EA48FA498A804C0969487947794679409
:100350008A95D2F7622A732A842A952AADA4BEA46C
:10036000CFA4D8A804C0AA0CBB1CCC1CDD1CEA94EA
:10037000D2F7ADA6BEA6CFA6D8AA6201EE24FF246E
:10038000CDAADEAAEFAAF8AE9201810120703070EA
:1003900009AF1AAF2BAF3CAFC401B301A70196015F
:1003A0000E94EC2E7B018C01C401B3012DA93EA952
:1003B0004FA958AD0E94EC2EC901DA013C014D0154
:1003C000C401B30129AD3AAD4BAD5CAD0E94CD2E59
:1003D0009B01AC018701FF24EE24ADA4BEA4CFA4F1
:1003E000D8A8C601AA27BB2757016801A82AB92A9D
:1003F000CA2ADB2AA216B306C406D506E0F408947E
:100400006108710881089108A20CB31CC41CD51C9A
:10041000A214B304C404D50470F0A216B306C40633
:10042000D50648F408946108710881089108A20C67
:10043000B31CC41CD51CA21AB30AC40AD50AC6012F
:10044000B5012DA93EA94FA958AD0E94EC2E7B0104
:100450008C01C601B5012DA93EA94FA958AD0E9436
:10046000EC2EC901DA015C016D01C601B50129ADAF
:100470003AAD4BAD5CAD0E94CD2E9B01AC01870126
:10048000FF24EE248DA59EA5AFA5B8A9A070B070DD
:10049000E82AF92A0A2B1B2BE216F3060407150794
:1004A000C0F40894A108B108C108D108E20CF31CFB
:1004B000041D151DE214F3040405150550F0E216A1
:1004C000F3060407150728F40894A108B108C10829
:1004D000D108D3019927882786017501E82AF92ACE
:1004E0000A2B1B2BE9AAFAAA0BAB1CABCFC4211415
:1004F00031044104510471F461E070E080E090E067
:1005000020E030E040E050E00E94EC2EC901DA012A
:100510001C012D0100E0201600E0300601E040063D
:1005200000E0500688F41FEF211631044104510405
:1005300031F028F048E050E060E070E017C040E0A3
:1005400050E060E070E012C020E0221620E03206A9
:1005500020E0420621E0520628F048E150E060E049
:1005600070E004C040E150E060E070E0D201C10101
:10057000042E04C0B695A795979587950A94D2F74F
:100580008A519F4FDC012C91E0E2EE2EF12C012DDF
:10059000112DD801C701841B950BA60BB70B821B2D
:1005A0009109A109B1090097A105B10561F46401A0
:1005B0005301A218B308C408D50831E0632E712C8A
:1005C000812C912C1EC16F968FAF6F97082E04C09F
:1005D000220C331C441C551C0A94D2F7EE2DE81B48
:1005E000640153010E2E04C0D694C794B794A79407
:1005F0000A94D2F7A40193016F960FAC6F9704C0D1
:10060000220F331F441F551F0A94D2F76DA47EA4F6
:100610008FA498A80E2E04C096948794779467941C
:100620000A94D2F784017301E22AF32A042B152BD2
:10063000E9A6FAA60BA71CA73201882499249201E7
:1006400081012070307021960CAF1DAF2EAF3FAFEF
:100650002197C601B501A40193010E94EC2E7B01F4
:100660008C01C601B501A40193010E94EC2EC901C1
:10067000DA0125968CAF9DAFAEAFBFAF2597BC0119
:10068000CD0121962CAD3DAD4EAD5FAD21970E94C1
:10069000CD2E9B01AC018701FF24EE24A9A4BAA4AE
:1006A000CBA4DCA4C601AA27BB275C016D01AE2840
:1006B000BF28C02AD12AA216B306C406D50660F503
:1006C00025966CAD7DAD8EAD9FAD25976150704088
:1006D0008040904025966CAF7DAF8EAF9FAF259741
:1006E000A20CB31CC41CD51CA214B304C404D504AE
:1006F00098F0A216B306C406D50670F46150704097
:100700008040904025966CAF7DAF8EAF9FAF259710
:10071000A20CB31CC41CD51CA21AB30AC40AD50A65
:10072000C601B501A40193010E94EC2E7B018C014E
:10073000C601B501A40193010E94EC2EC901DA01A2
:100740003C014D01C401B30121962CAD3DAD4EAD30
:100750005FAD21970E94CD2E9B01AC018701FF2444
:10076000EE2489A59AA5ABA5BCA5A070B0705701D1
:100770006801A82AB92ACA2ADB2AA216B306C40627
:10078000D506E0F408946108710881089108A20C6C
:10079000B31CC41CD51CA214B304C404D50470F04B
:1007A000A216B306C406D50648F408946108710879
:1007B00081089108A20CB31CC41CD51C8DA59EA554
:1007C000AFA5B8A96F960FAC6F9704C0880F991F9B
:1007D000AA1FBB1F0A94D2F78DA79EA7AFA7B8ABDD
:1007E000A21AB30AC40AD50A2596ECACFDAC0EAD2C
:1007F0001FAD2597D70199278827682A792A8A2A41
:100800009B2A82012227332729960CAF1DAF2EAFDA
:100810003FAF2997A2019101407050702D962CAFE7
:100820003DAF4EAF5FAF2D97C601B50129962CADF8
:100830003DAD4EAD5FAD29970E94EC2E7B018C0142
:10084000C601B50129962CAD3DAD4EAD5FAD2997E2
:100850000E94EC2EC901DA0161968CAF9DAFAEAF5C
:10086000BFAF6197BC01CD012D962CAD3DAD4EAD16
:100870005FAD2D970E94CD2E9B01AC018701FF2417
:10088000EE24ADA4BEA4CFA4D8A8C601AA27BB2736
:1008900057016801A82AB92ACA2ADB2AA216B30678
:1008A000C406D50660F561966CAD7DAD8EAD9FAD8D
:1008B0006197615070408040904061966CAF7DAF11
:1008C0008EAF9FAF6197A20CB31CC41CD51CA214A1
:1008D000B304C404D50498F0A216B306C406D50622
:1008E00070F4615070408040904061966CAF7DAF75
:1008F0008EAF9FAF6197A20CB31CC41CD51CA21A6B
:10090000B30AC40AD50AC601B50129962CAD3DAD7E
:100910004EAD5FAD29970E94EC2E7B018C01C60184
:10092000B50129962CAD3DAD4EAD5FAD29970E9426
:10093000EC2EC901DA015C016D01C601B5012D96ED
:100940002CAD3DAD4EAD5FAD2D970E94CD2E9B01E0
:10095000AC018701FF24EE248DA59EA5AFA5B8A903
:10096000A070B070E82AF92A0A2B1B2BE216F306B6
:1009700004071507C0F40894A108B108C108D108FC
:10098000E20CF31C041D151DE214F3040405150507
:1009900050F0E216F3060407150728F40894A1089E
:1009A000B108C108D1086196ECACFDAC0EAD1FAD2D
:1009B0006197D7019927882796018501082B192B64
:1009C0002A2B3B2B09AB1AAB2BAB3CAB62C26E1490
:1009D0007F048006910608F451C220E0E21620E070
:1009E000F20621E0020720E0120788F43FEFE31649
:1009F000F1040105110531F028F048E050E060E015
:100A000070E017C040E050E060E070E012C040E0ED
:100A1000E41640E0F40640E0040741E0140728F043
:100A200048E150E060E070E004C040E150E060E088
:100A300070E0D801C701042E04C0B695A79597951C
:100A400087950A94D2F78A519F4FDC012C9130E2AE
:100A5000A32EB12CC12CD12CD601C501841B950B22
:100A6000A60BB70B821B9109A109B1090097A1053B
:100A7000B10589F4E614F7040805190508F4F2C174
:100A80006DA47EA48FA498A86214730484049504B2
:100A900008F0E8C1F3C16E968FAF6E97082E04C0C0
:100AA000EE0CFF1C001F111F0A94D2F76A2D681B61
:100AB000D201C101062E04C0B695A79597958795DA
:100AC0000A94D2F75C016D01AE28BF28C02AD12A52
:100AD000ADA2BEA2CFA2D8A6720161016E960FACE4
:100AE0006E9704C0CC0CDD1CEE1CFF1C0A94D2F7E0
:100AF000C9A2DAA2EBA2FCA264015301062E04C033
:100B0000D694C794B794A7940A94D2F7D401C3019A
:100B10006E960FAC6E9704C0880F991FAA1FBB1F5B
:100B20000A94D2F7EDA4FEA40FA518A904C0169547
:100B30000795F794E7946A95D2F737014801682A38
:100B4000792A8A2A9B2A6D8E7E8E8F8E98A2EDA09E
:100B5000FEA00FA118A538018824992498018701C7
:100B60002070307065960CAF1DAF2EAF3FAF65970C
:100B7000C601B501A40193010E94EC2E7B018C01FA
:100B8000C601B501A40193010E94EC2EC901DA014E
:100B90001C012D01C201B10165962CAD3DAD4EADDC
:100BA0005FAD65970E94CD2E9B01AC018701FF24AC
:100BB000EE24AD8CBE8CCF8CD8A0C601AA27BB2753
:100BC00057016801A82AB92ACA2ADB2AA216B30645
:100BD000C406D50600F508942108310841085108DB
:100BE000EDA0FEA00FA118A5AE0CBF1CC01ED11E0B
:100BF000AE14BF04C006D10670F0A216B306C40638
:100C0000D50648F408942108310841085108AE0C73
:100C1000BF1CC01ED11EA21AB30AC40AD50AC6013F
:100C2000B501A40193010E94EC2E7B018C01C60149
:100C3000B501A40193010E94EC2EC901DA013C0127
:100C40004D01C401B30165962CAD3DAD4EAD5FAD18
:100C500065970E94CD2E9B01AC018701FF24EE24F5
:100C60008D8D9E8DAF8DB8A1A070B07057016801B9
:100C7000A82AB92ACA2ADB2AA216B306C406D506B0
:100C800000F5089461087108810891086DA17EA1A2
:100C90008FA198A5A60EB71EC81ED91EA616B70608
:100CA000C806D90670F0A216B306C406D50648F4E5
:100CB00008946108710881089108A60EB71EC81E25
:100CC000D91ED601C501821B930BA40BB50B898FCE
:100CD0009A8FAB8FBC8FD10199278827640153016C
:100CE000A82AB92ACA2ADB2AA9AABAAACBAADCAAA4
:100CF000860175012FEF3FEF40E050E0E222F32242
:100D000004231523A601662777276D964CAF5DAFA8
:100D10006EAF7FAF6D97A9A0BAA0CBA0DCA06FEF9C
:100D20007FEF80E090E0A622B722C822D92289A1D5
:100D30009AA1ABA1BCA11D0144245524C801B7014F
:100D4000A60195010E94CD2E69966CAF7DAF8EAF46
:100D50009FAF6997C801B701A20191010E94CD2EF2
:100D60003B014C016D966CAD7DAD8EAD9FAD6D9729
:100D7000A60195010E94CD2E7B018C016D966CAD74
:100D80007DAD8EAD9FAD6D97A20191010E94CD2EDC
:100D90005B016C01A8019701260D371D481D591DE7
:100DA00069966CAC7DAC8EAC9FAC6997C401AA27E8
:100DB000BB27280F391F4A1F5B1F2E153F05400711
:100DC000510748F4E12CF12C61E0062F112DAE0CF7
:100DD000BF1CC01ED11ECA01AA27BB27BC01CD0162
:100DE0006A0D7B1D8C1D9D1D698C7A8C8B8C9C8C57
:100DF000661677068806990640F166157705880518
:100E0000990509F043C0D9019927882769962CAD27
:100E10003DAD4EAD5FAD699740705070820F931F2E
:100E2000A41FB51F2DA53EA54FA558A96E960FACC2
:100E30006E9704C0220F331F441F551F0A94D2F728
:100E4000281739074A075B0708F509A91AA92BA92A
:100E50003CA9015010402040304009AB1AAB2BABED
:100E60003CAB14C066247724430121E030E040E02D
:100E700050E029AB3AAB4BAB5CAB0BC0662477249C
:100E8000430119AA1AAA1BAA1CAA03C06624772424
:100E90004301FE01719688E0DF011D928A95E9F712
:100EA000A9A8BAA8CBA8DCA8A98ABA8ACB8ADC8A66
:100EB0006D8A7E8A8F8A988E29A93A894B895C89A6
:100EC000662D7E898F89988DC25ADF4FE2E10C949E
:100ED0002A2FABE5B0E0EFE6F7E00C940E2FA8E088
:100EE0004E010894811C911CF4016A2E11926A949F
:100EF000E9F729833A834B835C836D837E838F83F9
:100F00009887CE010996FC011192AA95E9F7A98666
:100F1000BA86CB86DC86ED86FE860F87188B298401
:100F20003A844B845C84AD84BE84CF84D888298184
:100F30003A814B815C8169962FAF69976A963FAF82
:100F40006A976B964FAF6B976C965FAF6C976C968A
:100F50006CAC7DAC8EAC9FAC6C9769AA7AAA8BAA5C
:100F60009CAA6D817E818F8198853B014C016DAA81
:100F70007EAA8FAA98AEA114B104C104D10409F0CD
:100F800004C3621473048404950408F000C100E0F3
:100F9000201600E0300601E0400600E0500688F42C
:100FA0001FEF211631044104510439F030F088E07C
:100FB000E82EF12C012D112D18C0EE24FF248701FD
:100FC00014C040E0241640E0340640E0440641E00E
:100FD000540630F0B8E1EB2EF12C012D112D05C097
:100FE000A0E1EA2EF12C012D112DD201C1010E2C10
:100FF00004C0B695A795979587950A94D2F78A511C
:101000009F4FDC012C9180E290E0A0E0B0E08E19CF
:101010009F09A00BB10B5C016D01A21AB108C108B8
:10102000D108A9AEBAAECBAEDCAEA114B104C104F6
:10103000D10409F43FC069AD062E04C0220C331C54
:10104000441C551C0A94D2F7A4019301062E04C037
:10105000220F331F441F551F0A94D2F780E290E0FD
:101060008A199B096C96CCACDDACEEACFFAC6C97EE
:1010700004C0F694E794D794C7948A95D2F7870171
:101080007601E22AF32A042B152BEDAAFEAA0FAB58
:1010900018AF6C968CAD9DADAEADBFAD6C9704C076
:1010A000880F991FAA1FBB1F6A95D2F789AB9AAB0D
:1010B000ABABBCAB320188249924B201A1016070B2
:1010C000707021964CAF5DAF6EAF7FAF21976DA969
:1010D0007EA98FA998ADA40193010E94EC2E7B01FB
:1010E0008C016DA97EA98FA998ADA40193010E94DE
:1010F000EC2ECA01B90121962CAD3DAD4EAD5FADD0
:1011000021970E94CD2E9B01AC018701FF24EE2484
:10111000A9A8BAA8CBA8DCA8C601AA27BB27570153
:101120006801A82AB92ACA2ADB2AA216B306C4066D
:10113000D50690F4A20CB31CC41CD51CA214B30495
:10114000C404D50448F0A216B306C406D50620F49C
:10115000A20CB31CC41CD51CA21AB30AC40AD50A1B
:10116000C601B501A40193010E94EC2E7B018C0104
:10117000C601B501A40193010E94EC2ECA01B90178
:1011800021962CAD3DAD4EAD5FAD2197BAC1211476
:1011900031044104510471F461E070E080E090E0BA
:1011A00020E030E040E050E00E94EC2EC901DA017E
:1011B0001C012D0100E0201600E0300601E0400691
:1011C00000E0500688F41FEF211631044104510459
:1011D00039F030F068E0E62EF12C012D112D18C009
:1011E000EE24FF24870114C040E0241640E03406BA
:1011F00040E0440641E0540630F058E1E52EF12C81
:10120000012D112D05C040E1E42EF12C012D112DF1
:10121000D201C1010E2C04C0B695A795979587956C
:101220000A94D2F78A519F4FDC012C9130E2A32E11
:10123000B12CC12CD12CD601C5018E199F09A00B50
:10124000B10B7C018D01E21AF10801091109E9AE27
:10125000FAAE0BAF1CAFE114F1040105110539F42E
:1012600064015301A218B308C408D508E2C0F9AC60
:101270006896FFAE68970F2C04C0220C331C441CE8
:10128000551C0A94D2F78A2D8F1964015301082E38
:1012900004C0D694C794B794A7940A94D2F7A40133
:1012A000930104C0220F331F441F551FFA94D2F735
:1012B0006C966CAC7DAC8EAC9FAC6C9704C0969475
:1012C0008794779467948A95D2F784017301E22A10
:1012D000F32A042B152BEDA6FEA60FA718AB32019F
:1012E00088249924B201A1016070707025964CAFDA
:1012F0005DAF6EAF7FAF2597C601B501A401930125
:101300000E94EC2E7B018C01C601B501A401930162
:101310000E94EC2ECA01B90125962CAD3DAD4EAD13
:101320005FAD25970E94CD2E9B01AC018701FF2464
:10133000EE24ADA4BEA4CFA4D8A8C601AA27BB277B
:101340005C016D01AE28BF28C02AD12AA216B306BF
:10135000C406D50690F4A20CB31CC41CD51CA21460
:10136000B304C404D50448F0A216B306C406D506D7
:1013700020F4A20CB31CC41CD51CA21AB30AC40AC4
:10138000D50AC601B501A40193010E94EC2E7B0190
:101390008C01C601B501A40193010E94EC2ECA0183
:1013A000B90125962CAD3DAD4EAD5FAD25970E94A0
:1013B000CD2E9B01AC018701FF24EE248DA59EA5B7
:1013C000AFA5B8A9A070B07057016801A82AB92AC2
:1013D000CA2ADB2AA216B306C406D50690F4A20CCC
:1013E000B31CC41CD51CA214B304C404D50448F017
:1013F000A216B306C406D50620F4A20CB31CC41C66
:10140000D51C6C96ECACFDAC0EAD1FAD6C97689620
:101410000FAC689704C0EE0CFF1C001F111F0A944C
:10142000D2F7E9AAFAAA0BAB1CABA21AB30AC40AF8
:10143000D50A320188249924B201A101607070702C
:1014400029964CAF5DAF6EAF7FAF2997C601B5014E
:10145000A40193010E94EC2E7B018C01C601B50111
:10146000A40193010E94EC2ECA01B90129962CAD6A
:101470003DAD4EAD5FAD29970E94CD2E9B01AC01D5
:101480008701FF24EE24A9A8BAA8CBA8DCA8C6012E
:10149000AA27BB2757016801A82AB92ACA2ADB2A2A
:1014A000A216B306C406D50690F4A20CB31CC41C45
:1014B000D51CA214B304C404D50448F0A216B30684
:1014C000C406D50620F4A20CB31CC41CD51CA21A59
:1014D000B30AC40AD50AC601B501A40193010E944A
:1014E000EC2E7B018C01C601B501A40193010E9481
:1014F000EC2ECA01B90129962CAD3DAD4EAD5FADC4
:1015000029970E94CD2E9B01AC018701FF24EE2478
:1015100089A99AA9ABA9BCA9A070B070E82AF92A38
:101520000A2B1B2BE216F3060407150790F4E20CB6
:10153000F31C041D151DE214F3040405150548F001
:10154000E216F3060407150720F4E20CF31C041D51
:10155000151DE21AF30A040B150BD801C70109ACDB
:1015600004C0B695A795979587950A94D2F7898B6D
:101570009A8BAB8BBC8B1D8A1E8A1F8A188E282FD4
:101580003A894B895C896D890CC36A147B048C048D
:101590009D0408F409C300E0A01600E0B00601E0D5
:1015A000C00600E0D00688F41FEFA116B104C10404
:1015B000D10439F030F028E0E22EF12C012D112D6C
:1015C00018C0EE24FF24870114C040E0A41640E0B8
:1015D000B40640E0C40641E0D40630F098E1E92EBC
:1015E000F12C012D112D05C080E1E82EF12C012DEB
:1015F000112DD601C5010E2C04C0B695A79597955F
:1016000087950A94D2F78A519F4FDC012C9180E292
:1016100090E0A0E0B0E08E199F09A00BB10B821BF7
:101620009109A109B1090097A105B10509F04FC0C1
:10163000A614B704C804D90458F06C96ECACFDAC01
:101640000EAD1FAD6C97E214F3040405150568F1A7
:101650006C96ECACFDAC0EAD1FAD6C97E218F308C8
:1016600004091509A40193012A193B094C095D09D4
:10167000AA24BB2465016C966CAD7DAD8EAD9FAD8B
:101680006C976E157F058007910728F4B1E0AB2EAB
:10169000B12CC12CD12CDA01C9018A199B09AC09E2
:1016A000BD098DAB9EABAFABB8AFE98AFA8A0B8BA5
:1016B0001C8B6DA87EA88FA898AC6D8A7E8A8F8AB5
:1016C000988E2E2D3A894B895C896DA96AC26796DE
:1016D0008FAF6797A6019501082E04C0220F331F14
:1016E000441F551F0A94D2F7A0E2AA2EA81A6696A4
:1016F000AFAE6697D201C10104C0B695A795979584
:101700008795AA94D2F76C017D01C22AD32AE42AD4
:10171000F52AC9A6DAA6EBA6FCA682017101679696
:101720000FAC679704C0EE0CFF1C001F111F0A943A
:10173000D2F7EDA2FEA20FA318A76401530166968B
:101740000FAC669704C0D694C794B794A7940A9434
:10175000D2F7A401930167960FAC679704C0220FDC
:10176000331F441F551F0A94D2F76C968CAD9DAD64
:10177000AEADBFAD6C9766960FAC669704C0B695DC
:10178000A795979587950A94D2F73C014D01622A57
:10179000732A842A952A69A27AA28BA29CA26C96AB
:1017A000ECACFDAC0EAD1FAD6C9767960FAC6797B8
:1017B00004C0EE0CFF1C001F111F0A94D2F7ED8E1F
:1017C000FE8E0F8F18A349A55AA56BA57CA53B01DA
:1017D00088249924607070702D964CAF5DAF6EAF09
:1017E0007FAF2D97C601B501A40193010E94EC2E95
:1017F0007B018C01C601B501A40193010E94EC2E6E
:10180000C901DA011C012D01C201B1012D962CADD7
:101810003DAD4EAD5FAD2D970E94CD2E9B01AC012D
:101820008701FF24EE24A9A0BAA0CBA0DCA0C601AA
:10183000AA27BB2757016801A82AB92ACA2ADB2A86
:10184000A216B306C406D50600F50894210831088F
:1018500041085108E9A4FAA40BA51CA5AE0CBF1CB5
:10186000C01ED11EAE14BF04C006D10670F0A21671
:10187000B306C406D50648F4089421083108410887
:101880005108AE0CBF1CC01ED11EA21AB30AC40A56
:10189000D50AC601B501A40193010E94EC2E7B017B
:1018A0008C01C601B501A40193010E94EC2EC9016F
:1018B000DA013C014D01C401B3012D962CAD3DADC3
:1018C0004EAD5FAD2D970E94CD2E9B01AC018701DF
:1018D000FF24EE2489A19AA1ABA1BCA1A070B07095
:1018E00057016801A82AB92ACA2ADB2AA216B30618
:1018F000C406D50600F508946108710881089108AE
:1019000069A57AA58BA59CA5A60EB71EC81ED91ED3
:10191000A616B706C806D90670F0A216B306C40606
:10192000D50648F408946108710881089108A60E4C
:10193000B71EC81ED91ED601C501821B930BA40B6E
:10194000B50B898F9A8FAB8FBC8FD10199278827D0
:1019500084017301E82AF92A0A2B1B2B4FEFA42ECE
:101960004FEFB42EC12CD12CAE20BF20C022D122EB
:101970007801002711276DA07EA08FA098A44FEFBB
:101980005FEF60E070E064227522862297228DA1CD
:101990009EA1AFA1B8A5BD018827992765966CAF18
:1019A0007DAF8EAF9FAF6597C601B501A4019301CE
:1019B0000E94CD2E61966CAF7DAF8EAF9FAF6197C9
:1019C000C601B50165962CAD3DAD4EAD5FAD6597D9
:1019D0000E94CD2E1B012C01C801B701A401930167
:1019E0000E94CD2E5B016C01C801B70165962CAD3C
:1019F0003DAD4EAD5FAD65970E94CD2E7B018C0154
:101A0000A6019501220D331D441D551D61966CAC38
:101A10007DAC8EAC9FAC6197C401AA27BB27280F71
:101A2000391F4A1F5B1F2A153B054C055D0548F40D
:101A3000812C912CE1E0AE2EB12CE80CF91C0A1D92
:101A40001B1DCA01AA27BB2757016801A80EB91E92
:101A5000CA1EDB1EA9013327222761968CAD9DADDE
:101A6000AEADBFAD6197A070B070280F391F4A1F8F
:101A70005B1FE98CFA8C0B8D1C8DEA14FB040C05A2
:101A80001D0570F0AE14BF04C006D10669F56D8D5A
:101A90007E8D8F8D98A1621773078407950720F5B7
:101AA000DA01C9016DA07EA08FA098A486199709BC
:101AB000A809B909E9A4FAA40BA51CA5AE18BF088A
:101AC000C00AD10AEE24FF248701281739074A07E4
:101AD0005B0728F421E0E22EF12C012D112DAE1828
:101AE000BF08C00AD10A02C0DA01C9016D8C7E8C20
:101AF0008F8C98A0681A790A8A0A9B0A498D5A8D98
:101B00006B8D7C8D4A195B096C097D095A016B014B
:101B10002224332421016D8D7E8D8F8D98A1661531
:101B200077058805990528F481E0282E312C412C71
:101B3000512C86017501E218F30804091509A80162
:101B4000970166960FAC669704C0220F331F441F9F
:101B5000551F0A94D2F7D401C30167960FAC67975B
:101B600004C0B695A795979587950A94D2F7282B28
:101B7000392B4A2B5B2B298B3A8B4B8B5C8B6796D3
:101B80000FAC679704C016950795F794E7940A94ED
:101B9000D2F7ED8AFE8A0F8B188F3A894B895C89C0
:101BA0006E2D7E898F89988DC55ADF4FE2E10C94A6
:101BB0002A2FA0E0B0E0EFEDFDE00C940E2FDC0149
:101BC0002B01FA019C91923008F439C1EB01888114
:101BD000823008F433C1943069F4843009F02FC1A5
:101BE00011969C9111978981981709F428C1AEED3F
:101BF000B0E025C1843009F421C18230A9F49230CB
:101C000009F01DC19A01AD0188E0EA010990AE0119
:101C1000E90109929E018150C1F7E2018981119683
:101C20009C918923818308C1923009F407C11296DF
:101C30002D903C901397EB018A819B811496AD9077
:101C4000BD90CD90DC901797EC80FD800E811F81B8
:101C50009101281B390BB90137FF04C0662777278C
:101C6000621B730B603271050CF061C01216130613
:101C70006CF537014801062E04C09694879477943A
:101C800067940A94D2F721E030E040E050E004C0CD
:101C9000220F331F441F551F6A95D2F72150304041
:101CA000404050402E213F21402351232115310532
:101CB0004105510521F021E030E040E050E079019C
:101CC0008A01E628F728082919293CC0232BD1F1DD
:101CD000260E371E35014601062E04C096948794C1
:101CE000779467940A94D2F721E030E040E050E026
:101CF00004C0220F331F441F551F6A95D2F721508D
:101D00003040404050402A213B214C215D2121158B
:101D100031054105510521F021E030E040E050E07F
:101D200059016A01A628B728C828D9280BC08215EE
:101D300093052CF01C01AA24BB24650103C0EE24EA
:101D4000FF24870111969C91D20111968C919817CE
:101D500009F445C0992339F0A80197012A193B09D4
:101D60004C095D0906C0A60195012E193F09400BDB
:101D7000510B57FD08C011823382228224833583A0
:101D8000468357831DC081E0818333822282882766
:101D90009927DC01821B930BA40BB50B84839583DD
:101DA000A683B7830DC0220F331F441F551F248302
:101DB00035834683578382819381019793838283FE
:101DC0002481358146815781DA01C9010197A10932
:101DD000B1098F5F9F4FAF4FBF4328F30BC0918373
:101DE00033822282EA0CFB1C0C1D1D1DE482F5824D
:101DF0000683178383E08083248135814681578160
:101E000057FF1AC0C901AA2797FDA095BA2F817064
:101E10009070A070B0705695479537952795822B96
:101E2000932BA42BB52B84839583A683B7838281C0
:101E30009381019693838283DF0101C0D201CD019A
:101E4000CDB7DEB7E2E10C942A2FA0E2B0E0EBE2DE
:101E5000FFE00C941A2F69837A838B839C832D83F4
:101E60003E834F835887E9E0EE2EF12CEC0EFD1EE9
:101E7000CE010196B7010E9436128E010F5E1F4FF0
:101E8000CE010596B8010E9436128A8991E0892711
:101E90008A8BC701B801AE01475E5F4F0E94D90D22
:101EA0000E946111A096E6E00C94362FA0E2B0E00B
:101EB000ECE5FFE00C941A2F69837A838B839C8373
:101EC0002D833E834F835887F9E0EF2EF12CEC0EE3
:101ED000FD1ECE010196B7010E9436128E010F5EE3
:101EE0001F4FCE010596B8010E943612C701B801F6
:101EF000AE01475E5F4F0E94D90D0E946111A0960E
:101F0000E6E00C94362FA0E2B0E0E9E8FFE00C94A4
:101F10000E2F69837A838B839C832D833E834F832B
:101F20005887CE010196BE01675F7F4F0E9436122F
:101F3000CE010596BE016F5E7F4F0E9436129985D5
:101F4000923088F089898230C8F0943019F4823058
:101F500051F404C0843029F4923081F48EED90E085
:101F6000C6C0923049F420E09A858A89981321E00E
:101F70002A87CE010996BBC0823049F420E09A85B9
:101F80008A89981321E02A8BCE014196B0C02D8416
:101F90003E844F8458886D887E888F88988CEE2484
:101FA000FF248701AA24BB24650140E050E060E0E3
:101FB00070E0E0E0F0E0C10181709070892BE9F001
:101FC000E60CF71C081D191D9A01AB012A0D3B1DDB
:101FD0004C1D5D1D80E090E0A0E0B0E0E614F70449
:101FE0000805190520F481E090E0A0E0B0E0BA0116
:101FF000A901480F591F6A1F7B1FAA0CBB1CCC1CD0
:10200000DD1C97FE08C081E090E0A0E0B0E0A82AC7
:10201000B92ACA2ADB2A3196E032F10549F0660C6A
:10202000771C881C991C5694479437942794C3CFE7
:10203000FA85EA892B893C898B859C85280F391F75
:102040002E5F3F4F17C0CA0181709070892B61F0DD
:1020500016950795F794E79480E090E0A0E0B0E84B
:10206000E82AF92A0A2B1B2B7695679557954795F1
:102070002F5F3F4F77FDE7CF0CC0440F551F661F02
:10208000771F17FD4160EE0CFF1C001F111F215030
:102090003040403090E0590790E0690790E47907BC
:1020A00060F32B8F3C8FDB01CA018F779070A0709B
:1020B000B07080349105A105B10561F447FD0AC0F7
:1020C000E114F1040105110529F0405C5F4F6F4FE9
:1020D0007F4F40781A8EFE1711F081E08A8F4D8F66
:1020E0005E8F6F8F78A383E0898FCE0149960E941F
:1020F0006111A096E2E10C942A2FA8E1B0E0E3E898
:10210000F0E10C941A2F69837A838B839C832D834F
:102110003E834F83588789E0E82EF12CEC0EFD1E9C
:10212000CE010196B7010E9436128E010F5E1F4F3D
:10213000CE010596B8010E9436128985823040F0A2
:102140008989823028F0C701B8010E94AE1201C00F
:102150008FEF6896E6E00C94362FA8E1B0E0E3EB51
:10216000F0E10C941A2F69837A838B839C832D83EF
:102170003E834F83588789E0E82EF12CEC0EFD1E3C
:10218000CE010196B7010E9436128E010F5E1F4FDD
:10219000CE010596B8010E9436128985823040F042
:1021A0008989823028F0C701B8010E94AE1201C0AF
:1021B0008FEF6896E6E00C94362FA8E1B0E0E3EEEE
:1021C000F0E10C941A2F69837A838B839C832D838F
:1021D0003E834F83588789E0E82EF12CEC0EFD1EDC
:1021E000CE010196B7010E9436128E010F5E1F4F7D
:1021F000CE010596B8010E9436128985823040F0E2
:102200008989823028F0C701B8010E94AE1201C04E
:1022100081E06896E6E00C94362FACE0B0E0E3E1B4
:10222000F1E10C941E2F69837A838B839C83CE010A
:102230000196BE016B5F7F4F0E9436128D81823006
:1022400061F1823050F1843021F48E81882351F184
:102250002EC02F81388537FD20C06E812F3131058A
:102260001CF06623F9F023C08EE190E0821B930BF3
:1022700029853A854B855C8504C0569547953795E9
:1022800027958A95D2F76623B1F050954095309501
:1022900021953F4F4F4F5F4F0EC020E030E040E0B0
:1022A00050E009C02FEF3FEF4FEF5FE704C020E0A1
:1022B00030E040E050E8B901CA012C96E2E00C940D
:1022C0003A2FDF92EF92FF920F931F93FC01E4806D
:1022D000F58006811781D1808081823048F480E0CA
:1022E00090E0A0E1B0E0E82AF92A0A2B1B2BA5C058
:1022F000843009F49FC0823021F4EE24FF2487014A
:1023000005C0E114F1040105110519F4E0E0F0E065
:1023100096C0628173819FEF623879070CF05BC0D1
:1023200022E83FEF261B370B2A3131052CF020E045
:1023300030E040E050E02AC0B801A701022E04C0FE
:1023400076956795579547950A94D2F781E090E086
:10235000A0E0B0E004C0880F991FAA1FBB1F2A95F8
:10236000D2F70197A109B1098E219F21A023B123A2
:102370000097A105B10521F081E090E0A0E0B0E078
:102380009A01AB01282B392B4A2B5B2BDA01C901AF
:102390008F779070A070B07080349105A105B10561
:1023A00039F427FF09C0205C3F4F4F4F5F4F04C0F7
:1023B000215C3F4F4F4F5F4FE0E0F0E02030A0E066
:1023C0003A07A0E04A07A0E45A0710F0E1E0F0E085
:1023D00079018A0127C06038710564F5FB01E15875
:1023E000FF4FD801C7018F779070A070B070803414
:1023F0009105A105B10539F4E7FE0DC080E490E038
:10240000A0E0B0E004C08FE390E0A0E0B0E0E80E10
:10241000F91E0A1F1B1F17FF05C016950795F79495
:10242000E794319687E016950795F794E7948A9597
:10243000D1F705C0EE24FF248701EFEFF0E06E2F07
:10244000679566276795902F9F77D794DD24D7945B
:102450008E2F8695492F462B582F5D29B701CA012B
:102460001F910F91FF90EF90DF900895FC01DB0129
:10247000408151812281622F6F7770E0221F2227D5
:10248000221F9381892F880F822B282F30E0991FDC
:102490009927991F11969C93119721153105A9F53C
:1024A000411551056105710511F482E037C082E8DC
:1024B0009FEF13969C938E9312979A01AB0167E05E
:1024C000220F331F441F551F6A95D1F783E08C9369
:1024D0000DC0220F331F441F551F12968D919C91E2
:1024E0001397019713969C938E931297203080E058
:1024F000380780E0480780E4580758F314962D9376
:102500003D934D935C93179708952F3F310579F4D0
:10251000411551056105710519F484E08C93089506
:1025200064FF03C081E08C9312C01C9210C02F572F
:10253000304013963C932E93129783E08C9387E060
:10254000440F551F661F771F8A95D1F77064149644
:102550004D935D936D937C93179708951F93DC01C2
:10256000FB019C91923008F447C08081823008F4CE
:1025700043C0943051F411961C91843099F58181B7
:10258000682F70E0611B71093FC0843021F09230E8
:1025900031F48230B9F18181882389F12DC01196FF
:1025A0001C9111978230F1F081811817D9F412969D
:1025B0002D913C911397828193818217930794F018
:1025C00028173907BCF014968D919D910D90BC9100
:1025D000A02D2481358146815781281739074A0764
:1025E0005B0718F4112341F00AC082179307A40770
:1025F000B50740F4112319F061E070E005C06FEFFA
:102600007FEF02C060E070E0CB011F9108950F934F
:102610001F93DF93CF93CDB7DEB7C654D0400FB62C
:10262000F894DEBF0FBECDBFFE01ED5BFF4F80E033
:1026300090E0A8E4B2E480839183A283B3838E0107
:10264000015C1F4FFE01ED5BFF4F60817181828154
:10265000938120E030E04AEF54E40E94830FDC01D4
:10266000CB01F80180839183A283B383FE01FF969F
:10267000608171818281938120E030E040E85FE3F6
:102680000E94DD1088232CF481E090E09EAF8DAF96
:1026900046C0FE01FF96608171818281938120E0B6
:1026A0003FEF4FE757E40E947D10181664F5FE01D6
:1026B000ED5BFF4F608171818281938120E030E08A
:1026C00040E251E40E94830FDC01CB01BC01CD014B
:1026D0000E94C800DC01CB019EAF8DAF0FC088EC1B
:1026E00090E09CAF8BAF8BAD9CAD0197F1F79CAFA9
:1026F0008BAF8DAD9EAD01979EAF8DAF8DAD9EAD75
:10270000009769F716C0FE01FF9660817181828192
:1027100093810E94C800DC01CB019EAF8DAF8DADCF
:102720009EAD9AAF89AF89AD9AAD0197F1F79AAF97
:1027300089AF80E064E041E00E943F1F80E065E0F7
:1027400041E00E943F1F80E066E041E00E943F1FA1
:1027500080E067E041E00E943F1F81E060E041E0EF
:102760000E943F1F81E061E041E00E943F1F81E045
:1027700062E041E00E943F1F82E00E94C21580E0BB
:1027800090E0A0EFB1E48DAB9EABAFABB8AF6DA95D
:102790007EA98FA998AD20E030E04AEF54E40E9472
:1027A000830FDC01CB0189AB9AABABABBCAB69A9A6
:1027B0007AA98BA99CA920E030E040E85FE30E9461
:1027C000DD1088232CF481E090E098AB8FA73FC008
:1027D00069A97AA98BA99CA920E03FEF4FE757E4AC
:1027E0000E947D1018164CF56DA97EA98FA998AD91
:1027F00020E030E040E251E40E94830FDC01CB0195
:10280000BC01CD010E94C800DC01CB0198AB8FA7B1
:102810000FC088EC90E09EA78DA78DA59EA501977F
:10282000F1F79EA78DA78FA598A9019798AB8FA7C1
:102830008FA598A9009769F714C069A97AA98BA9EF
:102840009CA90E94C800DC01CB0198AB8FA78FA583
:1028500098A99CA78BA78BA59CA50197F1F79CA78E
:102860008BA788E20E94C21580E090E0A0E8BFE359
:102870008FA398A7A9A7BAA76FA178A589A59AA59C
:1028800020E030E04AEF54E40E94830FDC01CB01EA
:102890008BA39CA3ADA3BEA36BA17CA18DA19EA184
:1028A00020E030E040E85FE30E94DD1088232CF454
:1028B00081E090E09AA389A33FC06BA17CA18DA188
:1028C0009EA120E03FEF4FE757E40E947D101816CD
:1028D0004CF56FA178A589A59AA520E030E040E2EB
:1028E00051E40E94830FDC01CB01BC01CD010E94A9
:1028F000C800DC01CB019AA389A30FC088EC90E04B
:1029000098A38F8F8F8D98A10197F1F798A38F8F40
:1029100089A19AA101979AA389A389A19AA1009755
:1029200069F714C06BA17CA18DA19EA10E94C80073
:10293000DC01CB019AA389A389A19AA19E8F8D8FD7
:102940008D8D9E8D0197F1F79E8F8D8F8EE00E9469
:10295000C21580E090E0A0E8BFE3898F9A8FAB8F2B
:10296000BC8F698D7A8D8B8D9C8D20E030E04AEF95
:1029700054E40E94830FDC01CB018D8B9E8BAF8BC7
:10298000B88F6D897E898F89988D20E030E040E88E
:102990005FE30E94DD1088232CF481E090E09C8BA3
:1029A0008B8B3FC06D897E898F89988D20E03FEFAA
:1029B0004FE757E40E947D1018164CF5698D7A8D0B
:1029C0008B8D9C8D20E030E040E251E40E94830F2B
:1029D000DC01CB01BC01CD010E94C800DC01CB01B0
:1029E0009C8B8B8B0FC088EC90E09A8B898B8989AC
:1029F0009A890197F1F79A8B898B8B899C8901972A
:102A00009C8B8B8B8B899C89009769F714C06D898F
:102A10007E898F89988D0E94C800DC01CB019C8B38
:102A20008B8B8B899C89988B8F878F859889019751
:102A3000F1F7988B8F870E94B61D86E00E94C21521
:102A400080E090E0A0E8BFE38B879C87AD87BE87DE
:102A50006B857C858D859E8520E030E04AEF54E4CF
:102A60000E94830FDC01CB018F839887A987BA87E7
:102A70006F81788589859A8520E030E040E85FE3C2
:102A80000E94DD1088232CF481E090E09E838D83EA
:102A90003FC06F81788589859A8520E03FEF4FE7B9
:102AA00057E40E947D1018164CF56B857C858D854A
:102AB0009E8520E030E040E251E40E94830FDC017B
:102AC000CB01BC01CD010E94C800DC01CB019E837B
:102AD0008D830FC088EC90E09C838B838B819C81DD
:102AE0000197F1F79C838B838D819E8101979E8353
:102AF0008D838D819E81009769F714C06F817885E1
:102B000089859A850E94C800DC01CB019E838D8354
:102B10008D819E819A83898389819A810197F1F7BA
:102B20009A838983CA5BDF4F0FB6F894DEBF0FBE6E
:102B3000CDBFCF91DF911F910F910895DF93CF9378
:102B40000F92CDB7DEB7898381E060E041E00E945B
:102B50004E2081E061E040E00E944E208981982F64
:102B600092959F7080E0692F0E9447250E943E1E2B
:102B700080E069810E9447250E943E1E0F90CF9100
:102B8000DF910895DF93CF930F92CDB7DEB789839E
:102B900081E060E040E00E944E2081E061E040E0A2
:102BA0000E944E208981982F92959F7080E0692F16
:102BB0000E9447250E943E1E80E069810E944725B1
:102BC0000E943E1E0F90CF91DF910895DF93CF9327
:102BD00000D00F92CDB7DEB79B838A8319820EC0D7
:102BE0008981282F30E08A819B81FC01E20FF31F4D
:102BF00080810E949E1589818F5F89838981282F1A
:102C000030E08A819B81FC01E20FF31F80818823E1
:102C100039F70F900F900F90CF91DF910895AF92F9
:102C2000BF92CF92DF92EF92FF920F931F93DF93A9
:102C3000CF93CDB7DEB7C159D0400FB6F894DEBF01
:102C40000FBECDBF29873A874B875C876D877E870C
:102C50008F87988B81E089831A821B821C821D8258
:102C60001E821F82188689859A85892B9B85892BD0
:102C70009C85892B9D85892B9E85892B9F85892BFA
:102C80009889892B882309F09CC380E30E949E15B4
:102C900083C629813A814B815C816D817E818F81E0
:102CA0009885A22EB32EC42ED52EE62EF72E082FF1
:102CB000192F2A2D3B2D4C2D5D2D6E2D7F2D802F14
:102CC000912F01E00E94490029A73AA74BA75CA7D2
:102CD0006DA77EA78FA798AB29A53AA54BA55CA5A4
:102CE0006DA57EA58FA598A902E00E94490029AB99
:102CF0003AAB4BAB5CAB6DAB7EAB8FAB98AF89A502
:102D000099A9890F89AF81E022968FAF229799AD5B
:102D100089A5981718F022961FAE22979AA58AA91E
:102D2000980F9AAF91E023969FAF23978AAD9AA50B
:102D3000891718F023961FAE239722968FAD2297FE
:102D40009AAD890F24968FAF249781E025968FAF97
:102D5000259724969FAD24978AAD981718F025964D
:102D60001FAE259723969FAD239725968FAD259768
:102D7000982B23969FAF239724969FAD24979AAFC5
:102D80008BA59BA9890F8BAF81E026968FAF2697E5
:102D90009BAD8BA5981718F026961FAE2697239605
:102DA0009FAD23978BAD980F27969FAF279791E004
:102DB00028969FAF289727968FAD27979BAD8917A9
:102DC00018F028961FAE289726968FAD269728963E
:102DD0009FAD2897892B26968FAF269727968FAD84
:102DE00027978BAF9CA58CA9980F9CAF91E0299653
:102DF0009FAF29978CAD9CA5891718F029961FAE17
:102E0000299726968FAD26979CAD890F2A968FAF6E
:102E10002A9781E02B968FAF2B972A969FAD2A9702
:102E20008CAD981718F02B961FAE2B9729969FAD57
:102E300029972B968FAD2B97982B29969FAF299783
:102E40002A969FAD2A979CAF8DA59DA9890F8DAF1E
:102E500081E02C968FAF2C979DAD8DA5981718F01B
:102E60002C961FAE2C9729969FAD29978DAD980F64
:102E70002D969FAF2D9791E02E969FAF2E972D9672
:102E80008FAD2D979DAD891718F02E961FAE2E97FA
:102E90002C968FAD2C972E969FAD2E97892B2C9626
:102EA0008FAF2C972D968FAD2D978DAF9EA58EA9A8
:102EB000980F9EAF91E02F969FAF2F978EAD9EA556
:102EC000891718F02F961FAE2F972C968FAD2C9741
:102ED0009EAD890F60968FAF609781E061968FAF4E
:102EE000619760969FAD60978EAD981718F06196C8
:102EF0001FAE61972F969FAD2F9761968FAD61970B
:102F0000982B2F969FAF2F9760969FAD60979EAF9F
:102F10008FA59FA9890F8FAF81E062968FAF6297CF
:102F20009FAD8FA5981718F062961FAE62972F96E7
:102F30009FAD2F978FAD980F63969FAF639791E0EA
:102F400064969FAF649763968FAD63979FAD891723
:102F500018F064961FAE649762968FAD6297649680
:102F60009FAD6497892B62968FAF629763968FAD02
:102F700063978FAF98A988AD980F21969FAF21973F
:102F800062968FAD629721969FAD2197890F21960A
:102F90008FAF219789AD89A39AAD9AA38BAD8BA3EF
:102FA0009CAD9CA38DAD8DA39EAD9EA38FAD8FA335
:102FB00021969FAD219798A7A984BA84CB84DC84FD
:102FC000ED84FE840F8518892A2D3B2D4C2D5D2D17
:102FD0006E2D7F2D802F912F0F2EFAE0AF2EF02D2A
:102FE000BB24CC24DD24EE24FF2400E010E00E946A
:102FF0006907A22EB32EC42ED52EE62EF72E082F4B
:10300000192FA98EBA8ECB8EDC8EED8EFE8E0F8F91
:1030100018A389A1998D890F65968FAF659781E077
:103020006D968FAF6D9765969FAD659789A198173F
:1030300018F06D961FAE6D979AA18A8D980F6696BF
:103040009FAF669791E06E969FAF6E9766968FAD35
:1030500066979AA1891718F06E961FAE6E976D96B7
:103060008FAD6D9766969FAD6697890F6F968FAF00
:103070006F9781E0A0968FAFA0976F969FAD6F97E7
:1030800066968FAD6697981718F0A0961FAEA0971A
:103090006E969FAD6E97A0968FADA097982B6E966B
:1030A0009FAF6E976F969FAD6F9766969FAF66972F
:1030B0008BA19B8D890F67968FAF679781E0A19653
:1030C0008FAFA19767969FAD67978BA1981718F060
:1030D000A1961FAEA1976E969FAD6E9767968FAD26
:1030E0006797980FA2969FAFA29791E0A3969FAF84
:1030F000A397A2968FADA29767969FAD6797891702
:1031000018F0A3961FAEA397A1968FADA197A39693
:103110009FADA397892BA1968FAFA197A2968FAD54
:10312000A29767968FAF67979CA18C8D980F689632
:103130009FAF689791E0A4969FAFA49768968FADD4
:1031400068979CA1891718F0A4961FAEA497A19622
:103150008FADA19768969FAD6897890FA5968FAFA1
:10316000A59781E0A6968FAFA697A5969FADA59748
:1031700068968FAD6897981718F0A6961FAEA69719
:10318000A4969FADA497A6968FADA697982BA496CC
:103190009FAFA497A5969FADA59768969FAF689798
:1031A0008DA19D8D890F69968FAF699781E0A79654
:1031B0008FAFA79769969FAD69978DA1981718F063
:1031C000A7961FAEA797A4969FADA49769968FADBB
:1031D0006997980FA8969FAFA89791E0A9969FAF7F
:1031E000A997A8968FADA89769969FAD69978917FB
:1031F00018F0A9961FAEA997A7968FADA797A99685
:103200009FADA997892BA7968FAFA797A8968FAD4B
:10321000A89769968FAF69979EA18E8D980F6A9631
:103220009FAF6A9791E0AA969FAFAA976A968FADD3
:103230006A979EA1891718F0AA961FAEAA97A7961B
:103240008FADA7976A969FAD6A97890FAB968FAFA0
:10325000AB9781E0AC968FAFAC97AB969FADAB9739
:103260006A968FAD6A97981718F0AC961FAEAC9718
:10327000AA969FADAA97AC968FADAC97982BAA96BD
:103280009FAFAA97AB969FADAB976A969FAF6A9791
:103290008FA19F8D890F6B968FAF6B9781E0AD9655
:1032A0008FAFAD976B969FAD6B978FA1981718F066
:1032B000AD961FAEAD97AA969FADAA976B968FADB0
:1032C0006B97980FAE969FAFAE9791E0AF969FAF7A
:1032D000AF97AE968FADAE976B969FAD6B978917F4
:1032E00018F0AF961FAEAF97AD968FADAD97AF9676
:1032F0009FADAF97892BAD968FAFAD97AE968FAD43
:10330000AE976B968FAF6B9798A588A1980F6C9628
:103310009FAF6C97AD968FADAD976C969FAD6C9748
:10332000890F6C968FAF6C9765968FAD6597898383
:1033300066969FAD66979A8367968FAD67978B83E6
:1033400068969FAD68979C8369968FAD69978D83CA
:103350006A969FAD6A979E836B968FAD6B978F83AE
:103360006C969FAD6C979887A984BA84CB84DC84D3
:10337000ED84FE840F8518892A2D3B2D4C2D5D2D63
:103380006E2D7F2D802F912F0F2EFAE0AF2EF02D76
:10339000BB24CC24DD24EE24FF2400E010E00E94B6
:1033A000F400A22EB32EC42ED52EE62EF72E082F13
:1033B000192FA986BA86CB86DC86ED86FE860F8716
:1033C000188B89859A85892B9B85892B9C85892BD0
:1033D0009D85892B9E85892B9F85892B9889892B93
:1033E000882309F056CCB8C2A980BA80CB80DC8093
:1033F000ED80FE800F8118852A2D3B2D4C2D5D2DF3
:103400006E2D7F2D802F912F0F2EFAE0AF2EF02DF5
:10341000BB24CC24DD24EE24FF2400E010E00E9435
:103420006907A22EB32EC42ED52EE62EF72E082F16
:10343000192FA98ABA8ACB8ADC8AED8AFE8A0F8B79
:10344000188F80E3E0968FAFE097E1961FAEE1978B
:10345000E2961FAEE297E3961FAEE397E4961FAEA7
:10346000E497E5961FAEE597E6961FAEE697E796DA
:103470001FAEE7979989E0968FADE097980FE89691
:103480009FAFE89791E0C158DF4F9883CF57D04066
:10349000E8968FADE8979989891728F0C158DF4FD2
:1034A0001882CF57D0408A89E1969FADE197890F66
:1034B000E9968FAFE99781E0C058DF4F8883C05805
:1034C000D040E9969FADE9978A89981728F0C058AF
:1034D000DF4F1882C058D040C158DF4F9881CF5776
:1034E000D040E9968FADE997980FCF57DF4F98837B
:1034F000C158D04091E0CE57DF4F9883C258D0409A
:10350000CF57DF4F8881C158D040E9969FADE997EA
:10351000891728F0CE57DF4F1882C258D040C058C4
:10352000DF4F8881C058D040CE57DF4F9881C258B6
:10353000D040892BC058DF4F8883C058D040CF5728
:10354000DF4F8881C158D040E9968FAFE9979B89BA
:10355000E2968FADE297980FEA969FAFEA9791E0D7
:10356000CD57DF4F9883C358D040EA968FADEA9786
:103570009B89891728F0CD57DF4F1882C358D04058
:10358000C058DF4F8881C058D040EA969FADEA9777
:10359000890FCC57DF4F8883C458D04081E0CB5788
:1035A000DF4F8883C558D040CC57DF4F9881C4582F
:1035B000D040EA968FADEA97981728F0CB57DF4FA7
:1035C0001882C558D040CD57DF4F9881C358D0409E
:1035D000CB57DF4F8881C558D040982BCD57DF4F50
:1035E0009883C358D040CC57DF4F9881C458D040FF
:1035F000EA969FAFEA978C89E3969FADE397890F90
:10360000EB968FAFEB9781E0CA57DF4F8883C658A0
:10361000D040EB969FADEB978C89981728F0CA574E
:10362000DF4F1882C658D040CD57DF4F9881C3581E
:10363000D040EB968FADEB97980FC957DF4F98832B
:10364000C758D04091E0C857DF4F9883C858D04042
:10365000C957DF4F8881C758D040EB969FADEB9795
:10366000891728F0C857DF4F1882C858D040CA576A
:10367000DF4F8881C658D040C857DF4F9881C8585F
:10368000D040892BCA57DF4F8883C658D040C957CE
:10369000DF4F8881C758D040EB968FAFEB979D895D
:1036A000E4968FADE497980FEC969FAFEC9791E07E
:1036B000C757DF4F9883C958D040EC968FADEC9731
:1036C0009D89891728F0C757DF4F1882C958D04005
:1036D000CA57DF4F8881C658D040EC969FADEC9713
:1036E000890FC657DF4F8883CA58D04081E0C5573D
:1036F000DF4F8883CB58D040C657DF4F9881CA58D8
:10370000D040EC968FADEC97981728F0C557DF4F57
:103710001882CB58D040C757DF4F9881C958D04046
:10372000C557DF4F8881CB58D040982BC757DF4F04
:103730009883C958D040C657DF4F9881CA58D040A7
:10374000EC969FAFEC978E89E5969FADE597890F34
:10375000ED968FAFED9781E0C457DF4F8883CC584B
:10376000D040ED969FADED978E89981728F0C457FD
:10377000DF4F1882CC58D040C757DF4F9881C958C7
:10378000D040ED968FADED97980FC357DF4F9883DC
:10379000CD58D04091E0C257DF4F9883CE58D040EB
:1037A000C357DF4F8881CD58D040ED969FADED9740
:1037B000891728F0C257DF4F1882CE58D040C4571F
:1037C000DF4F8881CC58D040C257DF4F9881CE5808
:1037D000D040892BC457DF4F8883CC58D040C35783
:1037E000DF4F8881CD58D040ED968FAFED979F8900
:1037F000E6968FADE697980FEE969FAFEE9791E025
:10380000C157DF4F9883CF58D040EE968FADEE97DB
:103810009F89891728F0C157DF4F1882CF58D040B1
:10382000C457DF4F8881CC58D040EE969FADEE97BD
:10383000890FC057DF4F8883C059D04081E0CF56F1
:10384000DF4F8883C159D040C057DF4F9881C0599E
:10385000D040EE968FADEE97981728F0CF56DF4FF9
:103860001882C159D040C157DF4F9881CF58D040FE
:10387000CF56DF4F8881C159D040982BC157DF4FB9
:103880009883CF58D040C057DF4F9881C059D0405F
:10389000EE969FAFEE97888DE7969FADE797890FDD
:1038A000EF968FAFEF97C157DF4F8881CF58D04049
:1038B000EF969FADEF97890FEF968FAFEF97E89652
:1038C0008FADE8978983E9969FADE9979A83EA9649
:1038D0008FADEA978B83EB969FADEB979C83EC962D
:1038E0008FADEC978D83ED969FADED979E83EE9611
:1038F0008FADEE978F83EF969FADEF979887A98056
:10390000BA80CB80DC80ED80FE800F8118852A2D67
:103910003B2D4C2D5D2D6E2D7F2D802F912F0F2E49
:10392000FAE0AF2EF02DBB24CC24DD24EE24FF24BE
:1039300000E010E00E94F400A22EB32EC42ED52E7B
:10394000E62EF72E082F192FA982BA82CB82DC82AD
:10395000ED82FE820F8318878981813009F044CD82
:103960008A81882309F040CD8B81882309F03CCDE2
:103970008C81882309F038CD8D81882309F034CDDE
:103980008E81882309F030CD8F81882309F02CCDDA
:103990008885882309F028CDCF56DF4F0FB6F894DD
:1039A000DEBF0FBECDBFCF91DF911F910F91FF9072
:1039B000EF90DF90CF90BF90AF900895DF93CF93BB
:1039C000CDB7DEB761970FB6F894DEBF0FBECDBF9F
:1039D000888B698B8889882349F08889833030F403
:1039E0008989813118F48989882319F480E88F87BF
:1039F0000DC08889813021F4898981588F8706C05C
:103A00008889823019F4898981548F878F850E9433
:103A1000C21580E090E0A0E8BFE38B879C87AD876C
:103A2000BE876B857C858D859E8520E030E04AEFE2
:103A300054E40E94830FDC01CB018F839887A98710
:103A4000BA876F81788589859A8520E030E040E8E3
:103A50005FE30E94DD1088232CF481E090E09E83D8
:103A60008D833FC06F81788589859A8520E03FEFFF
:103A70004FE757E40E947D1018164CF56B857C8546
:103A80008D859E8520E030E040E251E40E94830F66
:103A9000DC01CB01BC01CD010E94C800DC01CB01DF
:103AA0009E838D830FC088EC90E09C838B838B81F9
:103AB0009C810197F1F79C838B838D819E81019777
:103AC0009E838D838D819E81009769F714C06F81DD
:103AD000788589859A850E94C800DC01CB019E8388
:103AE0008D838D819E819A83898389819A810197B3
:103AF000F1F79A83898361960FB6F894DEBF0FBE03
:103B0000CDBFCF91DF910895DF93CF9300D00F9277
:103B1000CDB7DEB78A836B83198280E40E94C21519
:103B200019820CC08981882F90E0FC01EA51FE4F78
:103B300080810E949E1589818F5F8983898180346D
:103B400088F38A816B810E94DE1C198206C08981FC
:103B50000E949E1589818F5F898389818830B8F39F
:103B60000F900F900F90CF91DF910895DF93CF9337
:103B7000CDB7DEB72E970FB6F894DEBF0FBECDBF20
:103B800081E00E94C21580E090E0A0E2B1E48B8762
:103B90009C87AD87BE876B857C858D859E8520E063
:103BA00030E04AEF54E40E94830FDC01CB018F83A5
:103BB0009887A987BA876F81788589859A8520E05B
:103BC00030E040E85FE30E94DD1088232CF481E0C0
:103BD00090E09E838D833FC06F81788589859A852B
:103BE00020E03FEF4FE757E40E947D1018164CF598
:103BF0006B857C858D859E8520E030E040E251E438
:103C00000E94830FDC01CB01BC01CD010E94C800E2
:103C1000DC01CB019E838D830FC088EC90E09C83F8
:103C20008B838B819C810197F1F79C838B838D81A2
:103C30009E8101979E838D838D819E81009769F778
:103C400014C06F81788589859A850E94C800DC013F
:103C5000CB019E838D838D819E819A838983898107
:103C60009A810197F1F79A8389832E960FB6F8947B
:103C7000DEBF0FBECDBFCF91DF910895DF93CF930D
:103C8000CDB7DEB76C970FB6F894DEBF0FBECDBFD1
:103C900081E062E041E00E944E2080E090E0A0E8F8
:103CA000BFE3898F9A8FAB8FBC8F698D7A8D8B8D97
:103CB0009C8D20E030E04AEF54E40E94830FDC0149
:103CC000CB018D8B9E8BAF8BB88F6D897E898F8951
:103CD000988D20E030E040E85FE30E94DD1088230B
:103CE0002CF481E090E09C8B8B8B3FC06D897E89AA
:103CF0008F89988D20E03FEF4FE757E40E947D10B9
:103D000018164CF5698D7A8D8B8D9C8D20E030E0F6
:103D100040E251E40E94830FDC01CB01BC01CD01E4
:103D20000E94C800DC01CB019C8B8B8B0FC088EC00
:103D300090E09A8B898B89899A890197F1F79A8B00
:103D4000898B8B899C8901979C8B8B8B8B899C8918
:103D5000009769F714C06D897E898F89988D0E94BC
:103D6000C800DC01CB019C8B8B8B8B899C89988B49
:103D70008F878F8598890197F1F7988B8F8781E0DE
:103D800062E040E00E944E2080E090E0A0E8BFE3C7
:103D90008B879C87AD87BE876B857C858D859E854F
:103DA00020E030E04AEF54E40E94830FDC01CB01B5
:103DB0008F839887A987BA876F81788589859A8547
:103DC00020E030E040E85FE30E94DD1088232CF41F
:103DD00081E090E09E838D833FC06F8178858985E7
:103DE0009A8520E03FEF4FE757E40E947D101816B8
:103DF0004CF56B857C858D859E8520E030E040E22A
:103E000051E40E94830FDC01CB01BC01CD010E9473
:103E1000C800DC01CB019E838D830FC088EC90E04D
:103E20009C838B838B819C810197F1F79C838B838F
:103E30008D819E8101979E838D838D819E810097C8
:103E400069F714C06F81788589859A850E94C800BA
:103E5000DC01CB019E838D838D819E819A83898332
:103E600089819A810197F1F79A8389836C960FB6BD
:103E7000F894DEBF0FBECDBFCF91DF910895DF93E1
:103E8000CF93CDB7DEB728970FB6F894DEBF0FBE3D
:103E9000CDBF8A836B834C8381E089838A818430A0
:103EA00008F0F1C08B81883008F0EDC08C81813042
:103EB00009F06FC08A81282F30E038872F838F81E7
:103EC00098858130910549F12F813885223031055F
:103ED0002CF48F819885009761F0D6C02F813885AA
:103EE0002230310571F18F81988583309105E9F198
:103EF000CBC0AAE3B0E0EAE3F0E08081482F8B81F9
:103F0000282F30E081E090E0022E02C0880F991F38
:103F10000A94E2F7842B8C93B7C0A7E3B0E0E7E301
:103F2000F0E08081482F8B81282F30E081E090E005
:103F3000022E02C0880F991F0A94E2F7842B8C93FB
:103F4000A3C0A4E3B0E0E4E3F0E08081482F8B81DC
:103F5000282F30E081E090E0022E02C0880F991FE8
:103F60000A94E2F7842B8C938FC0A1E3B0E0E1E3E5
:103F7000F0E08081482F8B81282F30E081E090E0B5
:103F8000022E02C0880F991F0A94E2F7842B8C93AB
:103F90007BC08C81882309F074C08A81282F30E08F
:103FA0003E832D838D819E818130910559F12D8134
:103FB0003E81223031052CF48D819E81009769F07D
:103FC00063C02D813E812230310589F18D819E8132
:103FD0008330910509F440C057C0AAE3B0E0EAE39A
:103FE000F0E08081482F8B81282F30E081E090E045
:103FF000022E02C0880F991F0A94E2F7809584234D
:104000008C9342C0A7E3B0E0E7E3F0E08081482F63
:104010008B81282F30E081E090E0022E02C0880FD3
:10402000991F0A94E2F7809584238C932DC0A4E312
:10403000B0E0E4E3F0E08081482F8B81282F30E06E
:1040400081E090E0022E02C0880F991F0A94E2F7E7
:10405000809584238C9318C0A1E3B0E0E1E3F0E005
:104060008081482F8B81282F30E081E090E0022E64
:1040700002C0880F991F0A94E2F7809584238C93DD
:1040800003C0198201C01982898128960FB6F8945D
:10409000DEBF0FBECDBFCF91DF910895DF93CF93E9
:1040A000CDB7DEB728970FB6F894DEBF0FBECDBFF1
:1040B0008A836B834C8381E089838A81843008F012
:1040C000F1C08B81883008F0EDC08C81813009F01F
:1040D0006FC08A81282F30E038872F838F819885A1
:1040E0008130910549F12F813885223031052CF43A
:1040F0008F819885009761F0D6C02F813885223056
:10410000310571F18F81988583309105E9F1CBC03C
:10411000ABE3B0E0EBE3F0E08081482F8B81282F08
:1041200030E081E090E0022E02C0880F991F0A94CF
:10413000E2F7842B8C93B7C0A8E3B0E0E8E3F0E0AB
:104140008081482F8B81282F30E081E090E0022E83
:1041500002C0880F991F0A94E2F7842B8C93A3C0A6
:10416000A5E3B0E0E5E3F0E08081482F8B81282FC4
:1041700030E081E090E0022E02C0880F991F0A947F
:10418000E2F7842B8C938FC0A2E3B0E0E2E3F0E08F
:104190008081482F8B81282F30E081E090E0022E33
:1041A00002C0880F991F0A94E2F7842B8C937BC07E
:1041B0008C81882309F074C08A81282F30E03E83E7
:1041C0002D838D819E818130910559F12D813E8114
:1041D000223031052CF48D819E81009769F063C0F7
:1041E0002D813E812230310589F18D819E81833080
:1041F000910509F440C057C0ABE3B0E0EBE3F0E059
:104200008081482F8B81282F30E081E090E0022EC2
:1042100002C0880F991F0A94E2F7809584238C933B
:1042200042C0A8E3B0E0E8E3F0E08081482F8B8152
:10423000282F30E081E090E0022E02C0880F991F05
:104240000A94E2F7809584238C932DC0A5E3B0E017
:10425000E5E3F0E08081482F8B81282F30E081E07A
:1042600090E0022E02C0880F991F0A94E2F7809511
:1042700084238C9318C0A2E3B0E0E2E3F0E08081F5
:10428000482F8B81282F30E081E090E0022E02C081
:10429000880F991F0A94E2F7809584238C9303C0BA
:1042A000198201C01982898128960FB6F894DEBF61
:1042B0000FBECDBFCF91DF910895DF93CF93CDB7E0
:1042C000DEB727970FB6F894DEBF0FBECDBF8A8347
:1042D0006B835D834C8381E089838A81843008F01D
:1042E000A6C08B81883008F0A2C08A81282F30E0D8
:1042F0003F832E834E815F8141305105C1F18E8114
:104300009F818230910534F42E813F812115310542
:1043100071F08EC04E815F814230510509F447C073
:104320008E819F818330910509F461C081C0E9E3EA
:10433000F0E08081482F50E08B81282F30E081E031
:1043400090E002C0880F991F2A95E2F79A0128236E
:1043500039238B81882F90E0A90102C0559547959C
:104360008A95E2F7CA01EC81FD81808361C0E6E3B2
:10437000F0E08081482F50E08B81282F30E081E0F1
:1043800090E002C0880F991F2A95E2F79A0128232E
:1043900039238B81882F90E0A90102C0559547955C
:1043A0008A95E2F7CA01EC81FD81808341C0E3E395
:1043B000F0E08081482F50E08B81282F30E081E0B1
:1043C00090E002C0880F991F2A95E2F79A012823EE
:1043D00039238B81882F90E0A90102C0559547951C
:1043E0008A95E2F7CA01EC81FD81808321C0E0E378
:1043F000F0E08081482F50E08B81282F30E081E071
:1044000090E002C0880F991F2A95E2F79A012823AD
:1044100039238B81882F90E0A90102C055954795DB
:104420008A95E2F7CA01EC81FD81808301C019827F
:10443000898127960FB6F894DEBF0FBECDBFCF910E
:10444000DF910895DF93CF9300D000D00F92CDB7C6
:10445000DEB78A836B8381E089838A81843008F0A8
:1044600073C08B81883008F06FC08A81282F30E0BC
:104470003D832C838C819D818130910549F12C8174
:104480003D81223031052CF48C819D81009761F0B3
:104490005CC02C813D812230310571F18C819D8180
:1044A00083309105E9F151C0ABE3B0E0EBE3F0E01C
:1044B0008081482F8B81282F30E081E090E0022E10
:1044C00002C0880F991F0A94E2F784278C933DC09D
:1044D000A8E3B0E0E8E3F0E08081482F8B81282F4B
:1044E00030E081E090E0022E02C0880F991F0A940C
:1044F000E2F784278C9329C0A5E3B0E0E5E3F0E080
:104500008081482F8B81282F30E081E090E0022EBF
:1045100002C0880F991F0A94E2F784278C9315C074
:10452000A2E3B0E0E2E3F0E08081482F8B81282F06
:1045300030E081E090E0022E02C0880F991F0A94BB
:10454000E2F784278C9301C0198289810F900F9024
:104550000F900F900F90CF91DF910895DF93CF933D
:1045600000D000D00F92CDB7DEB78A836B8381E095
:1045700089838A81843098F58A81282F30E03D83B1
:104580002C838C819D8181309105D1F02C813D81DE
:10459000223031052CF48C819D81009761F020C080
:1045A0002C813D812230310581F08C819D818330C9
:1045B000910581F015C0EAE3F0E08B81808310C0A3
:1045C000E7E3F0E08B8180830BC0E4E3F0E08B81D4
:1045D000808306C0E1E3F0E08B81808301C0198213
:1045E00089810F900F900F900F900F90CF91DF91D6
:1045F0000895DF93CF9300D000D00F92CDB7DEB7F0
:104600008A836B8381E089838A81843098F58A81EB
:10461000282F30E03D832C838C819D818130910552
:10462000D1F02C813D81223031052CF48C819D818B
:10463000009761F020C02C813D812230310581F04E
:104640008C819D818330910581F015C0EBE3F0E012
:104650008B81808310C0E8E3F0E08B8180830BC006
:10466000E5E3F0E08B81808306C0E2E3F0E08B813C
:10467000808301C0198289810F900F900F900F9055
:104680000F90CF91DF910895DF93CF9300D000D0AA
:1046900000D0CDB7DEB78A837C836B8381E08983CA
:1046A0008A818430D8F58A81282F30E03E832D839B
:1046B0008D819E8181309105E1F02D813E812230F6
:1046C00031052CF48D819E81009761F028C02D81E9
:1046D0003E8122303105A1F08D819E81833091058C
:1046E000B1F01DC0E9E3F0E08081EB81FC818083C3
:1046F00016C0E6E3F0E08081EB81FC8180830FC08F
:10470000E3E3F0E08081EB81FC81808308C0E0E39B
:10471000F0E08081EB81FC81808301C01982898176
:1047200026960FB6F894DEBF0FBECDBFCF91DF91B6
:104730000895DF93CF9300D000D0CDB7DEB78A8342
:1047400081E089838A81843008F03FC08A81282FE4
:1047500030E03C832B838B819C8181309105E9F093
:104760002B813C81223031052CF48B819C81009778
:1047700061F02CC02B813C8122303105B1F08B815E
:104780009C8183309105C9F021C0ABE3B0E0EBE33D
:10479000F0E0808180958C9319C0A8E3B0E0E8E355
:1047A000F0E0808180958C9311C0A5E3B0E0E5E353
:1047B000F0E0808180958C9309C0A2E3B0E0E2E351
:1047C000F0E0808180958C9301C0198289810F90DF
:1047D0000F900F900F90CF91DF910895DF93CF93BB
:1047E00000D000D000D0CDB7DEB78A836B834C8376
:1047F00081E089838A81843008F03EC18B818830D2
:1048000008F03AC18A81282F30E03E832D838D81C4
:104810009E818130910509F45DC02D813E81223059
:1048200031052CF48D819E81009771F026C12D8178
:104830003E812230310509F493C08D819E81833001
:10484000910509F4D3C019C18C81813071F5A0E5BF
:10485000B0E0E0E5F0E080818B7F8C93AAE3B0E0EC
:10486000EAE3F0E08081482F8B81282F30E081E05F
:1048700090E002C0880F991F2A95E2F78095842363
:104880008C93ABE3B0E0EBE3F0E08081482F8B81C9
:10489000282F30E081E090E0022E02C0880F991F9F
:1048A0000A94E2F7842B8C93E8C0ABE3B0E0EBE32F
:1048B000F0E08081482F8B81282F30E081E090E06C
:1048C000022E02C0880F991F0A94E2F78095842374
:1048D0008C93D3C08C81813071F5A0E5B0E0E0E528
:1048E000F0E080818B7F8C93A7E3B0E0E7E3F0E01A
:1048F0008081482F8B81282F30E081E090E002C03A
:10490000880F991F2A95E2F7809584238C93A8E35A
:10491000B0E0E8E3F0E08081482F8B81282F30E081
:1049200081E090E0022E02C0880F991F0A94E2F7FE
:10493000842B8C93A2C0A8E3B0E0E8E3F0E0808190
:10494000482F8B81282F30E081E090E0022E02C0BA
:10495000880F991F0A94E2F7809584238C938DC069
:104960008C81813071F5A0E5B0E0E0E5F0E0808178
:104970008B7F8C93A4E3B0E0E4E3F0E08081482FE8
:104980008B81282F30E081E090E002C0880F991FD2
:104990002A95E2F7809584238C93A5E3B0E0E5E3C4
:1049A000F0E08081482F8B81282F30E081E090E07B
:1049B000022E02C0880F991F0A94E2F7842B8C9371
:1049C0005CC0A5E3B0E0E5E3F0E08081482F8B8197
:1049D000282F30E081E090E0022E02C0880F991F5E
:1049E0000A94E2F7809584238C9347C08C818130B0
:1049F00071F5A0E5B0E0E0E5F0E080818B7F8C937D
:104A0000A1E3B0E0E1E3F0E08081482F8B81282F23
:104A100030E081E090E002C0880F991F2A95E2F70C
:104A2000809584238C93A2E3B0E0E2E3F0E0808100
:104A3000482F8B81282F30E081E090E0022E02C0C9
:104A4000880F991F0A94E2F7842B8C9316C0A2E377
:104A5000B0E0E2E3F0E08081482F8B81282F30E046
:104A600081E090E0022E02C0880F991F0A94E2F7BD
:104A7000809584238C9301C01982898126960FB674
:104A8000F894DEBF0FBECDBFCF91DF910895DF93C5
:104A9000CF9300D000D00F92CDB7DEB78A836B835F
:104AA00081E089838A81843008F063C08B8182959C
:104AB000807F8B838A81282F30E03D832C838C81FB
:104AC0009D818130910529F12C813D812230310574
:104AD0002CF48C819D81009761F04CC02C813D812C
:104AE0002230310531F18C819D818330910589F12E
:104AF00041C0ABE3B0E0EBE3F0E080818F708C93DA
:104B0000ABE3B0E0EBE3F0E090818B81892B8C93F9
:104B100031C0A8E3B0E0E8E3F0E080818F708C93CF
:104B2000A8E3B0E0E8E3F0E090818B81892B8C93DF
:104B300021C0A5E3B0E0E5E3F0E080818F708C93C5
:104B4000A5E3B0E0E5E3F0E090818B81892B8C93C5
:104B500011C0A2E3B0E0E2E3F0E080818F708C93BB
:104B6000A2E3B0E0E2E3F0E090818B81892B8C93AB
:104B700001C0198289810F900F900F900F900F90B4
:104B8000CF91DF910895DF93CF9300D000D00F92A3
:104B9000CDB7DEB78A836B8381E089838A818430D5
:104BA00008F062C08B818F708B838A81282F30E060
:104BB0003D832C838C819D818130910529F12C814D
:104BC0003D81223031052CF48C819D81009761F06C
:104BD0004CC02C813D812230310531F18C819D8189
:104BE0008330910589F141C0ABE3B0E0EBE3F0E045
:104BF0008081807F8C93ABE3B0E0EBE3F0E09081C9
:104C00008B81892B8C9331C0A8E3B0E0E8E3F0E01E
:104C10008081807F8C93A8E3B0E0E8E3F0E09081AE
:104C20008B81892B8C9321C0A5E3B0E0E5E3F0E014
:104C30008081807F8C93A5E3B0E0E5E3F0E0908194
:104C40008B81892B8C9311C0A2E3B0E0E2E3F0E00A
:104C50008081807F8C93A2E3B0E0E2E3F0E090817A
:104C60008B81892B8C9301C0198289810F900F90C1
:104C70000F900F900F90CF91DF910895DF93CF9316
:104C800000D00F92CDB7DEB79A8389836B83EEE3B2
:104C9000F0E089818083EFE3F0E089819A81892FB8
:104CA00099278083EDE3F0E08B818083ACE3B0E073
:104CB000ECE3F0E0808184608C93ACE3B0E0ECE363
:104CC000F0E0808182608C93ECE3F0E08081882FBB
:104CD00090E0827090709595879581309105A1F351
:104CE0000F900F900F90CF91DF910895DF93CF93A6
:104CF00000D0CDB7DEB79A838983EEE3F0E08981F7
:104D00008083EFE3F0E089819A81892F992780835E
:104D1000ACE3B0E0ECE3F0E0808181608C93EDE304
:104D2000F0E080810F900F90CF91DF910895DF9395
:104D3000CF93CDB7DEB783E060E041E00E94EE2381
:104D400083E061E041E00E94EE2383E062E041E025
:104D50000E94EE2383E063E041E00E94EE2383E0C3
:104D600064E041E00E943F1F83E065E041E00E9473
:104D70003F1F83E066E041E00E943F1F83E067E061
:104D800041E00E943F1F83E064E041E00E944E202A
:104D900083E065E041E00E944E2083E066E041E070
:104DA0000E944E2083E067E041E00E944E20CF91B8
:104DB000DF910895DF93CF93CDB7DEB762970FB63B
:104DC000F894DEBF0FBECDBF8FEF898B84E08F8755
:104DD000C9C083E06F8540E00E944E20188AB6C0AB
:104DE0009E012E5E3F4F83E06889A9010E945D21EC
:104DF0008A89882309F0A7C080E090E0A8E4B2E4A3
:104E00008B879C87AD87BE876B857C858D859E85CE
:104E100020E030E04AEF54E40E94830FDC01CB0134
:104E20008F839887A987BA876F81788589859A85C6
:104E300020E030E040E85FE30E94DD1088232CF49E
:104E400081E090E09E838D833FC06F817885898566
:104E50009A8520E03FEF4FE757E40E947D10181637
:104E60004CF56B857C858D859E8520E030E040E2A9
:104E700051E40E94830FDC01CB01BC01CD010E94F3
:104E8000C800DC01CB019E838D830FC088EC90E0CD
:104E90009C838B838B819C810197F1F79C838B830F
:104EA0008D819E8101979E838D838D819E81009748
:104EB00069F714C06F81788589859A850E94C8003A
:104EC000DC01CB019E838D838D819E819A838983B2
:104ED00089819A810197F1F79A8389839E012E5ED9
:104EE0003F4F83E06889A9010E945D218A89882358
:104EF000A9F48889482F50E08F85882F90E09C0185
:104F000024503040CA01880F991F880F991F820FC3
:104F1000931FFC01EA5DFD4F8081898B9E012E5E0F
:104F20003F4F83E06889A9010E945D2108C09E016E
:104F30002E5E3F4F83E06889A9010E945D218A8926
:104F40008823A9F307C088898F5F888B888984307C
:104F500008F446CF83E06F8541E00E944E208F85A4
:104F60008F5F8F878F85883008F433CF8989629669
:104F70000FB6F894DEBF0FBECDBFCF91DF9108957D
:104F80000F931F93DF93CF93CDB7DEB7CC58D040AC
:104F90000FB6F894DEBF0FBECDBF0E9407130E946C
:104FA000972680E690E00E94E61582E061E00E948C
:104FB000DE1C0E94DA2680933702809137028F3FF1
:104FC000C1F32091370280E090E0622F0E943E26DC
:104FD00082E061E00E94DE1CFE01E757FF4F80E0A7
:104FE00090E0AAEFB3E480839183A283B3838E0120
:104FF0000B571F4FFE01E757FF4F60817181828180
:10500000938120E030E04AEF54E40E94830FDC01FA
:10501000CB01F80180839183A283B383FE01EB5718
:10502000FF4F608171818281938120E030E040E810
:105030005FE30E94DD10882344F4FE01ED57FF4F2B
:1050400081E090E09183808364C0FE01EB57FF4FC5
:10505000608171818281938120E03FEF4FE757E4C7
:105060000E947D1018160CF043C0FE01E757FF4F59
:10507000608171818281938120E030E040E251E4DF
:105080000E94830FDC01CB018E010D571F4FBC0125
:10509000CD010E94C800DC01CB01F801918380831F
:1050A0001FC0FE01EF57FF4F88EC90E09183808393
:1050B000FE01EF57FF4F808191810197F1F7FE01CB
:1050C000EF57FF4F91838083DE01AD57BF4FFE0145
:1050D000ED57FF4F80819181019711969C938E939C
:1050E000FE01ED57FF4F808191810097D1F627C0D7
:1050F0008E010D571F4FFE01EB57FF4F60817181ED
:10510000828193810E94C800DC01CB01F801918368
:105110008083DE01A158BF4FFE01ED57FF4F808114
:1051200091818D939C93FE01E158FF4F8081918185
:105130000197F1F7FE01E158FF4F918380838AE2E6
:105140000E949E150E94DA268093370280913702D2
:105150008F3FC1F32091370281E090E0622F0E94DF
:105160003E2682E062E00E94DE1CFE01E558FF4F11
:1051700080E090E0AAEFB3E480839183A283B383BD
:105180008E0109581F4FFE01E558FF4F6081718164
:105190008281938120E030E04AEF54E40E94830F43
:1051A000DC01CB01F80180839183A283B383FE01EC
:1051B000E958FF4F608171818281938120E030E066
:1051C00040E85FE30E94DD10882344F4FE01EB58C1
:1051D000FF4F81E090E09183808364C0FE01E95835
:1051E000FF4F608171818281938120E03FEF4FE723
:1051F00057E40E947D1018160CF043C0FE01E558DC
:10520000FF4F608171818281938120E030E040E234
:1052100051E40E94830FDC01CB018E010B581F4F1C
:10522000BC01CD010E94C800DC01CB01F8019183D3
:1052300080831FC0FE01ED58FF4F88EC90E0918302
:105240008083FE01ED58FF4F808191810197F1F736
:10525000FE01ED58FF4F91838083DE01AB58BF4FB5
:10526000FE01EB58FF4F80819181019711969C932D
:105270008E93FE01EB58FF4F808191810097D1F60C
:1052800027C08E010B581F4FFE01E958FF4F608168
:105290007181828193810E94C800DC01CB01F801F9
:1052A00091838083DE01AF58BF4FFE01EB58FF4F63
:1052B000808191818D939C93FE01EF58FF4F8081F7
:1052C00091810197F1F7FE01EF58FF4F91838083A1
:1052D0008AE20E949E150E94DA268093370280910E
:1052E00037028F3FC1F32091370282E090E0622FB6
:1052F0000E943E2682E063E00E94DE1CFE01E3592C
:10530000FF4F80E090E0AAEFB3E480839183A28313
:10531000B3838E0107591F4FFE01E359FF4F608190
:1053200071818281938120E030E04AEF54E40E9451
:10533000830FDC01CB01F80180839183A283B383C7
:10534000FE01E759FF4F608171818281938120E0E6
:1053500030E040E85FE30E94DD10882344F4FE0162
:10536000E959FF4F81E090E09183808364C0FE01A2
:10537000E759FF4F608171818281938120E03FEF87
:105380004FE757E40E947D1018160CF043C0FE0151
:10539000E359FF4F608171818281938120E030E089
:1053A00040E251E40E94830FDC01CB018E010959D8
:1053B0001F4FBC01CD010E94C800DC01CB01F801E8
:1053C000918380831FC0FE01EB59FF4F88EC90E072
:1053D00091838083FE01EB59FF4F8081918101977A
:1053E000F1F7FE01EB59FF4F91838083DE01A9594C
:1053F000BF4FFE01E959FF4F8081918101971196BE
:105400009C938E93FE01E959FF4F80819181009713
:10541000D1F627C08E0109591F4FFE01E759FF4FF2
:1054200060817181828193810E94C800DC01CB017F
:10543000F80191838083DE01AD59BF4FFE01E95928
:10544000FF4F808191818D939C93FE01ED59FF4F19
:10545000808191810197F1F7FE01ED59FF4F918312
:1054600080838AE20E949E150E94DA26809337028A
:10547000809137028F3FC1F32091370283E090E0A3
:10548000622F0E943E2682E064E00E94DE1CFE0144
:10549000E15AFF4F80E090E0AAEFB3E4808391836C
:1054A000A283B3838E01055A1F4FFE01E15AFF4FBD
:1054B000608171818281938120E030E04AEF54E481
:1054C0000E94830FDC01CB01F80180839183A283CA
:1054D000B383FE01E55AFF4F608171818281938120
:1054E00020E030E040E85FE30E94DD10882344F4D0
:1054F000FE01E75AFF4F81E090E09183808364C012
:10550000FE01E55AFF4F608171818281938120E025
:105510003FEF4FE757E40E947D1018160CF043C090
:10552000FE01E15AFF4F608171818281938120E009
:1055300030E040E251E40E94830FDC01CB018E0198
:10554000075A1F4FBC01CD010E94C800DC01CB01EE
:10555000F801918380831FC0FE01E95AFF4F88EC58
:1055600090E091838083FE01E95AFF4F8081918111
:105570000197F1F7FE01E95AFF4F91838083DE0125
:10558000A75ABF4FFE01E75AFF4F808191810197D3
:1055900011969C938E93FE01E75AFF4F8081918173
:1055A0000097D1F627C08E01075A1F4FFE01E55A1A
:1055B000FF4F60817181828193810E94C800DC016C
:1055C000CB01F80191838083DE01AB5ABF4FFE010E
:1055D000E75AFF4F808191818D939C93FE01EB5A96
:1055E000FF4F808191810197F1F7FE01EB5AFF4F48
:1055F000918380838AE20E949E150E94B61D81E7F6
:1056000090E00E94E61582E061E00E94DE1C81E7E6
:1056100090E00E94E615FE01EF5AFF4F80E090E80F
:10562000ABE3B5E480839183A283B3838E01035BF4
:105630001F4FFE01EF5AFF4F60817181828193817C
:1056400020E030E04AEF54E40E94830FDC01CB01FC
:10565000F80180839183A283B383FE01E35BFF4F54
:10566000608171818281938120E030E040E85FE3D6
:105670000E94DD10882344F4FE01E55BFF4F81E0CA
:1056800090E09183808364C0FE01E35BFF4F608103
:1056900071818281938120E03FEF4FE757E40E94C0
:1056A0007D1018160CF043C0FE01EF5AFF4F6081C9
:1056B00071818281938120E030E040E251E40E94D8
:1056C000830FDC01CB018E01055B1F4FBC01CD01B7
:1056D0000E94C800DC01CB01F801918380831FC0C8
:1056E000FE01E75BFF4F88EC90E091838083FE0131
:1056F000E75BFF4F808191810197F1F7FE01E75B46
:10570000FF4F91838083DE01A55BBF4FFE01E55B08
:10571000FF4F80819181019711969C938E93FE019A
:10572000E55BFF4F808191810097D1F627C08E0104
:10573000055B1F4FFE01E35BFF4F6081718182813A
:1057400093810E94C800DC01CB01F8019183808322
:10575000DE01A95BBF4FFE01E55BFF4F80819181B8
:105760008D939C93FE01E95BFF4F808191810197AE
:10577000F1F7FE01E95BFF4F918380830E94B61D24
:10578000809138028823E1F781E890E00E94E615D5
:1057900082E061E00E94DE1C0E94DA2680933702DC
:1057A000809137028F3FC1F3809137028093390295
:1057B00082E061E00E94DE1CFE01ED5BFF4F80E0B5
:1057C00090E0AAEFB3E480839183A283B3838E0138
:1057D000015C1F4FFE01ED5BFF4F60817181828193
:1057E000938120E030E04AEF54E40E94830FDC0113
:1057F000CB01F80180839183A283B383FE01FF96DE
:10580000608171818281938120E030E040E85FE334
:105810000E94DD1088232CF481E090E09EAF8DAFD4
:1058200046C0FE01FF96608171818281938120E0F4
:105830003FEF4FE757E40E947D10181664F5FE0114
:10584000ED5BFF4F608171818281938120E030E0C8
:1058500040E251E40E94830FDC01CB01BC01CD0189
:105860000E94C800DC01CB019EAF8DAF0FC088EC59
:1058700090E09CAF8BAF8BAD9CAD0197F1F79CAFE7
:105880008BAF8DAD9EAD01979EAF8DAF8DAD9EADB3
:10589000009769F716C0FE01FF96608171818281D1
:1058A00093810E94C800DC01CB019EAF8DAF8DAD0E
:1058B0009EAD9AAF89AF89AD9AAD0197F1F79AAFD6
:1058C00089AF8AE20E949E150E94DA2680933702F1
:1058D000809137028F3FC1F38091370280933A0263
:1058E00082E062E00E94DE1C80E090E0AAEFB3E478
:1058F0008DAB9EABAFABB8AF6DA97EA98FA998ADAC
:1059000020E030E04AEF54E40E94830FDC01CB0139
:1059100089AB9AABABABBCAB69A97AA98BA99CA9A3
:1059200020E030E040E85FE30E94DD1088232CF4A3
:1059300081E090E098AB8FA73FC069A97AA98BA9B5
:105940009CA920E03FEF4FE757E40E947D10181616
:105950004CF56DA97EA98FA998AD20E030E040E21A
:1059600051E40E94830FDC01CB01BC01CD010E94F8
:10597000C800DC01CB0198AB8FA70FC088EC90E08A
:105980009EA78DA78DA59EA50197F1F79EA78DA730
:105990008FA598A9019798AB8FA78FA598A9009775
:1059A00069F714C069A97AA98BA99CA90E94C800AB
:1059B000DC01CB0198AB8FA78FA598A99CA78BA7DB
:1059C0008BA59CA50197F1F79CA78BA78AE20E9463
:1059D0009E150E94DA2680933702809137028F3F0E
:1059E000C1F38091370280933B0280E090E0AAEF00
:1059F000B3E48FA398A7A9A7BAA76FA178A589A593
:105A00009AA520E030E04AEF54E40E94830FDC01C5
:105A1000CB018BA39CA3ADA3BEA36BA17CA18DA145
:105A20009EA120E030E040E85FE30E94DD10882383
:105A30002CF481E090E09AA389A33FC06BA17CA1E4
:105A40008DA19EA120E03FEF4FE757E40E947D101B
:105A500018164CF56FA178A589A59AA520E030E02D
:105A600040E251E40E94830FDC01CB01BC01CD0177
:105A70000E94C800DC01CB019AA389A30FC088EC67
:105A800090E098A38F8F8F8D98A10197F1F798A33D
:105A90008F8F89A19AA101979AA389A389A19AA11D
:105AA000009769F714C06BA17CA18DA19EA10E94F3
:105AB000C800DC01CB019AA389A389A19AA19E8F7A
:105AC0008D8F8D8D9E8D0197F1F79E8F8D8F82E04A
:105AD00063E00E94DE1C8AE20E949E150E94DA2684
