:100000000C942A000C943F000C943F000C943F0089
:100010000C943F000C943F000C943F000C943F0064
:100020000C943F000C943F000C943F000C943F0054
:100030000C943F000C943F000C943F000C943F0044
:100040000C943F000C943F000C943F000C943F0034
:100050000C943F0011241FBECFE5D8E0DEBFCDBF1A
:1000600010E0A0E6B0E0E6EFF5E202C005900D92E8
:10007000A038B107D9F70E94070D0C94F9120C941F
:100080000000EF92FF920F931F937B018C0120E001
:1000900030E040E05FE40E94410388238CF0C80117
:1000A000B70120E030E040E05FE40E94B9010E9427
:1000B000A1039B01AC01205030404040504806C095
:1000C000C801B7010E94A1039B01AC01B901CA019B
:1000D0001F910F91FF90EF900895A0E0B0E0E3E74B
:1000E000F0E00C94C212DC012B01FA019C919230D9
:1000F00008F439C1EB018881823008F433C19430AF
:1001000069F4843009F02FC111969C91119789816F
:10011000981709F428C1A0E6B0E025C1843009F49D
:1001200021C18230A9F4923009F01DC19A01AD01BC
:1001300088E0EA010990AE01E90109929E0181502F
:10014000C1F7E201898111969C918923818308C1BD
:10015000923009F407C112962D903C901397EB0151
:100160008A819B811496AD90BD90CD90DC901797BD
:10017000EC80FD800E811F819101281B390BB90194
:1001800037FF04C066277727621B730B6032710547
:100190000CF061C0121613066CF537014801062EEB
:1001A00004C096948794779467940A94D2F721E0D8
:1001B00030E040E050E004C0220F331F441F551FC1
:1001C0006A95D2F721503040404050402E213F21C7
:1001D00040235123211531054105510521F021E02E
:1001E00030E040E050E079018A01E628F72808294C
:1001F00019293CC0232BD1F1260E371E35014601AB
:10020000062E04C096948794779467940A94D2F744
:1002100021E030E040E050E004C0220F331F441FD3
:10022000551F6A95D2F721503040404050402A2156
:100230003B214C215D21211531054105510521F05E
:1002400021E030E040E050E059016A01A628B728DB
:10025000C828D9280BC0821593052CF01C01AA24AC
:10026000BB24650103C0EE24FF24870111969C91F5
:10027000D20111968C91981709F445C0992339F051
:10028000A80197012A193B094C095D0906C0A6017E
:1002900095012E193F09400B510B57FD08C01182E3
:1002A0003382228224833583468357831DC081E0B5
:1002B00081833382228288279927DC01821B930B5A
:1002C000A40BB50B84839583A683B7830DC0220F3F
:1002D000331F441F551F24833583468357838281F0
:1002E000938101979383828324813581468157814D
:1002F000DA01C9010197A109B1098F5F9F4FAF4F83
:10030000BF4328F30BC0918333822282EA0CFB1C8B
:100310000C1D1D1DE482F5820683178383E0808314
:10032000248135814681578157FF1AC0C901AA2708
:1003300097FDA095BA2F81709070A070B0705695FF
:10034000479537952795822B932BA42BB52B848328
:100350009583A683B7838281938101969383828359
:10036000DF0101C0D201CD01CDB7DEB7E2E10C94CF
:10037000DE12A0E2B0E0EFEBF1E00C94CE12698364
:100380007A838B839C832D833E834F835887E9E058
:10039000EE2EF12CEC0EFD1ECE010196B7010E944F
:1003A000CA048E010F5E1F4FCE010596B8010E9450
:1003B000CA048A8991E089278A8BC701B801AE01F6
:1003C000475E5F4F0E946D000E94F503A096E6E035
:1003D0000C94EA12A0E2B0E0E0EFF1E00C94CE124F
:1003E00069837A838B839C832D833E834F835887D5
:1003F000F9E0EF2EF12CEC0EFD1ECE010196B701B7
:100400000E94CA048E010F5E1F4FCE010596B801EF
:100410000E94CA04C701B801AE01475E5F4F0E9447
:100420006D000E94F503A096E6E00C94EA12A0E2AB
:10043000B0E0EDE1F2E00C94C21269837A838B8321
:100440009C832D833E834F835887CE010196BE0146
:10045000675F7F4F0E94CA04CE010596BE016F5EA2
:100460007F4F0E94CA049985923088F08989823032
:10047000C8F0943019F4823051F404C0843029F467
:10048000923081F480E690E0C6C0923049F420E0DA
:100490009A858A89981321E02A87CE010996BBC0E4
:1004A000823049F420E09A858A89981321E02A8BCA
:1004B000CE014196B0C02D843E844F8458886D880B
:1004C0007E888F88988CEE24FF248701AA24BB2481
:1004D000650140E050E060E070E0E0E0F0E0C10184
:1004E00081709070892BE9F0E60CF71C081D191D2E
:1004F0009A01AB012A0D3B1D4C1D5D1D80E090E073
:10050000A0E0B0E0E614F7040805190520F481E046
:1005100090E0A0E0B0E0BA01A901480F591F6A1F9E
:100520007B1FAA0CBB1CCC1CDD1C97FE08C081E005
:1005300090E0A0E0B0E0A82AB92ACA2ADB2A3196C6
:10054000E032F10549F0660C771C881C991C569422
:10055000479437942794C3CFFA85EA892B893C893D
:100560008B859C85280F391F2E5F3F4F17C0CA010E
:1005700081709070892B61F016950795F794E79438
:1005800080E090E0A0E0B0E8E82AF92A0A2B1B2BD3
:1005900076956795579547952F5F3F4F77FDE7CF46
:1005A0000CC0440F551F661F771F17FD4160EE0CEE
:1005B000FF1C001F111F21503040403090E05907B0
:1005C00090E0690790E4790760F32B8F3C8FDB01A3
:1005D000CA018F779070A070B07080349105A1052A
:1005E000B10561F447FD0AC0E114F10401051105EC
:1005F00029F0405C5F4F6F4F7F4F40781A8EFE1797
:1006000011F081E08A8F4D8F5E8F6F8F78A383E02A
:10061000898FCE0149960E94F503A096E2E10C94E1
:10062000DE12A8E1B0E0E7E1F3E00C94CE126983BA
:100630007A838B839C832D833E834F83588789E005
:10064000E82EF12CEC0EFD1ECE010196B7010E94A2
:10065000CA048E010F5E1F4FCE010596B8010E949D
:10066000CA048985823040F08989823028F0C70128
:10067000B8010E94420501C08FEF6896E6E00C9435
:10068000EA12A8E1B0E0E7E4F3E00C94CE1269834B
:100690007A838B839C832D833E834F83588789E0A5
:1006A000E82EF12CEC0EFD1ECE010196B7010E9442
:1006B000CA048E010F5E1F4FCE010596B8010E943D
:1006C000CA048985823040F08989823028F0C701C8
:1006D000B8010E94420501C08FEF6896E6E00C94D5
:1006E000EA12A8E1B0E0E7E7F3E00C94CE126983E8
:1006F0007A838B839C832D833E834F83588789E045
:10070000E82EF12CEC0EFD1ECE010196B7010E94E1
:10071000CA048E010F5E1F4FCE010596B8010E94DC
:10072000CA048985823040F08989823028F0C70167
:10073000B8010E94420501C081E06896E6E00C9491
:10074000EA12ACE0B0E0E7EAF3E00C94D21269837D
:100750007A838B839C83CE010196BE016B5F7F4FB2
:100760000E94CA048D81823061F1823050F1843060
:1007700021F48E81882351F12EC02F81388537FDD9
:1007800020C06E812F3131051CF06623F9F023C0A3
:100790008EE190E0821B930B29853A854B855C8521
:1007A00004C056954795379527958A95D2F76623C5
:1007B000B1F050954095309521953F4F4F4F5F4F89
:1007C0000EC020E030E040E050E009C02FEF3FEFE6
:1007D0004FEF5FE704C020E030E040E050E8B901AF
:1007E000CA012C96E2E00C94EE12DF92EF92FF9297
:1007F0000F931F93FC01E480F58006811781D1805F
:100800008081823048F480E090E0A0E1B0E0E82A06
:10081000F92A0A2B1B2BA5C0843009F49FC0823013
:1008200021F4EE24FF24870105C0E114F104010541
:10083000110519F4E0E0F0E096C0628173819FEF4A
:10084000623879070CF05BC022E83FEF261B370BBC
:100850002A3131052CF020E030E040E050E02AC0A1
:10086000B801A701022E04C0769567955795479564
:100870000A94D2F781E090E0A0E0B0E004C0880FD5
:10088000991FAA1FBB1F2A95D2F70197A109B10989
:100890008E219F21A023B1230097A105B10521F04E
:1008A00081E090E0A0E0B0E09A01AB01282B392B69
:1008B0004A2B5B2BDA01C9018F779070A070B07062
:1008C00080349105A105B10539F427FF09C0205CEA
:1008D0003F4F4F4F5F4F04C0215C3F4F4F4F5F4F23
:1008E000E0E0F0E02030A0E03A07A0E04A07A0E412
:1008F0005A0710F0E1E0F0E079018A0127C0603882
:10090000710564F5FB01E158FF4FD801C7018F77EE
:100910009070A070B07080349105A105B10539F4D4
:10092000E7FE0DC080E490E0A0E0B0E004C08FE3FB
:1009300090E0A0E0B0E0E80EF91E0A1F1B1F17FFB1
:1009400005C016950795F794E794319687E01695BC
:100950000795F794E7948A95D1F705C0EE24FF2414
:100960008701EFEFF0E06E2F679566276795902F70
:100970009F77D794DD24D7948E2F8695492F462BC9
:10098000582F5D29B701CA011F910F91FF90EF9079
:10099000DF900895FC01DB01408151812281622FAB
:1009A0006F7770E0221F2227221F9381892F880FE3
:1009B000822B282F30E0991F9927991F11969C931D
:1009C000119721153105A9F54115510561057105ED
:1009D00011F482E037C082E89FEF13969C938E93C8
:1009E00012979A01AB0167E0220F331F441F551F76
:1009F0006A95D1F783E08C930DC0220F331F441FFB
:100A0000551F12968D919C911397019713969C9365
:100A10008E931297203080E0380780E0480780E40A
:100A2000580758F314962D933D934D935C93179765
:100A300008952F3F310579F4411551056105710580
:100A400019F484E08C93089564FF03C081E08C93D3
:100A500012C01C9210C02F57304013963C932E9317
:100A6000129783E08C9387E0440F551F661F771F12
:100A70008A95D1F7706414964D935D936D937C9332
:100A8000179708951F93DC01FB019C91923008F4A5
:100A900047C08081823008F443C0943051F41196ED
:100AA0001C91843099F58181682F70E0611B710978
:100AB0003FC0843021F0923031F48230B9F181812D
:100AC000882389F12DC011961C9111978230F1F085
:100AD00081811817D9F412962D913C911397828138
:100AE00093818217930794F028173907BCF0149666
:100AF0008D919D910D90BC91A02D248135814681D1
:100B00005781281739074A075B0718F4112341F06A
:100B10000AC082179307A407B50740F4112319F000
:100B200061E070E005C06FEF7FEF02C060E070E051
:100B3000CB011F910895DF93CF93CDB7DEB72897F0
:100B40000FB6F894DEBF0FBECDBF8A836B834C8394
:100B500081E089838A81843008F0F1C08B818830FC
:100B600008F0EDC08C81813009F06FC08A81282F98
:100B700030E038872F838F8198858130910549F146
:100B80002F813885223031052CF48F81988500978C
:100B900061F0D6C02F8138852230310571F18F8107
:100BA000988583309105E9F1CBC0AAE3B0E0EAE390
:100BB000F0E08081482F8B81282F30E081E090E0A9
:100BC000022E02C0880F991F0A94E2F7842B8C939F
:100BD000B7C0A7E3B0E0E7E3F0E08081482F8B8166
:100BE000282F30E081E090E0022E02C0880F991F8C
:100BF0000A94E2F7842B8C93A3C0A4E3B0E0E4E36F
:100C0000F0E08081482F8B81282F30E081E090E058
:100C1000022E02C0880F991F0A94E2F7842B8C934E
:100C20008FC0A1E3B0E0E1E3F0E08081482F8B8149
:100C3000282F30E081E090E0022E02C0880F991F3B
:100C40000A94E2F7842B8C937BC08C81882309F073
:100C500074C08A81282F30E03E832D838D819E8150
:100C60008130910559F12D813E81223031052CF4DE
:100C70008D819E81009769F063C02D813E81223075
:100C8000310589F18D819E818330910509F440C041
:100C900057C0AAE3B0E0EAE3F0E08081482F8B81FF
:100CA000282F30E081E090E0022E02C0880F991FCB
:100CB0000A94E2F7809584238C9342C0A7E3B0E0C6
:100CC000E7E3F0E08081482F8B81282F30E081E03E
:100CD00090E0022E02C0880F991F0A94E2F78095D7
:100CE00084238C932DC0A4E3B0E0E4E3F0E08081A2
:100CF000482F8B81282F30E081E090E0022E02C047
:100D0000880F991F0A94E2F7809584238C9318C06A
:100D1000A1E3B0E0E1E3F0E08081482F8B81282F50
:100D200030E081E090E0022E02C0880F991F0A9403
:100D3000E2F7809584238C9303C0198201C0198245
:100D4000898128960FB6F894DEBF0FBECDBFCF9134
:100D5000DF910895DF93CF93CDB7DEB728970FB615
:100D6000F894DEBF0FBECDBF8A836B834C8381E0D6
:100D700089838A81843008F0F1C08B81883008F043
:100D8000EDC08C81813009F06FC08A81282F30E05E
:100D900038872F838F8198858130910549F12F8184
:100DA0003885223031052CF48F819885009761F0C9
:100DB000D6C02F8138852230310571F18F81988519
:100DC00083309105E9F1CBC0ABE3B0E0EBE3F0E0B9
:100DD0008081482F8B81282F30E081E090E0022E27
:100DE00002C0880F991F0A94E2F7842B8C93B7C036
:100DF000A8E3B0E0E8E3F0E08081482F8B81282F62
:100E000030E081E090E0022E02C0880F991F0A9422
:100E1000E2F7842B8C93A3C0A5E3B0E0E5E3F0E018
:100E20008081482F8B81282F30E081E090E0022ED6
:100E300002C0880F991F0A94E2F7842B8C938FC00D
:100E4000A2E3B0E0E2E3F0E08081482F8B81282F1D
:100E500030E081E090E0022E02C0880F991F0A94D2
:100E6000E2F7842B8C937BC08C81882309F074C0BB
:100E70008A81282F30E03E832D838D819E818130B1
:100E8000910559F12D813E81223031052CF48D815F
:100E90009E81009769F063C02D813E81223031052B
:100EA00089F18D819E818330910509F440C057C03E
:100EB000ABE3B0E0EBE3F0E08081482F8B81282F9B
:100EC00030E081E090E0022E02C0880F991F0A9462
:100ED000E2F7809584238C9342C0A8E3B0E0E8E376
:100EE000F0E08081482F8B81282F30E081E090E076
:100EF000022E02C0880F991F0A94E2F7809584237E
:100F00008C932DC0A5E3B0E0E5E3F0E08081482FAD
:100F10008B81282F30E081E090E0022E02C0880F04
:100F2000991F0A94E2F7809584238C9318C0A2E35A
:100F3000B0E0E2E3F0E08081482F8B81282F30E0A1
:100F400081E090E0022E02C0880F991F0A94E2F718
:100F5000809584238C9303C0198201C019828981F2
:100F600028960FB6F894DEBF0FBECDBFCF91DF91AC
:100F70000895DF93CF93CDB7DEB727970FB6F894D8
:100F8000DEBF0FBECDBF8A836B835D834C8381E060
:100F900089838A81843008F0A6C08B81883008F06C
:100FA000A2C08A81282F30E03F832E834E815F814B
:100FB00041305105C1F18E819F818230910534F419
:100FC0002E813F812115310571F08EC04E815F81E8
:100FD0004230510509F447C08E819F8183309105CD
:100FE00009F461C081C0E9E3F0E08081482F50E05E
:100FF0008B81282F30E081E090E002C0880F991F9C
:101000002A95E2F79A01282339238B81882F90E0D3
:10101000A90102C0559547958A95E2F7CA01EC816E
:10102000FD81808361C0E6E3F0E08081482F50E0DD
:101030008B81282F30E081E090E002C0880F991F5B
:101040002A95E2F79A01282339238B81882F90E093
:10105000A90102C0559547958A95E2F7CA01EC812E
:10106000FD81808341C0E3E3F0E08081482F50E0C0
:101070008B81282F30E081E090E002C0880F991F1B
:101080002A95E2F79A01282339238B81882F90E053
:10109000A90102C0559547958A95E2F7CA01EC81EE
:1010A000FD81808321C0E0E3F0E08081482F50E0A3
:1010B0008B81282F30E081E090E002C0880F991FDB
:1010C0002A95E2F79A01282339238B81882F90E013
:1010D000A90102C0559547958A95E2F7CA01EC81AE
:1010E000FD81808301C01982898127960FB6F8940B
:1010F000DEBF0FBECDBFCF91DF910895DF93CF93B9
:1011000000D000D00F92CDB7DEB78A836B8381E029
:1011100089838A81843008F073C08B81883008F01D
:101120006FC08A81282F30E03D832C838C819D8184
:101130008130910549F12C813D81223031052CF41B
:101140008C819D81009761F05CC02C813D812230B3
:10115000310571F18C819D8183309105E9F151C098
:10116000ABE3B0E0EBE3F0E08081482F8B81282FE8
:1011700030E081E090E0022E02C0880F991F0A94AF
:10118000E2F784278C933DC0A8E3B0E0E8E3F0E009
:101190008081482F8B81282F30E081E090E0022E63
:1011A00002C0880F991F0A94E2F784278C9329C004
:1011B000A5E3B0E0E5E3F0E08081482F8B81282FA4
:1011C00030E081E090E0022E02C0880F991F0A945F
:1011D000E2F784278C9315C0A2E3B0E0E2E3F0E0ED
:1011E0008081482F8B81282F30E081E090E0022E13
:1011F00002C0880F991F0A94E2F784278C9301C0DC
:10120000198289810F900F900F900F900F90CF91BE
:10121000DF910895DF93CF9300D000D00F92CDB728
:10122000DEB78A836B8381E089838A81843098F575
:101230008A81282F30E03D832C838C819D818130F1
:101240009105D1F02C813D81223031052CF48C8127
:101250009D81009761F020C02C813D8122303105B5
:1012600081F08C819D818330910581F015C0EAE386
:10127000F0E08B81808310C0E7E3F0E08B81808316
:101280000BC0E4E3F0E08B81808306C0E1E3F0E093
:101290008B81808301C0198289810F900F900F90FC
:1012A0000F900F90CF91DF910895DF93CF9300D0EF
:1012B00000D00F92CDB7DEB78A836B8381E089833C
:1012C0008A81843098F58A81282F30E03D832C83F1
:1012D0008C819D8181309105D1F02C813D8122301E
:1012E00031052CF48C819D81009761F020C02C8108
:1012F0003D812230310581F08C819D8183309105C3
:1013000081F015C0EBE3F0E08B81808310C0E8E34F
:10131000F0E08B8180830BC0E5E3F0E08B8180837C
:1013200006C0E2E3F0E08B81808301C019828981ED
:101330000F900F900F900F900F90CF91DF91089525
:10134000DF93CF9300D000D000D0CDB7DEB78A8333
:101350007C836B8381E089838A818430D8F58A819C
:10136000282F30E03E832D838D819E818130910531
:10137000E1F02D813E81223031052CF48D819E815A
:10138000009761F028C02D813E8122303105A1F007
:101390008D819E8183309105B1F01DC0E9E3F0E0BD
:1013A0008081EB81FC81808316C0E6E3F0E08081E0
:1013B000EB81FC8180830FC0E3E3F0E08081EB816F
:1013C000FC81808308C0E0E3F0E08081EB81FC8158
:1013D000808301C01982898126960FB6F894DEBFFA
:1013E0000FBECDBFCF91DF910895DF93CF9300D093
:1013F00000D0CDB7DEB78A8381E089838A818430CB
:1014000008F03FC08A81282F30E03C832B838B81FA
:101410009C8181309105E9F02B813C81223031059E
:101420002CF48B819C81009761F02CC02B813C8136
:1014300022303105B1F08B819C8183309105C9F058
:1014400021C0ABE3B0E0EBE3F0E0808180958C93CA
:1014500019C0A8E3B0E0E8E3F0E0808180958C93C8
:1014600011C0A5E3B0E0E5E3F0E0808180958C93C6
:1014700009C0A2E3B0E0E2E3F0E0808180958C93C4
:1014800001C0198289810F900F900F900F90CF911A
:10149000DF910895DF93CF9300D000D000D0CDB777
:1014A000DEB78A836B834C8381E089838A818430B1
:1014B00008F03EC18B81883008F03AC18A81282F1C
:1014C00030E03E832D838D819E818130910509F42A
:1014D0005DC02D813E81223031052CF48D819E81AD
:1014E000009771F026C12D813E812230310509F42B
:1014F00093C08D819E818330910509F4D3C019C1B9
:101500008C81813071F5A0E5B0E0E0E5F0E080810C
:101510008B7F8C93AAE3B0E0EAE3F0E08081482F70
:101520008B81282F30E081E090E002C0880F991F66
:101530002A95E2F7809584238C93ABE3B0E0EBE34C
:10154000F0E08081482F8B81282F30E081E090E00F
:10155000022E02C0880F991F0A94E2F7842B8C9305
:10156000E8C0ABE3B0E0EBE3F0E08081482F8B8193
:10157000282F30E081E090E0022E02C0880F991FF2
:101580000A94E2F7809584238C93D3C08C818130B8
:1015900071F5A0E5B0E0E0E5F0E080818B7F8C9311
:1015A000A7E3B0E0E7E3F0E08081482F8B81282FAC
:1015B00030E081E090E002C0880F991F2A95E2F7A1
:1015C000809584238C93A8E3B0E0E8E3F0E0808189
:1015D000482F8B81282F30E081E090E0022E02C05E
:1015E000880F991F0A94E2F7842B8C93A2C0A8E37A
:1015F000B0E0E8E3F0E08081482F8B81282F30E0D5
:1016000081E090E0022E02C0880F991F0A94E2F751
:10161000809584238C938DC08C81813071F5A0E5F9
:10162000B0E0E0E5F0E080818B7F8C93A4E3B0E054
:10163000E4E3F0E08081482F8B81282F30E081E0C7
:1016400090E002C0880F991F2A95E2F780958423C5
:101650008C93A5E3B0E0E5E3F0E08081482F8B8137
:10166000282F30E081E090E0022E02C0880F991F01
:101670000A94E2F7842B8C935CC0A5E3B0E0E5E329
:10168000F0E08081482F8B81282F30E081E090E0CE
:10169000022E02C0880F991F0A94E2F780958423D6
:1016A0008C9347C08C81813071F5A0E5B0E0E0E516
:1016B000F0E080818B7F8C93A1E3B0E0E1E3F0E088
:1016C0008081482F8B81282F30E081E090E002C09C
:1016D000880F991F2A95E2F7809584238C93A2E3C3
:1016E000B0E0E2E3F0E08081482F8B81282F30E0EA
:1016F00081E090E0022E02C0880F991F0A94E2F761
:10170000842B8C9316C0A2E3B0E0E2E3F0E080818A
:10171000482F8B81282F30E081E090E0022E02C01C
:10172000880F991F0A94E2F7809584238C9301C057
:101730001982898126960FB6F894DEBF0FBECDBF01
:10174000CF91DF910895DF93CF9300D000D00F9217
:10175000CDB7DEB78A836B8381E089838A81843049
:1017600008F063C08B818295807F8B838A81282FCC
:1017700030E03D832C838C819D818130910529F15E
:101780002C813D81223031052CF48C819D81009784
:1017900061F04CC02C813D812230310531F18C81CA
:1017A0009D818330910589F141C0ABE3B0E0EBE36B
:1017B000F0E080818F708C93ABE3B0E0EBE3F0E07E
:1017C00090818B81892B8C9331C0A8E3B0E0E8E352
:1017D000F0E080818F708C93A8E3B0E0E8E3F0E064
:1017E00090818B81892B8C9321C0A5E3B0E0E5E348
:1017F000F0E080818F708C93A5E3B0E0E5E3F0E04A
:1018000090818B81892B8C9311C0A2E3B0E0E2E33D
:10181000F0E080818F708C93A2E3B0E0E2E3F0E02F
:1018200090818B81892B8C9301C0198289810F90C3
:101830000F900F900F900F90CF91DF910895DF934D
:10184000CF9300D000D00F92CDB7DEB78A836B83E1
:1018500081E089838A81843008F062C08B818F7037
:101860008B838A81282F30E03D832C838C819D815E
:101870008130910529F12C813D81223031052CF4F4
:101880008C819D81009761F04CC02C813D8122307C
:10189000310531F18C819D818330910589F141C001
:1018A000ABE3B0E0EBE3F0E08081807F8C93ABE3CF
:1018B000B0E0EBE3F0E090818B81892B8C9331C019
:1018C000A8E3B0E0E8E3F0E08081807F8C93A8E3B8
:1018D000B0E0E8E3F0E090818B81892B8C9321C00C
:1018E000A5E3B0E0E5E3F0E08081807F8C93A5E3A1
:1018F000B0E0E5E3F0E090818B81892B8C9311C0FF
:10190000A2E3B0E0E2E3F0E08081807F8C93A2E389
:10191000B0E0E2E3F0E090818B81892B8C9301C0F1
:10192000198289810F900F900F900F900F90CF9197
:10193000DF910895DF93CF9300D00F92CDB7DEB73C
:1019400069837A838B8389819A81692F41E00E9420
:101950009B050F900F900F90CF91DF910895DF932B
:10196000CF9300D00F92CDB7DEB769837A838B8394
:101970008B81813039F489819A81692F41E00E94FD
:10198000AA0609C08B81882331F489819A81692F45
:1019900040E00E94AA060F900F900F90CF91DF9128
:1019A0000895DF93CF9300D00F92CDB7DEB7698350
:1019B0007A838B838B81813039F489819A81692F75
:1019C00040E00E94AA0609C08B81882331F48981F6
:1019D0009A81692F41E00E94AA060F900F900F9004
:1019E000CF91DF910895DF93CF9300D00F92CDB7C1
:1019F000DEB769837A838B8389819A81692F0E94FC
:101A00007E080F900F900F90CF91DF910895DF9394
:101A1000CF93CDB7DEB7CE59D0400FB6F894DEBF26
:101A20000FBECDBFCE014F9661969FAF8EAF61972F
:101A3000ADE7B0E06396BFAFAEAF6397B3E0649637
:101A4000BFAF64976396EEADFFAD6397008063967A
:101A50008EAD9FAD6397019663969FAF8EAF6397F0
:101A60006196AEADBFAD61970C926196EEADFFADE4
:101A7000619731966196FFAFEEAF61976496FFADC7
:101A80006497F1506496FFAF649764968FAD649746
:101A90008823C1F6DE0192966696BFAFAEAF669719
:101AA000EAE7F0E06896FFAFEEAF6897F3E069967B
:101AB000FFAF69976896AEADBFAD68970C9068961A
:101AC000EEADFFAD689731966896FFAFEEAF6897C1
:101AD0006696AEADBFAD66970C926696EEADFFAD65
:101AE000669731966696FFAFEEAF66976996FFAD43
:101AF0006997F1506996FFAF699769968FAD6997BD
:101B00008823C1F6DE0195966B96BFAFAEAF6B979B
:101B1000E7E7F0E06D96FFAFEEAF6D97F3E06E96FE
:101B2000FFAF6E976D96AEADBFAD6D970C906D9695
:101B3000EEADFFAD6D9731966D96FFAFEEAF6D9741
:101B40006B96AEADBFAD6B970C926B96EEADFFADE5
:101B50006B9731966B96FFAFEEAF6B976E96FFADBE
:101B60006E97F1506E96FFAF6E976E968FAD6E9733
:101B70008823C1F6DE019896A096BFAFAEAFA097BE
:101B8000E4E7F0E0A296FFAFEEAFA297F3E0A396F2
:101B9000FFAFA397A296AEADBFADA2970C90A29651
:101BA000EEADFFADA2973196A296FFAFEEAFA29732
:101BB000A096AEADBFADA0970C92A096EEADFFADD6
:101BC000A0973196A096FFAFEEAFA097A396FFAD7A
:101BD000A397F150A396FFAFA397A3968FADA397BA
:101BE0008823C1F6DE019B96A596BFAFAEAFA59741
:101BF000E1E7F0E0A796FFAFEEAFA797F3E0A89676
:101C0000FFAFA897A796AEADBFADA7970C90A796CC
:101C1000EEADFFADA7973196A796FFAFEEAFA797B2
:101C2000A596AEADBFADA5970C92A596EEADFFAD56
:101C3000A5973196A596FFAFEEAFA597A896FFADF5
:101C4000A897F150A896FFAFA897A8968FADA89730
:101C50008823C1F6DE019E96AA96BFAFAEAFAA97C3
:101C6000EEE6F0E0AC96FFAFEEAFAC97F3E0AD96EA
:101C7000FFAFAD97AC96AEADBFADAC970C90AC9648
:101C8000EEADFFADAC973196AC96FFAFEEAFAC9733
:101C9000AA96AEADBFADAA970C92AA96EEADFFADD7
:101CA000AA973196AA96FFAFEEAFAA97AD96FFAD71
:101CB000AD97F150AD96FFAFAD97AD968FADAD97A7
:101CC0008823C1F6DE01D196AF96BFAFAEAFAF9716
:101CD000EBE6F0E0E196FFAFEEAFE197F3E0E296DE
:101CE000FFAFE297E196AEADBFADE1970C90E19604
:101CF000EEADFFADE1973196E196FFAFEEAFE19724
:101D0000AF96AEADBFADAF970C92AF96EEADFFAD57
:101D1000AF973196AF96FFAFEEAFAF97E296FFADBC
:101D2000E297F150E296FFAFE297E2968FADE2972D
:101D30008823C1F6DE01D496E496BFAFAEAFE49738
:101D4000E8E6F0E0E696FFAFEEAFE697F3E0E79661
:101D5000FFAFE797E696AEADBFADE6970C90E6967F
:101D6000EEADFFADE6973196E696FFAFEEAFE697A4
:101D7000E496AEADBFADE4970C92E496EEADFFAD48
:101D8000E4973196E496FFAFEEAFE497E796FFADA8
:101D9000E797F150E796FFAFE797E7968FADE797A4
:101DA0008823C1F66F8D78A189A10E949A0C6AA13F
:101DB0007BA18CA10E949A0C6DA17EA18FA10E9493
:101DC0009A0C68A579A58AA50E949A0C6BA57CA59A
:101DD0008DA50E949A0C6EA57FA588A90E949A0CD9
:101DE00069A97AA98BA90E949A0C6CA97DA98EA9D0
:101DF0000E949A0C88E1FE01F796DF01982F1D9250
:101E00009A95E9F7DE01D796E996BFAFAEAFE997AD
:101E1000FE017F96EB96FFAFEEAFEB97F3E0EC960B
:101E2000FFAFEC97EB96AEADBFADEB970C90EB969A
:101E3000EEADFFADEB973196EB96FFAFEEAFEB97C4
:101E4000E996AEADBFADE9970C92E996EEADFFAD68
:101E5000E9973196E996FFAFEEAFE997EC96FFADC3
:101E6000EC97F150EC96FFAFEC97EC968FADEC97BA
:101E70008823C1F6DE01DA96EE96BFAFAEAFEE97DD
:101E8000FE01B296C258DF4FF983E883CE57D040A7
:101E9000F3E0C058DF4FF883C058D040C258DF4F3E
:101EA000A881B981CE57D0400C90C258DF4FE8814D
:101EB000F981CE57D0403196C258DF4FF983E8837D
:101EC000CE57D040EE96AEADBFADEE970C92EE96EB
:101ED000EEADFFADEE973196EE96FFAFEEAFEE971B
:101EE000C058DF4FF881C058D040F150C058DF4F84
:101EF000F883C058D040C058DF4F8881C058D040C8
:101F0000882361F6DE01DD96CF57DF4FB983A883C2
:101F1000C158D040FE01B596CD57DF4FF983E88315
:101F2000C358D040F3E0CB57DF4FF883C558D040BB
:101F3000CD57DF4FA881B981C358D0400C90CD5701
:101F4000DF4FE881F981C358D0403196CD57DF4F3C
:101F5000F983E883C358D040CF57DF4FA881B981B8
:101F6000C158D0400C92CF57DF4FE881F981C1585A
:101F7000D0403196CF57DF4FF983E883C158D04026
:101F8000CB57DF4FF881C558D040F150CB57DF4FCA
:101F9000F883C558D040CB57DF4F8881C558D04013
:101FA000882331F6DE01A05CBF4FCA57DF4FB983EB
:101FB000A883C658D040FE01B896C857DF4FF983B2
:101FC000E883C858D040F3E0C657DF4FF883CA58BB
:101FD000D040C857DF4FA881B981C858D0400C9075
:101FE000C857DF4FE881F981C858D0403196C857AB
:101FF000DF4FF983E883C858D040CA57DF4FA88124
:10200000B981C658D0400C92CA57DF4FE881F98198
:10201000C658D0403196CA57DF4FF983E883C65877
:10202000D040C657DF4FF881CA58D040F150C6574C
:10203000DF4FF883CA58D040C657DF4F8881CA584F
:10204000D040882331F6CE018D5B9F4FC557DF4FBF
:1020500099838883CB58D040DE019B96C357DF4FCE
:10206000B983A883CD58D040B3E0C157DF4FB883C0
:10207000CF58D040C357DF4FE881F981CD58D040C9
:102080000080C357DF4F88819981CD58D040019699
:10209000C357DF4F99838883CD58D040C557DF4F52
:1020A000A881B981CB58D0400C92C557DF4FE88149
:1020B000F981CB58D0403196C557DF4FF983E8837B
:1020C000CB58D040C157DF4FF881CF58D040F150A6
:1020D000C157DF4FF883CF58D040C157DF4F8881B9
:1020E000CF58D040882331F6CE018A5B9F4FC0572E
:1020F000DF4F99838883C059D040DE019E96CE562B
:10210000DF4FB983A883C259D040B3E0CC56DF4F2C
:10211000B883C459D040CE56DF4FE881F981C25907
:10212000D0400080CE56DF4F88819981C259D0407F
:102130000196CE56DF4F99838883C259D040C0574D
:10214000DF4FA881B981C059D0400C92C057DF4FF2
:10215000E881F981C059D0403196C057DF4FF983EB
:10216000E883C059D040CC56DF4FF881C459D040E5
:10217000F150CC56DF4FF883C459D040CC56DF4FD6
:102180008881C459D040882331F6CE01875B9F4FA8
:10219000CB56DF4F99838883C559D040DE01D19655
:1021A000C956DF4FB983A883C759D040B3E0C7569B
:1021B000DF4FB883C959D040C956DF4FE881F98154
:1021C000C759D0400080C956DF4F88819981C759CF
:1021D000D0400196C956DF4F99838883C759D040B4
:1021E000CB56DF4FA881B981C559D0400C92CB5650
:1021F000DF4FE881F981C559D0403196CB56DF4F8A
:10220000F983E883C559D040C756DF4FF881C959D3
:10221000D040F150C756DF4FF883C959D040C75658
:10222000DF4F8881C959D040882331F6CE01845BC5
:102230009F4FC656DF4F99838883CA59D040DE012D
:10224000D496C456DF4FB983A883CC59D040B3E0AD
:10225000C256DF4FB883CE59D040C456DF4FE88115
:10226000F981CC59D0400080C456DF4F88819981D4
:10227000CC59D0400196C456DF4F99838883CC59FE
:10228000D040C656DF4FA881B981CA59D0400C92C0
:10229000C656DF4FE881F981CA59D0403196C656FB
:1022A000DF4FF983E883CA59D040C256DF4FF88127
:1022B000CE59D040F150C256DF4FF883CE59D040AE
:1022C000C256DF4F8881CE59D040882331F683E053
:1022D0008D8F84E08E8FA4C08D8D282F332727FD0E
:1022E0003095C901880F991F820F931F9E012F5FA0
:1022F0003F4F820F931FFC01F696608171818281AE
:102300000E94AF0C8E8D282F332727FD3095C901F1
:10231000880F991F820F931F9E012F5F3F4F820FDF
:10232000931FFC01F6966081718182810E94AF0C3F
:1023300080E090E0A8ECB2E4898F9A8FAB8FBC8FDD
:10234000698D7A8D8B8D9C8D20E030E04AEF54E4CE
:102350000E941702DC01CB018D8B9E8BAF8BB88F57
:102360006D897E898F89988D20E030E040E85FE3B9
:102370000E94710388232CF481E090E09C8B8B8B6E
:102380003FC06D897E898F89988D20E03FEF4FE7B0
:1023900057E40E94110318164CF5698D7A8D8B8DC8
:1023A0009C8D20E030E040E251E40E941702DC0105
:1023B000CB01BC01CD010E944100DC01CB019C8B13
:1023C0008B8B0FC088EC90E09A8B898B89899A89D6
:1023D0000197F1F79A8B898B8B899C8901979C8B4C
:1023E0008B8B8B899C89009769F714C06D897E89D6
:1023F0008F89988D0E944100DC01CB019C8B8B8BD7
:102400008B899C89988B8F878F8598890197F1F7A5
:10241000988B8F878D8D81508D8F8E8D8F5F8E8F56
:102420008E8D89300CF458CF83E08D8F84E08E8FB1
:10243000A4C08D8D282F332727FD3095C901880F23
:10244000991F820F931F9E012F5F3F4F820F931F93
:10245000FC01F6966081718182810E94D10C8E8D83
:10246000282F332727FD3095C901880F991F820F28
:10247000931F9E012F5F3F4F820F931FFC01F69623
:102480006081718182810E94D10C80E090E0A8EC93
:10249000B2E48B879C87AD87BE876B857C858D85F5
:1024A0009E8520E030E04AEF54E40E941702DC01F0
:1024B000CB018F839887A987BA876F8178858985B3
:1024C0009A8520E030E040E85FE30E9471038823B2
:1024D0002CF481E090E09E838D833FC06F817885EE
:1024E00089859A8520E03FEF4FE757E40E9411036A
:1024F00018164CF56B857C858D859E8520E030E037
:1025000040E251E40E941702DC01CB01BC01CD0185
:102510000E944100DC01CB019E838D830FC088ECBB
:1025200090E09C838B838B819C810197F1F79C8346
:102530008B838D819E8101979E838D838D819E816A
:10254000009769F714C06F81788589859A850E9404
:102550004100DC01CB019E838D838D819E819A8316
:10256000898389819A810197F1F79A8389838D8D77
:1025700081508D8F8E8D8F5F8E8F8E8D89300CF474
:1025800058CFA5CE2F923F924F925F926F927F923B
:102590008F929F92AF92BF92CF92DF92EF92FF9273
:1025A0000F931F93CF93DF93CDB7DEB7CA1BDB0B1F
:1025B0000FB6F894DEBF0FBECDBF09942A883988C4
:1025C00048885F846E847D848C849B84AA84B984CB
:1025D000C884DF80EE80FD800C811B81AA81B981D7
:1025E000CE0FD11D0FB6F894DEBF0FBECDBFED01EB
:0625F0000895F894FFCFEE
:1025F60000000000000000000007010006010005C1
:1026060001000401000301000201000101000001B4
:00000001FF
