:100000000C942A000C943F000C943F000C943F0089
:100010000C943F000C943F000C943F000C943F0064
:100020000C943F000C943F000C943F000C943F0054
:100030000C943F000C943F000C943F000C943F0044
:100040000C943F000C943F000C943F000C943F0034
:100050000C943F0011241FBECFE5D8E0DEBFCDBF1A
:1000600010E0A0E6B0E0E4EAF8E202C005900D92EC
:10007000AA38B107D9F70E94A70D0C9450140C941C
:100080000000EF92FF920F931F937B018C0120E001
:1000900030E040E05FE40E94410388238CF0C80117
:1000A000B70120E030E040E05FE40E94B9010E9427
:1000B000A1039B01AC01205030404040504806C095
:1000C000C801B7010E94A1039B01AC01B901CA019B
:1000D0001F910F91FF90EF900895A0E0B0E0E3E74B
:1000E000F0E00C941914DC012B01FA019C91923080
:1000F00008F439C1EB018881823008F433C19430AF
:1001000069F4843009F02FC111969C91119789816F
:10011000981709F428C1A0E6B0E025C1843009F49D
:1001200021C18230A9F4923009F01DC19A01AD01BC
:1001300088E0EA010990AE01E90109929E0181502F
:10014000C1F7E201898111969C918923818308C1BD
:10015000923009F407C112962D903C901397EB0151
:100160008A819B811496AD90BD90CD90DC901797BD
:10017000EC80FD800E811F819101281B390BB90194
:1001800037FF04C066277727621B730B6032710547
:100190000CF061C0121613066CF537014801062EEB
:1001A00004C096948794779467940A94D2F721E0D8
:1001B00030E040E050E004C0220F331F441F551FC1
:1001C0006A95D2F721503040404050402E213F21C7
:1001D00040235123211531054105510521F021E02E
:1001E00030E040E050E079018A01E628F72808294C
:1001F00019293CC0232BD1F1260E371E35014601AB
:10020000062E04C096948794779467940A94D2F744
:1002100021E030E040E050E004C0220F331F441FD3
:10022000551F6A95D2F721503040404050402A2156
:100230003B214C215D21211531054105510521F05E
:1002400021E030E040E050E059016A01A628B728DB
:10025000C828D9280BC0821593052CF01C01AA24AC
:10026000BB24650103C0EE24FF24870111969C91F5
:10027000D20111968C91981709F445C0992339F051
:10028000A80197012A193B094C095D0906C0A6017E
:1002900095012E193F09400B510B57FD08C01182E3
:1002A0003382228224833583468357831DC081E0B5
:1002B00081833382228288279927DC01821B930B5A
:1002C000A40BB50B84839583A683B7830DC0220F3F
:1002D000331F441F551F24833583468357838281F0
:1002E000938101979383828324813581468157814D
:1002F000DA01C9010197A109B1098F5F9F4FAF4F83
:10030000BF4328F30BC0918333822282EA0CFB1C8B
:100310000C1D1D1DE482F5820683178383E0808314
:10032000248135814681578157FF1AC0C901AA2708
:1003300097FDA095BA2F81709070A070B0705695FF
:10034000479537952795822B932BA42BB52B848328
:100350009583A683B7838281938101969383828359
:10036000DF0101C0D201CD01CDB7DEB7E2E10C94CF
:100370003514A0E2B0E0EFEBF1E00C9425146983B2
:100380007A838B839C832D833E834F835887E9E058
:10039000EE2EF12CEC0EFD1ECE010196B7010E944F
:1003A000CA048E010F5E1F4FCE010596B8010E9450
:1003B000CA048A8991E089278A8BC701B801AE01F6
:1003C000475E5F4F0E946D000E94F503A096E6E035
:1003D0000C944114A0E2B0E0E0EFF1E00C9425149D
:1003E00069837A838B839C832D833E834F835887D5
:1003F000F9E0EF2EF12CEC0EFD1ECE010196B701B7
:100400000E94CA048E010F5E1F4FCE010596B801EF
:100410000E94CA04C701B801AE01475E5F4F0E9447
:100420006D000E94F503A096E6E00C944114A0E252
:10043000B0E0EDE1F2E00C94191469837A838B83C8
:100440009C832D833E834F835887CE010196BE0146
:10045000675F7F4F0E94CA04CE010596BE016F5EA2
:100460007F4F0E94CA049985923088F08989823032
:10047000C8F0943019F4823051F404C0843029F467
:10048000923081F480E690E0C6C0923049F420E0DA
:100490009A858A89981321E02A87CE010996BBC0E4
:1004A000823049F420E09A858A89981321E02A8BCA
:1004B000CE014196B0C02D843E844F8458886D880B
:1004C0007E888F88988CEE24FF248701AA24BB2481
:1004D000650140E050E060E070E0E0E0F0E0C10184
:1004E00081709070892BE9F0E60CF71C081D191D2E
:1004F0009A01AB012A0D3B1D4C1D5D1D80E090E073
:10050000A0E0B0E0E614F7040805190520F481E046
:1005100090E0A0E0B0E0BA01A901480F591F6A1F9E
:100520007B1FAA0CBB1CCC1CDD1C97FE08C081E005
:1005300090E0A0E0B0E0A82AB92ACA2ADB2A3196C6
:10054000E032F10549F0660C771C881C991C569422
:10055000479437942794C3CFFA85EA892B893C893D
:100560008B859C85280F391F2E5F3F4F17C0CA010E
:1005700081709070892B61F016950795F794E79438
:1005800080E090E0A0E0B0E8E82AF92A0A2B1B2BD3
:1005900076956795579547952F5F3F4F77FDE7CF46
:1005A0000CC0440F551F661F771F17FD4160EE0CEE
:1005B000FF1C001F111F21503040403090E05907B0
:1005C00090E0690790E4790760F32B8F3C8FDB01A3
:1005D000CA018F779070A070B07080349105A1052A
:1005E000B10561F447FD0AC0E114F10401051105EC
:1005F00029F0405C5F4F6F4F7F4F40781A8EFE1797
:1006000011F081E08A8F4D8F5E8F6F8F78A383E02A
:10061000898FCE0149960E94F503A096E2E10C94E1
:100620003514A8E1B0E0E7E1F3E00C942514698308
:100630007A838B839C832D833E834F83588789E005
:10064000E82EF12CEC0EFD1ECE010196B7010E94A2
:10065000CA048E010F5E1F4FCE010596B8010E949D
:10066000CA048985823040F08989823028F0C70128
:10067000B8010E94420501C08FEF6896E6E00C9435
:100680004114A8E1B0E0E7E4F3E00C942514698399
:100690007A838B839C832D833E834F83588789E0A5
:1006A000E82EF12CEC0EFD1ECE010196B7010E9442
:1006B000CA048E010F5E1F4FCE010596B8010E943D
:1006C000CA048985823040F08989823028F0C701C8
:1006D000B8010E94420501C08FEF6896E6E00C94D5
:1006E0004114A8E1B0E0E7E7F3E00C942514698336
:1006F0007A838B839C832D833E834F83588789E045
:10070000E82EF12CEC0EFD1ECE010196B7010E94E1
:10071000CA048E010F5E1F4FCE010596B8010E94DC
:10072000CA048985823040F08989823028F0C70167
:10073000B8010E94420501C081E06896E6E00C9491
:100740004114ACE0B0E0E7EAF3E00C9429146983CB
:100750007A838B839C83CE010196BE016B5F7F4FB2
:100760000E94CA048D81823061F1823050F1843060
:1007700021F48E81882351F12EC02F81388537FDD9
:1007800020C06E812F3131051CF06623F9F023C0A3
:100790008EE190E0821B930B29853A854B855C8521
:1007A00004C056954795379527958A95D2F76623C5
:1007B000B1F050954095309521953F4F4F4F5F4F89
:1007C0000EC020E030E040E050E009C02FEF3FEFE6
:1007D0004FEF5FE704C020E030E040E050E8B901AF
:1007E000CA012C96E2E00C944514DF92EF92FF923E
:1007F0000F931F93FC01E480F58006811781D1805F
:100800008081823048F480E090E0A0E1B0E0E82A06
:10081000F92A0A2B1B2BA5C0843009F49FC0823013
:1008200021F4EE24FF24870105C0E114F104010541
:10083000110519F4E0E0F0E096C0628173819FEF4A
:10084000623879070CF05BC022E83FEF261B370BBC
:100850002A3131052CF020E030E040E050E02AC0A1
:10086000B801A701022E04C0769567955795479564
:100870000A94D2F781E090E0A0E0B0E004C0880FD5
:10088000991FAA1FBB1F2A95D2F70197A109B10989
:100890008E219F21A023B1230097A105B10521F04E
:1008A00081E090E0A0E0B0E09A01AB01282B392B69
:1008B0004A2B5B2BDA01C9018F779070A070B07062
:1008C00080349105A105B10539F427FF09C0205CEA
:1008D0003F4F4F4F5F4F04C0215C3F4F4F4F5F4F23
:1008E000E0E0F0E02030A0E03A07A0E04A07A0E412
:1008F0005A0710F0E1E0F0E079018A0127C0603882
:10090000710564F5FB01E158FF4FD801C7018F77EE
:100910009070A070B07080349105A105B10539F4D4
:10092000E7FE0DC080E490E0A0E0B0E004C08FE3FB
:1009300090E0A0E0B0E0E80EF91E0A1F1B1F17FFB1
:1009400005C016950795F794E794319687E01695BC
:100950000795F794E7948A95D1F705C0EE24FF2414
:100960008701EFEFF0E06E2F679566276795902F70
:100970009F77D794DD24D7948E2F8695492F462BC9
:10098000582F5D29B701CA011F910F91FF90EF9079
:10099000DF900895FC01DB01408151812281622FAB
:1009A0006F7770E0221F2227221F9381892F880FE3
:1009B000822B282F30E0991F9927991F11969C931D
:1009C000119721153105A9F54115510561057105ED
:1009D00011F482E037C082E89FEF13969C938E93C8
:1009E00012979A01AB0167E0220F331F441F551F76
:1009F0006A95D1F783E08C930DC0220F331F441FFB
:100A0000551F12968D919C911397019713969C9365
:100A10008E931297203080E0380780E0480780E40A
:100A2000580758F314962D933D934D935C93179765
:100A300008952F3F310579F4411551056105710580
:100A400019F484E08C93089564FF03C081E08C93D3
:100A500012C01C9210C02F57304013963C932E9317
:100A6000129783E08C9387E0440F551F661F771F12
:100A70008A95D1F7706414964D935D936D937C9332
:100A8000179708951F93DC01FB019C91923008F4A5
:100A900047C08081823008F443C0943051F41196ED
:100AA0001C91843099F58181682F70E0611B710978
:100AB0003FC0843021F0923031F48230B9F181812D
:100AC000882389F12DC011961C9111978230F1F085
:100AD00081811817D9F412962D913C911397828138
:100AE00093818217930794F028173907BCF0149666
:100AF0008D919D910D90BC91A02D248135814681D1
:100B00005781281739074A075B0718F4112341F06A
:100B10000AC082179307A407B50740F4112319F000
:100B200061E070E005C06FEF7FEF02C060E070E051
:100B3000CB011F910895DF93CF93CDB7DEB72897F0
:100B40000FB6F894DEBF0FBECDBF8A836B834C8394
:100B500081E089838A81843008F0F1C08B818830FC
:100B600008F0EDC08C81813009F06FC08A81282F98
:100B700030E038872F838F8198858130910549F146
:100B80002F813885223031052CF48F81988500978C
:100B900061F0D6C02F8138852230310571F18F8107
:100BA000988583309105E9F1CBC0AAE3B0E0EAE390
:100BB000F0E08081482F8B81282F30E081E090E0A9
:100BC000022E02C0880F991F0A94E2F7842B8C939F
:100BD000B7C0A7E3B0E0E7E3F0E08081482F8B8166
:100BE000282F30E081E090E0022E02C0880F991F8C
:100BF0000A94E2F7842B8C93A3C0A4E3B0E0E4E36F
:100C0000F0E08081482F8B81282F30E081E090E058
:100C1000022E02C0880F991F0A94E2F7842B8C934E
:100C20008FC0A1E3B0E0E1E3F0E08081482F8B8149
:100C3000282F30E081E090E0022E02C0880F991F3B
:100C40000A94E2F7842B8C937BC08C81882309F073
:100C500074C08A81282F30E03E832D838D819E8150
:100C60008130910559F12D813E81223031052CF4DE
:100C70008D819E81009769F063C02D813E81223075
:100C8000310589F18D819E818330910509F440C041
:100C900057C0AAE3B0E0EAE3F0E08081482F8B81FF
:100CA000282F30E081E090E0022E02C0880F991FCB
:100CB0000A94E2F7809584238C9342C0A7E3B0E0C6
:100CC000E7E3F0E08081482F8B81282F30E081E03E
:100CD00090E0022E02C0880F991F0A94E2F78095D7
:100CE00084238C932DC0A4E3B0E0E4E3F0E08081A2
:100CF000482F8B81282F30E081E090E0022E02C047
:100D0000880F991F0A94E2F7809584238C9318C06A
:100D1000A1E3B0E0E1E3F0E08081482F8B81282F50
:100D200030E081E090E0022E02C0880F991F0A9403
:100D3000E2F7809584238C9303C0198201C0198245
:100D4000898128960FB6F894DEBF0FBECDBFCF9134
:100D5000DF910895DF93CF93CDB7DEB728970FB615
:100D6000F894DEBF0FBECDBF8A836B834C8381E0D6
:100D700089838A81843008F0F1C08B81883008F043
:100D8000EDC08C81813009F06FC08A81282F30E05E
:100D900038872F838F8198858130910549F12F8184
:100DA0003885223031052CF48F819885009761F0C9
:100DB000D6C02F8138852230310571F18F81988519
:100DC00083309105E9F1CBC0ABE3B0E0EBE3F0E0B9
:100DD0008081482F8B81282F30E081E090E0022E27
:100DE00002C0880F991F0A94E2F7842B8C93B7C036
:100DF000A8E3B0E0E8E3F0E08081482F8B81282F62
:100E000030E081E090E0022E02C0880F991F0A9422
:100E1000E2F7842B8C93A3C0A5E3B0E0E5E3F0E018
:100E20008081482F8B81282F30E081E090E0022ED6
:100E300002C0880F991F0A94E2F7842B8C938FC00D
:100E4000A2E3B0E0E2E3F0E08081482F8B81282F1D
:100E500030E081E090E0022E02C0880F991F0A94D2
:100E6000E2F7842B8C937BC08C81882309F074C0BB
:100E70008A81282F30E03E832D838D819E818130B1
:100E8000910559F12D813E81223031052CF48D815F
:100E90009E81009769F063C02D813E81223031052B
:100EA00089F18D819E818330910509F440C057C03E
:100EB000ABE3B0E0EBE3F0E08081482F8B81282F9B
:100EC00030E081E090E0022E02C0880F991F0A9462
:100ED000E2F7809584238C9342C0A8E3B0E0E8E376
:100EE000F0E08081482F8B81282F30E081E090E076
:100EF000022E02C0880F991F0A94E2F7809584237E
:100F00008C932DC0A5E3B0E0E5E3F0E08081482FAD
:100F10008B81282F30E081E090E0022E02C0880F04
:100F2000991F0A94E2F7809584238C9318C0A2E35A
:100F3000B0E0E2E3F0E08081482F8B81282F30E0A1
:100F400081E090E0022E02C0880F991F0A94E2F718
:100F5000809584238C9303C0198201C019828981F2
:100F600028960FB6F894DEBF0FBECDBFCF91DF91AC
:100F70000895DF93CF93CDB7DEB727970FB6F894D8
:100F8000DEBF0FBECDBF8A836B835D834C8381E060
:100F900089838A81843008F0A6C08B81883008F06C
:100FA000A2C08A81282F30E03F832E834E815F814B
:100FB00041305105C1F18E819F818230910534F419
:100FC0002E813F812115310571F08EC04E815F81E8
:100FD0004230510509F447C08E819F8183309105CD
:100FE00009F461C081C0E9E3F0E08081482F50E05E
:100FF0008B81282F30E081E090E002C0880F991F9C
:101000002A95E2F79A01282339238B81882F90E0D3
:10101000A90102C0559547958A95E2F7CA01EC816E
:10102000FD81808361C0E6E3F0E08081482F50E0DD
:101030008B81282F30E081E090E002C0880F991F5B
:101040002A95E2F79A01282339238B81882F90E093
:10105000A90102C0559547958A95E2F7CA01EC812E
:10106000FD81808341C0E3E3F0E08081482F50E0C0
:101070008B81282F30E081E090E002C0880F991F1B
:101080002A95E2F79A01282339238B81882F90E053
:10109000A90102C0559547958A95E2F7CA01EC81EE
:1010A000FD81808321C0E0E3F0E08081482F50E0A3
:1010B0008B81282F30E081E090E002C0880F991FDB
:1010C0002A95E2F79A01282339238B81882F90E013
:1010D000A90102C0559547958A95E2F7CA01EC81AE
:1010E000FD81808301C01982898127960FB6F8940B
:1010F000DEBF0FBECDBFCF91DF910895DF93CF93B9
:1011000000D000D00F92CDB7DEB78A836B8381E029
:1011100089838A81843008F073C08B81883008F01D
:101120006FC08A81282F30E03D832C838C819D8184
:101130008130910549F12C813D81223031052CF41B
:101140008C819D81009761F05CC02C813D812230B3
:10115000310571F18C819D8183309105E9F151C098
:10116000ABE3B0E0EBE3F0E08081482F8B81282FE8
:1011700030E081E090E0022E02C0880F991F0A94AF
:10118000E2F784278C933DC0A8E3B0E0E8E3F0E009
:101190008081482F8B81282F30E081E090E0022E63
:1011A00002C0880F991F0A94E2F784278C9329C004
:1011B000A5E3B0E0E5E3F0E08081482F8B81282FA4
:1011C00030E081E090E0022E02C0880F991F0A945F
:1011D000E2F784278C9315C0A2E3B0E0E2E3F0E0ED
:1011E0008081482F8B81282F30E081E090E0022E13
:1011F00002C0880F991F0A94E2F784278C9301C0DC
:10120000198289810F900F900F900F900F90CF91BE
:10121000DF910895DF93CF9300D000D00F92CDB728
:10122000DEB78A836B8381E089838A81843098F575
:101230008A81282F30E03D832C838C819D818130F1
:101240009105D1F02C813D81223031052CF48C8127
:101250009D81009761F020C02C813D8122303105B5
:1012600081F08C819D818330910581F015C0EAE386
:10127000F0E08B81808310C0E7E3F0E08B81808316
:101280000BC0E4E3F0E08B81808306C0E1E3F0E093
:101290008B81808301C0198289810F900F900F90FC
:1012A0000F900F90CF91DF910895DF93CF9300D0EF
:1012B00000D00F92CDB7DEB78A836B8381E089833C
:1012C0008A81843098F58A81282F30E03D832C83F1
:1012D0008C819D8181309105D1F02C813D8122301E
:1012E00031052CF48C819D81009761F020C02C8108
:1012F0003D812230310581F08C819D8183309105C3
:1013000081F015C0EBE3F0E08B81808310C0E8E34F
:10131000F0E08B8180830BC0E5E3F0E08B8180837C
:1013200006C0E2E3F0E08B81808301C019828981ED
:101330000F900F900F900F900F90CF91DF91089525
:10134000DF93CF9300D000D000D0CDB7DEB78A8333
:101350007C836B8381E089838A818430D8F58A819C
:10136000282F30E03E832D838D819E818130910531
:10137000E1F02D813E81223031052CF48D819E815A
:10138000009761F028C02D813E8122303105A1F007
:101390008D819E8183309105B1F01DC0E9E3F0E0BD
:1013A0008081EB81FC81808316C0E6E3F0E08081E0
:1013B000EB81FC8180830FC0E3E3F0E08081EB816F
:1013C000FC81808308C0E0E3F0E08081EB81FC8158
:1013D000808301C01982898126960FB6F894DEBFFA
:1013E0000FBECDBFCF91DF910895DF93CF9300D093
:1013F00000D0CDB7DEB78A8381E089838A818430CB
:1014000008F03FC08A81282F30E03C832B838B81FA
:101410009C8181309105E9F02B813C81223031059E
:101420002CF48B819C81009761F02CC02B813C8136
:1014300022303105B1F08B819C8183309105C9F058
:1014400021C0ABE3B0E0EBE3F0E0808180958C93CA
:1014500019C0A8E3B0E0E8E3F0E0808180958C93C8
:1014600011C0A5E3B0E0E5E3F0E0808180958C93C6
:1014700009C0A2E3B0E0E2E3F0E0808180958C93C4
:1014800001C0198289810F900F900F900F90CF911A
:10149000DF910895DF93CF9300D000D000D0CDB777
:1014A000DEB78A836B834C8381E089838A818430B1
:1014B00008F03EC18B81883008F03AC18A81282F1C
:1014C00030E03E832D838D819E818130910509F42A
:1014D0005DC02D813E81223031052CF48D819E81AD
:1014E000009771F026C12D813E812230310509F42B
:1014F00093C08D819E818330910509F4D3C019C1B9
:101500008C81813071F5A0E5B0E0E0E5F0E080810C
:101510008B7F8C93AAE3B0E0EAE3F0E08081482F70
:101520008B81282F30E081E090E002C0880F991F66
:101530002A95E2F7809584238C93ABE3B0E0EBE34C
:10154000F0E08081482F8B81282F30E081E090E00F
:10155000022E02C0880F991F0A94E2F7842B8C9305
:10156000E8C0ABE3B0E0EBE3F0E08081482F8B8193
:10157000282F30E081E090E0022E02C0880F991FF2
:101580000A94E2F7809584238C93D3C08C818130B8
:1015900071F5A0E5B0E0E0E5F0E080818B7F8C9311
:1015A000A7E3B0E0E7E3F0E08081482F8B81282FAC
:1015B00030E081E090E002C0880F991F2A95E2F7A1
:1015C000809584238C93A8E3B0E0E8E3F0E0808189
:1015D000482F8B81282F30E081E090E0022E02C05E
:1015E000880F991F0A94E2F7842B8C93A2C0A8E37A
:1015F000B0E0E8E3F0E08081482F8B81282F30E0D5
:1016000081E090E0022E02C0880F991F0A94E2F751
:10161000809584238C938DC08C81813071F5A0E5F9
:10162000B0E0E0E5F0E080818B7F8C93A4E3B0E054
:10163000E4E3F0E08081482F8B81282F30E081E0C7
:1016400090E002C0880F991F2A95E2F780958423C5
:101650008C93A5E3B0E0E5E3F0E08081482F8B8137
:10166000282F30E081E090E0022E02C0880F991F01
:101670000A94E2F7842B8C935CC0A5E3B0E0E5E329
:10168000F0E08081482F8B81282F30E081E090E0CE
:10169000022E02C0880F991F0A94E2F780958423D6
:1016A0008C9347C08C81813071F5A0E5B0E0E0E516
:1016B000F0E080818B7F8C93A1E3B0E0E1E3F0E088
:1016C0008081482F8B81282F30E081E090E002C09C
:1016D000880F991F2A95E2F7809584238C93A2E3C3
:1016E000B0E0E2E3F0E08081482F8B81282F30E0EA
:1016F00081E090E0022E02C0880F991F0A94E2F761
:10170000842B8C9316C0A2E3B0E0E2E3F0E080818A
:10171000482F8B81282F30E081E090E0022E02C01C
:10172000880F991F0A94E2F7809584238C9301C057
:101730001982898126960FB6F894DEBF0FBECDBF01
:10174000CF91DF910895DF93CF9300D000D00F9217
:10175000CDB7DEB78A836B8381E089838A81843049
:1017600008F063C08B818295807F8B838A81282FCC
:1017700030E03D832C838C819D818130910529F15E
:101780002C813D81223031052CF48C819D81009784
:1017900061F04CC02C813D812230310531F18C81CA
:1017A0009D818330910589F141C0ABE3B0E0EBE36B
:1017B000F0E080818F708C93ABE3B0E0EBE3F0E07E
:1017C00090818B81892B8C9331C0A8E3B0E0E8E352
:1017D000F0E080818F708C93A8E3B0E0E8E3F0E064
:1017E00090818B81892B8C9321C0A5E3B0E0E5E348
:1017F000F0E080818F708C93A5E3B0E0E5E3F0E04A
:1018000090818B81892B8C9311C0A2E3B0E0E2E33D
:10181000F0E080818F708C93A2E3B0E0E2E3F0E02F
:1018200090818B81892B8C9301C0198289810F90C3
:101830000F900F900F900F90CF91DF910895DF934D
:10184000CF9300D000D00F92CDB7DEB78A836B83E1
:1018500081E089838A81843008F062C08B818F7037
:101860008B838A81282F30E03D832C838C819D815E
:101870008130910529F12C813D81223031052CF4F4
:101880008C819D81009761F04CC02C813D8122307C
:10189000310531F18C819D818330910589F141C001
:1018A000ABE3B0E0EBE3F0E08081807F8C93ABE3CF
:1018B000B0E0EBE3F0E090818B81892B8C9331C019
:1018C000A8E3B0E0E8E3F0E08081807F8C93A8E3B8
:1018D000B0E0E8E3F0E090818B81892B8C9321C00C
:1018E000A5E3B0E0E5E3F0E08081807F8C93A5E3A1
:1018F000B0E0E5E3F0E090818B81892B8C9311C0FF
:10190000A2E3B0E0E2E3F0E08081807F8C93A2E389
:10191000B0E0E2E3F0E090818B81892B8C9301C0F1
:10192000198289810F900F900F900F900F90CF9197
:10193000DF910895DF93CF9300D000D0CDB7DEB70D
:1019400069837A838B839C838A816FEF0E940A0963
:101950000F900F900F900F90CF91DF910895DF932C
:10196000CF9300D000D0CDB7DEB769837A838B8365
:101970009C838981882369F48B819C81692F41E054
:101980000E949B058B819C81692F40E00E94AA06E2
:101990000FC08981813061F48B819C81692F41E086
:1019A0000E949B058B819C81692F41E00E94AA06C1
:1019B0000F900F900F900F90CF91DF910895DF93CC
:1019C000CF9300D000D0CDB7DEB769837A838B8305
:1019D0009C838981882369F48B819C81692F41E0F4
:1019E0000E949B058B819C81692F41E00E94AA0681
:1019F0000FC08981813061F48B819C81692F41E026
:101A00000E949B058B819C81692F40E00E94AA0661
:101A10000F900F900F900F90CF91DF910895DF936B
:101A2000CF9300D000D00F92CDB7DEB769837A8311
:101A30008B839C834D838981882369F42A818D81DE
:101A4000882F90E0FC01E859FF4F9081822F692F89
:101A50000E94550911C08981813071F42A818D81DC
:101A6000882F90E0FC01E859FF4F8081982F9095D6
:101A7000822F692F0E9455090F900F900F900F90A1
:101A80000F90CF91DF910895DF93CF9300D00F9205
:101A9000CDB7DEB769837A838B8389819A81692F79
:101AA00040E00E949B058B81882331F489819A81D3
:101AB000692F41E00E944A0A0F900F900F90CF913A
:101AC000DF910895DF93CF9300D000D00F92CDB770
:101AD000DEB76B837C838D8319821A828D81882384
:101AE00019F08D818130A1F48B819C819E012E5F44
:101AF0003F4F692FA9010E94B9078A81882319F4F1
:101B000081E089831BC08A818130C1F4198216C0AB
:101B10008D81823099F48B819C819E012E5F3F4F95
:101B2000692FA9010E94B9078A81882311F41982BB
:101B300005C08A81813011F481E0898389810F9009
:101B40000F900F900F900F90CF91DF910895DF933A
:101B5000CF93CDB7DEB7C15AD0400FB6F894DEBFF1
:101B60000FBECDBF9E012C5D3F4F6E963FAF2EAF97
:101B70006E9787E890E0A0969FAF8EAFA09793E016
:101B8000A1969FAFA197A096AEADBFADA0970C90C8
:101B9000A096EEADFFADA0973196A096FFAFEEAF49
:101BA000A0976E96AEADBFAD6E970C926E96EEADF1
:101BB000FFAD6E9731966E96FFAFEEAF6E97A19622
:101BC000FFADA197F150A196FFAFA197A1962FADC0
:101BD000A1972223C1F6CE018796A3969FAF8EAF21
:101BE000A397A4E8B0E0A596BFAFAEAFA597B3E0CA
:101BF000A696BFAFA697A596EEADFFADA5970080C0
:101C0000A5962EAD3FADA5972F5F3F4FA5963FAF51
:101C10002EAFA597A396AEADBFADA3970C92A3969A
:101C2000EEADFFADA3973196A396FFAFEEAFA397AE
:101C3000A696FFADA697F150A696FFAFA697A696DB
:101C40002FADA6972223B9F6CE018A96A8969FAF0C
:101C50008EAFA897A1E8B0E0AA96BFAFAEAFAA97A3
:101C6000B3E0AB96BFAFAB97AA96EEADFFADAA9728
:101C70000080AA962EAD3FADAA972F5F3F4FAA9640
:101C80003FAF2EAFAA97A896AEADBFADA8970C9266
:101C9000A896EEADFFADA8973196A896FFAFEEAF30
:101CA000A897AB96FFADAB97F150AB96FFAFAB9754
:101CB000AB962FADAB972223B9F6CE018D96AD969C
:101CC0009FAF8EAFAD97AEE7B0E0AF96BFAFAEAF10
:101CD000AF97B3E0E096BFAFE097AF96EEADFFAD44
:101CE000AF970080AF962EAD3FADAF972F5F3F4FC0
:101CF000AF963FAF2EAFAF97AD96AEADBFADAD9740
:101D00000C92AD96EEADFFADAD973196AD96FFAFAF
:101D1000EEAFAD97E096FFADE097F150E096FFAFE4
:101D2000E097E0962FADE0972223B9F6CE01C0965A
:101D3000E2969FAF8EAFE297ABE7B0E0E496BFAF1D
:101D4000AEAFE497B3E0E596BFAFE597E496EEADAE
:101D5000FFADE4970080E4962EAD3FADE4972F5F92
:101D60003F4FE4963FAF2EAFE497E296AEADBFADE6
:101D7000E2970C92E296EEADFFADE2973196E296D5
:101D8000FFAFEEAFE297E596FFADE597F150E59630
:101D9000FFAFE597E5962FADE5972223B9F6CE0183
:101DA000C396E7969FAF8EAFE797A8E7B0E0E996B6
:101DB000BFAFAEAFE997B3E0EA96BFAFEA97E99657
:101DC000EEADFFADE9970080E9962EAD3FADE99706
:101DD0002F5F3F4FE9963FAF2EAFE997E796AEAD45
:101DE000BFADE7970C92E796EEADFFADE797319662
:101DF000E796FFAFEEAFE797EA96FFADEA97F150AF
:101E0000EA96FFAFEA97EA962FADEA972223B9F652
:101E1000CE01C696EC969FAF8EAFEC97A5E7B0E0EB
:101E2000EE96BFAFAEAFEE97B3E0EF96BFAFEF97D2
:101E3000EE96EEADFFADEE970080EE962EAD3FAD87
:101E4000EE972F5F3F4FEE963FAF2EAFEE97EC969B
:101E5000AEADBFADEC970C92EC96EEADFFADEC974E
:101E60003196EC96FFAFEEAFEC97EF96FFADEF97A4
:101E7000F150EF96FFAFEF97EF962FADEF9722233C
:101E8000B9F6CE01C996C158DF4F99838883CF57E1
:101E9000D040A2E7B0E0CF57DF4FB983A883C15845
:101EA000D040B3E0CD57DF4FB883C358D040CF57B1
:101EB000DF4FE881F981C158D0400080CF57DF4F14
:101EC00028813981C158D0402F5F3F4FCF57DF4F16
:101ED00039832883C158D040C158DF4FA881B981C8
:101EE000CF57D0400C92C158DF4FE881F981CF57CE
:101EF000D0403196C158DF4FF983E883CF57D040A7
:101F0000CD57DF4FF881C358D040F150CD57DF4F48
:101F1000F883C358D040CD57DF4F2881C358D040F5
:101F2000222329F61CAE83E08DAF82E08EAF1FAE78
:101F3000FE01E05CFF4F1082FE01E05CFF4F83E09A
:101F40008183FE01E05CFF4F82E08283FE01E05C62
:101F5000FF4F81E083836CA17DA18EA10E94440D7F
:101F60006FA178A589A50E94440D6AA57BA58CA5C3
:101F70000E94440D6DA57EA58FA50E94440D68A901
:101F800079A98AA90E94440D6BA97CA98DA90E94F8
:101F9000440D6EA97FA988AD0E94440D69AD7AAD4C
:101FA0008BAD0E94440D8CAD9DADAEADBFADBC01FF
:101FB000CD010E949A0CFE01E05CFF4F808191816F
:101FC000A281B381BC01CD010E949A0CCE018C5B31
:101FD0009F4F29E0FC01DF01322F1D923A95E9F76E
:101FE000CE018C5B9F4FCC57DF4F99838883C458B9
:101FF000D040CE018496CA57DF4F99838883C65854
:10200000D04093E0C857DF4F9883C858D040CA5794
:10201000DF4FA881B981C658D0400C90CA57DF4F16
:10202000E881F981C658D0403196CA57DF4FF9830D
:10203000E883C658D040CC57DF4FA881B981C45837
:10204000D0400C92CC57DF4FE881F981C458D04082
:102050003196CC57DF4FF983E883C458D040C85736
:10206000DF4FF881C858D040F150C857DF4FF88390
:10207000C858D040C857DF4F2881C858D0402223C5
:1020800031F6CE018C5B9F4FDC011396C757DF4FB3
:10209000B983A883C958D040FE01B796C557DF4F12
:1020A000F983E883CB58D040F3E0C357DF4FF88380
:1020B000CD58D040C557DF4FA881B981CB58D0400B
:1020C0000C90C557DF4FE881F981CB58D04031964D
:1020D000C557DF4FF983E883CB58D040C757DF4F50
:1020E000A881B981C958D0400C92C757DF4FE88109
:1020F000F981C958D0403196C757DF4FF983E8833B
:10210000C958D040C357DF4FF881CD58D040F15067
:10211000C357DF4FF883CD58D040C357DF4F2881D6
:10212000CD58D040222331F6CE018C5B9F4FDC018D
:102130001696C257DF4FB983A883CE58D040FE0110
:10214000BA96C057DF4FF983E883C059D040F3E017
:10215000CE56DF4FF883C259D040C057DF4FA88119
:10216000B981C059D0400C90C057DF4FE881F98148
:10217000C059D0403196C057DF4FF983E883C0592A
:10218000D040C257DF4FA881B981CE58D0400C92C1
:10219000C257DF4FE881F981CE58D0403196C257FF
:1021A000DF4FF983E883CE58D040CE56DF4FF88119
:1021B000C259D040F150CE56DF4FF883C259D040BB
:1021C000CE56DF4F2881C259D040222331F6CE01AE
:1021D000835B9F4F29E0FC01DF01322F1D923A956E
:1021E000E9F7CE01835B9F4FCD56DF4F99838883FC
:1021F000C359D040CE018D96CB56DF4F998388834B
:10220000C559D04093E0C956DF4F9883C759D04095
:10221000CB56DF4FA881B981C559D0400C90CB5621
:10222000DF4FE881F981C559D0403196CB56DF4F59
:10223000F983E883C559D040CD56DF4FA881B981D5
:10224000C359D0400C92CD56DF4FE881F981C35974
:10225000D0403196CD56DF4FF983E883C359D04043
:10226000C956DF4FF881C759D040F150C956DF4FEA
:10227000F883C759D040C956DF4F2881C759D0408D
:10228000222331F6CE01835B9F4FDC011396C856A3
:10229000DF4FB983A883C859D040FE01F096C656D7
:1022A000DF4FF983E883CA59D040F3E0C456DF4FCB
:1022B000F883CC59D040C656DF4FA881B981CA599E
:1022C000D0400C90C656DF4FE881F981CA59D04002
:1022D0003196C656DF4FF983E883CA59D040C856B5
:1022E000DF4FA881B981C859D0400C92C856DF4F42
:1022F000E881F981C859D0403196C856DF4FF9833B
:10230000E883C859D040C456DF4FF881CC59D0403B
:10231000F150C456DF4FF883CC59D040C456DF4F3C
:102320002881CC59D040222331F6CE01835B9F4FC8
:10233000DC011696C356DF4FB983A883CD59D04030
:10234000FE01F396C156DF4FF983E883CF59D040A1
:10235000F3E0CF55DF4FF883C15AD040C156DF4F6D
:10236000A881B981CF59D0400C90C156DF4FE88188
:10237000F981CF59D0403196C156DF4FF983E883B8
:10238000CF59D040C356DF4FA881B981CD59D04035
:102390000C92C356DF4FE881F981CD59D040319678
:1023A000C356DF4FF983E883CD59D040CF55DF4F77
:1023B000F881C15AD040F150CF55DF4FF883C15A50
:1023C000D040CF55DF4F2881C15AD040222331F66B
:1023D0001BA21AA219A218A21F8E4DC02F8D38A1C0
:1023E000AE014C5B5F4FC901880F991F820F931F8D
:1023F000FA01E80FF91F6081718182810E94620DEC
:102400008823A1F52F8D38A1AE014C5B5F4FC90128
:10241000880F991F820F931F840F951FFC0131961F
:102420008081A82FB0E06C96BFAFAEAF6C976C9672
:10243000EEADFFAD6C97E130F10589F06C962EADF5
:102440003FAD6C972230310571F06C968EAD9FAD2B
:102450006C97009759F48BA18F5F8BA307C08BA15A
:102460008E5F8BA303C08BA18C5F8BA38F8D98A1F4
:10247000019698A38F8F8F8D98A1833091050CF4CE
:10248000ADCF1E8E1D8E4EC02D8D3E8DAE01435B99
:102490005F4FC901880F991F820F931FFA01E80F40
:1024A000F91F6081718182810E94620D8823A9F5E4
:1024B0002D8D3E8DAE01435B5F4FC901880F991F83
:1024C000820F931F840F951FFC0131968081A82FE6
:1024D000B0E06A96BFAFAEAF6A976A96EEADFFAD59
:1024E0006A97E430F10591F06A962EAD3FAD6A9798
:1024F0002530310579F06A968EAD9FAD6A978330AD
:10250000910559F48AA18F5F8AA307C08AA18E5FC3
:102510008AA303C08AA18C5F8AA38D8D9E8D0196AC
:102520009E8F8D8F8D8D9E8D833091050CF4ACCF59
:10253000E9E3F0E080818295869586958370A82FE7
:10254000B0E06896BFAFAEAF68976896EEADFFADEE
:102550006897E130F10511F168962EAD3FAD6897AF
:10256000223031053CF468968EAD9FAD6897009798
:1025700081F026C06896AEADBFAD6897A230B105B8
:1025800091F06896EEADFFAD6897E330F10591F0FC
:1025900017C08BA19AA1890F89A312C08BA19AA100
:1025A000891B89A30DC08BA19AA1899F802D11241D
:1025B00089A306C08BA19AA1692F0E940D1489A33B
:1025C0008CAD9DADAEADBFADBC01CD010E94AF0CD9
:1025D000FE01E05CFF4F80819181A281B381BC014B
:1025E000CD010E94DF0C89A19AE0692F0E940D1491
:1025F000282F8CAD9DADAEADBFADBC01CD01422F3E
:102600000E940F0D80E090E0A0EAB0E4898F9A8FDD
:10261000AB8FBC8F698D7A8D8B8D9C8D20E030E0E7
:102620004AEF54E40E941702DC01CB018D8B9E8B94
:10263000AF8BB88F6D897E898F89988D20E030E0CF
:1026400040E85FE30E94710388232CF481E090E06E
:102650009C8B8B8B3FC06D897E898F89988D20E004
:102660003FEF4FE757E40E94110318164CF5698DB0
:102670007A8D8B8D9C8D20E030E040E251E40E9409
:102680001702DC01CB01BC01CD010E944100DC013D
:10269000CB019C8B8B8B0FC088EC90E09A8B898B45
:1026A00089899A890197F1F79A8B898B8B899C8903
:1026B00001979C8B8B8B8B899C89009769F714C041
:1026C0006D897E898F89988D0E944100DC01CB0144
:1026D0009C8B8B8B8B899C89988B8F878F85988916
:1026E0000197F1F7988B8F87FE01E05CFF4F8081A7
:1026F0009181A281B381BC01CD010E94AF0C8CAD50
:102700009DADAEADBFADBC01CD010E94DF0C89A176
:102710009AE0692F0E940D14892F282FFE01E05C9A
:10272000FF4F80819181A281B381BC01CD01422FF5
:102730000E940F0D80E090E0A0EAB0E48B879C87B8
:10274000AD87BE876B857C858D859E8520E030E0DA
:102750004AEF54E40E941702DC01CB018F83988773
:10276000A987BA876F81788589859A8520E030E0CE
:1027700040E85FE30E94710388232CF481E090E03D
:102780009E838D833FC06F81788589859A8520E0FF
:102790003FEF4FE757E40E94110318164CF56B8585
:1027A0007C858D859E8520E030E040E251E40E94EA
:1027B0001702DC01CB01BC01CD010E944100DC010C
:1027C000CB019E838D830FC088EC90E09C838B832C
:1027D0008B819C810197F1F79C838B838D819E81F6
:1027E00001979E838D838D819E81009769F7F0CD3F
:1027F0006F81788589859A850E944100DC01CB0133
:102800009E838D838D819E819A83898389819A811C
:102810000197F1F79A838983DBCD991B79E004C096
:10282000991F961708F0961B881F7A95C9F780950F
:1028300008952F923F924F925F926F927F928F9264
:102840009F92AF92BF92CF92DF92EF92FF920F933F
:102850001F93CF93DF93CDB7DEB7CA1BDB0B0FB649
:10286000F894DEBF0FBECDBF09942A883988488806
:102870005F846E847D848C849B84AA84B984C8849C
:10288000DF80EE80FD800C811B81AA81B981CE0F93
:10289000D11D0FB6F894DEBF0FBECDBFED01089578
:0428A000F894FFCFDA
:1028A40000000000000000003F065B4F666D7D07DE
:1028B4007F6F00070000060000050000040000030D
:0A28C4000000020000010000000007
:00000001FF
